:020000040800F2
:1000000000500020F1020008CD020008CF020008D5
:10001000D1020008D3020008D50200080000000049
:10002000000000000000000000000000D7020008EF
:10003000D902000800000000DB020008DD02000811
:1000400039030008390300083903000839030008A0
:100050003903000839030008390300083903000890
:100060003903000839030008390300083903000880
:100070003903000839030008390300083903000870
:100080003903000839030008390300083903000860
:10009000E1020008390300083903000839030008A9
:1000A0003903000839030008390300083903000840
:1000B0003903000839030008390300083903000830
:1000C0003903000839030008390300083903000820
:1000D0003903000839030008390300083903000810
:1000E0003903000839030008390300080000000044
:1000F0000000000000000000000000000000000000
:0C01000000000000000000005FF808F1A3
:10010C0010B5054C237833B9044B13B10448AFF345
:10011C0000800123237010BDE800002000000000C7
:10012C00203E000808B5034B1BB103490348AFF34D
:10013C00008008BD00000000EC000020203E0008FC
:10014C00704710B500F00FF8044600F00CF8001BD7
:10015C006328FAD900F007F80446002000F08AF969
:10016C00F3E700F0A9BA00F0A1BA10B514220024EC
:10017C0094B021460DEB0200CDE90F4403F042FE92
:10018C002146102201A803F03DFE4FF480330521D7
:10019C000C9402240122CDE90A13CDE911434FF44A
:1001AC00E0130AA8CDE90D22139301F0F7FB08B177
:1001BC0072B6FEE70F23CDE905344FF48063079048
:1001CC00CDE90830214605A801F0BEFD08B172B694
:1001DC00FEE711224FF48073049001A8CDE90123AE
:1001EC0001F05EFE08B172B6FEE714B010BD00005F
:1001FC0070B588B000F03CFAFFF7B7FF1C4B4FF41A
:10020C0080559A69002642F020029A619A69194C2D
:10021C0002F020020092009A9A69204642F01002E5
:10022C009A619A6904A902F010020192019A9A69E2
:10023C0042F004029A619A6902F004020292029A54
:10024C009A6942F008029A619B6903F008030393D0
:10025C00039B1123CDE904530223CDE9066300F07F
:10026C00CBFB32462946204600F0A2FC08B070BDFC
:10027C00001002400008014072B6FEE70E4B82B03F
:10028C009A6942F001029A619A6902F001020092A5
:10029C00009ADA6942F08052DA61DB69074A03F0AE
:1002AC0080530193019B536823F0E06343F0007388
:1002BC00536002B0704700BF0010024000000140C4
:1002CC00FEE7FEE7FEE7FEE7FEE770477047704784
:1002DC0000F0E0B9014800F039BD00BF240D00204A
:1002EC00704700000C480D490D4A002302E0D45819
:1002FC00C4500433C4188C42F9D30A4A0A4C002364
:10030C0001E013600432A242FBD3FFF7E9FF03F0D4
:10031C0055FD03F049FD704700000020E40000206B
:10032C00E83E0008E800002010100020FEE7000066
:10033C004FF000634FF48060054A0649136003F5E3
:10034C0080638B42908002F10802F7D10120704744
:10035C0004010020000001080023F0B5244A4FF0EE
:10036C00FF361C461746314487B00144D2F800C012
:10037C00B2F804E00CF1FF356045754434D88C4577
:10038C008CBF4FF0000E4FF0010EA84205D88D42E5
:10039C0098BF4FF0010E604506D28C4501D88D42B6
:1003AC0002D2BEF1000F03D0751C08BF1EB201347F
:1003BC000133402B02F10802D8D194B100F01EFA9F
:1003CC0000220123CDE9022357F8363001A902A8F7
:1003DC00CDE9043400F0C4FAB0FA80F4640900F0FA
:1003EC000DFA204607B0F0BD4FF0000ECDE700BF70
:1003FC0004010020F8B510F0010506460C4617461E
:10040C0018D100F0FBF90134AF4204D8012400F0FC
:10041C00F5F92046F8BD14F8013C14F8022B012024
:10042C001A437119002300F025FA08B90235EBE7DD
:10043C000024ECE70024ECE7024BDA799988186881
:10044C0000F0B6BB040000201FB501240023CDE949
:10045C00014302230393064B69469A88186800925D
:10046C0000F0CAFAFFF7E8FF204604B010BD00BF49
:10047C000400002020B9034B9988186800F09DBB3C
:10048C00704700BF040000201D4B10B55B6A1D4C6B
:10049C00B3F1806F0ED1012000F052F8411C012005
:1004AC0000F054F84FF47A70FFF75BFE012000F077
:1004BC0047F820600021012000F048F82368022B47
:1004CC001BD0114C2268013217D001F0FBF900F05F
:1004DC009BF800234FF0FF300C4A03F1200142F847
:1004EC002100BFF34F8FBFF36F8F0133082BF4D173
:1004FC000022074B1A6023689847012010BD00BFEB
:10050C0000100240040300200450000800E100E049
:10051C0010E000E008B54FF0FF330748074AC0E988
:10052C0000234FF48073836001F0F0FD08B1FFF7F6
:10053C00A3FE012008BD00BF0803002000280040D6
:10054C000146014801F038BE080300200A46014666
:10055C00014801F029BE00BF0803002007B50B4B72
:10056C0002689A420ED101F0A7F9094BDA6942F000
:10057C000062DA610122DB6903F000630193019BE5
:10058C00044B1A6003B05DF804FB00BF0028004068
:10059C00001002403C0442427FB54FF480561123B8
:1005AC000025CDE9006302230E4C69462046CDE9B7
:1005BC00025300F021FA2A463146204600F0F8FAA0
:1005CC00C820FFF7CEFD01223146204600F0F0FA9C
:1005DC0020466946019500F00FFA03F005FA012058
:1005EC0004B070BD0008014008B5FFF701FEFFF72D
:1005FC0091FFFFF749FFFFF727FFFFF7CDFFBDE89E
:10060C000840FFF795BE704710B54FF0FF3200243D
:10061C00044BDA601C61DA60DC60FFF7F4FF204603
:10062C0010BD00BF0010024038B50E4B05461878BF
:10063C004FF47A73B3FBF0F30B4A1068B0FBF3F092
:10064C0000F09EF8044658B90F2D09D802462946E9
:10065C004FF0FF3000F054F82046044B1D6038BDBD
:10066C000120FCE70C0000200000002010000020FE
:10067C00074A08B51368032043F01003136000F019
:10068C002DF80020FFF7D0FFFFF7F8FD002008BD84
:10069C0000200240034A044B11681B780B44136082
:1006AC00704700BF3C0800200C000020014B18686C
:1006BC00704700BF3C08002038B50446FFF7F6FF32
:1006CC000546631C1EBF044B1B78E418FFF7EEFFB6
:1006DC00431BA342FAD338BD0C0000200749030288
:1006EC00CA6803F4E06322F4E0621204120C1343B0
:1006FC0043F0BF6343F40033CB60704700ED00E080
:10070C00164B30B5DC68C4F30224C4F10703251D75
:10071C00042B28BF0423062D4FF0FF3598BF00246F
:10072C0005FA03F388BF033C21EA0303A34005FA4F
:10073C0004F422EA0402002843EA0203ACBF00F1ED
:10074C006040074A4FEA0313DBB2ABBF00F56140D0
:10075C0000F00F0080F80033135430BD00ED00E0C2
:10076C0014ED00E0002808DB0123420900F01F0013
:10077C0003FA00F0014B43F82200704700E100E05F
:10078C000138B0F1807F0AD2F021064B064A58603E
:10079C0082F823100020072298601A60704701200D
:1007AC00704700BF10E000E000ED00E0114AD36894
:1007BC0013F0100305D01049CB6943F00203CB6151
:1007CC001023D268500706D50B4943F00403CA69BD
:1007DC0042F00102CA61074AD169C90708D5064827
:1007EC00C16941F00401C161D16921F00101D161FC
:1007FC00D36070470020024040080020064B186967
:10080C0010F0800007D0054A5A6002F188325A6015
:10081C001869C0F3C01070470020024023016745DF
:10082C00F8B50446FFF742FF114D07462E46EB681C
:10083C00D80712D4EB68990644BF2023EB60F36809
:10084C00DA0606D4F369DB0703D4F06810F0040071
:10085C0007D0FFF7ABFF012003E0631CE7D00CB916
:10086C000320F8BDFFF722FFC01BA042DFD9F7E73A
:10087C00002002402DE9F84F254E1F46337E0546D9
:10088C00012B8846914640D001234CF250303376F0
:10089C00FFF7C6FFA8BB012D03D0022D0CBF02250C
:1008AC0004254FF0000A5346DFF868B04FEA0A14EB
:1008BC00C4F12001A4F1200207FA01F129FA04F491
:1008CC00F3610C4327FA02F21443DBF81020A4B2B4
:1008DC0042F00102CBF810204CF2503028F81A40AC
:1008EC00FFF79EFFDBF8102022F00102CBF810205E
:1008FC0038B90AF1010A5FFA8AF295424FF0000307
:10090C00D4D800233376BDE8F88F0220FBE700BF74
:10091C0040080020002002400022064BDA61064B02
:10092C001A6942F004021A611A6942F040021A6113
:10093C00704700BF40080020002002400022064BF8
:10094C00DA61064B1A6942F002021A6158611A699F
:10095C0042F040021A61704740080020002002401B
:10096C002DE9F041224E0546337E8846012B3DD0C1
:10097C000124347603684CF25030022B13D1FFF76C
:10098C004FFF20B1012000233376BDE8F081FFF743
:10099C00C3FF4CF25030FFF743FF164A136923F0A4
:1009AC0004031361EFE7FFF73BFF0028EAD14FF098
:1009BC00FF33C8F800302046AF680E4CD5E9023240
:1009CC0003EB8223BB42DED93846FFF7B7FF4CF26C
:1009DC005030FFF725FF236923F00203236110B188
:1009EC00C8F80070CFE707F58067E7E70220CCE78F
:1009FC0040080020002002402DE9F74F0022164647
:100A0C00644BDFF8A0C1DFF8A0E10D6835FA06F4FD
:100A1C0002D103B0BDE8F08F4FF0010808FA06F8D8
:100A2C0005EA080438EA05057CD14D68032D07D882
:100A3C00013D022D00F28880DFE805F0969BA100B5
:100A4C00122D00F099806FD8112D00F08F80FF2CA3
:100A5C0098BF82464FF00F0988BF00F1040A4FEA95
:100A6C008605DAF8008088BF203D09FA05FB28EAE4
:100A7C000B0802FA05F548EA0505CAF80050D1F84A
:100A8C0004A01AF0805F4DD0434F26F00308BD69D7
:100A9C0008F1804845F00105BD61BD6908F5803855
:100AAC0005F00105019506F0030B019D4FEA8B0B38
:100ABC00D8F8085009FA0BF925EA0909374DA8426C
:100ACC0061D005F58065A8425FD005F58065A84228
:100ADC005DD005F58065A8420CBF0325042505FAF9
:100AEC000BF545EA0905C8F808501D681AF4803F53
:100AFC0014BF2543A5431D605D681AF4003F14BF65
:100B0C002543A5435D609D681AF4801F14BF2543DF
:100B1C00A5439D60DD681AF4001F14BF2C4325EA21
:100B2C000404DC60013670E71D4FBD420CD017D8B1
:100B3C00DFF878904D4507D009F570294D4503D065
:100B4C00A9F580194D4582D18A68D2B1012A08BF16
:100B5C00C0F810804FF0080218BFC0F8148076E778
:100B6C006545F1D07545EEE7CA6870E7CA6804328E
:100B7C006DE7CA6808326AE7CA680C3267E7002278
:100B8C0065E7042263E70025A9E70125A7E702250D
:100B9C00A5E700BF0004014000100240000801401E
:100BAC000000221000003110000032100000121062
:100BBC000AB1016170470904FBE7C36801EA03024B
:100BCC0021EA030141EA024101617047F0B5044694
:100BDC0087B010B390F8A93203F0FF021BB980F86C
:100BEC00A82202F0CBFF032325466E4684F8A932D7
:100BFC0055F8100B01F0F8FA0FCD0FC62B68271D16
:100C0C003360264697E80E0056F8100B01F0DCFA1C
:100C1C00054620B1022384F8A93201254CE0014697
:100C2C00206801F0EBFA29464FF0010E2825084602
:100C3C00D4F804C0CAB2944501F101011BD80023B9
:100C4C0028251946D8B2844503F1010320D8EC4677
:100C5C0035460FCDACE80F002B68CCF8003097E888
:100C6C000E00206801F0CCFA01230546E8B10222FF
:100C7C0084F8A922D1E705FB0243C3E90E0083F8EF
:100C8C0029E083F82820DA8683F82B001864D1E752
:100C9C0005FB0042C2E95E1182F8691182F8680115
:100CAC0082F86B11C2F88011CCE784F8240020681C
:100CBC0084F8A93201F083FC284607B0F0BD38B5A2
:100CCC0090F8A8320446012B10D0012580F8A852C8
:100CDC00006801F080FA2946204603F064F8206889
:100CEC0001F06BFC002084F8A80238BD0220FCE760
:100CFC0010B590F8A8320446012B10D0012380F8CF
:100D0C00A832006801F070FA0021204603F04BF87D
:100D1C00206801F054FC002084F8A80210BD0220C9
:100D2C00FCE710B590F8A8220446012A0BD001224A
:100D3C0080F8241080F8A822006801F038FC00200C
:100D4C0084F8A80210BD0220FCE700002DE9F04F4A
:100D5C00044685B0006801F034FC000409D5DFF8C6
:100D6C008C99DFF88C892068B0F844301D0400F1B0
:100D7C00C180206801F025FC41050FD52268204672
:100D8C00B2F8443023F480631B041B0CA2F84430EB
:100D9C0002F02FFF00212046FFF7C3FF206801F06F
:100DAC0010FC410408D52268B2F8443023F4804387
:100DBC001B041B0CA2F84430206801F002FC8204D6
:100DCC0008D52268B2F8443023F400531B041B0CE2
:100DDC00A2F84430206801F0F4FBC3041CD522684F
:100DEC002046B2F8403023F004031B041B0CA2F87D
:100DFC004030B2F8403023F008031B041B0CA2F85F
:100E0C00403002F019FF2268B2F8443023F48053CA
:100E1C001B041B0CA2F84430206801F0D2FB070520
:100E2C0046D568462368064619461A4603F120053E
:100E3C0032F8047B954226F8027BF9D1B3F84020B6
:100E4C0092B242F00102A3F84020B3F8402022F005
:100E5C0001021204120CA3F84020B3F844205605EA
:100E6C00FBD5B3F8442022F480621204120CA3F8D0
:100E7C00442030F8022B21F8042B8D42F9D1B3F821
:100E8C004020204692B242F00802A3F84020B3F86A
:100E9C00442022F400621204120CA3F84420B3F88C
:100EAC00402092B242F00402A3F8402002F0B4FEBB
:100EBC00206801F086FB82050BD522682046B2F82B
:100ECC00443023F400731B041B0CA2F8443002F0D2
:100EDC008CFE206801F075FBC30508D52268B2F8BA
:100EEC00443023F480731B041B0CA2F8443005B06F
:100EFC00BDE8F08FB0F84460B1B216F00F0640F0C8
:100F0C00BD8011F010012DD103889BB203EA0903B7
:100F1C0043F400430380B0F8503094F828209BB27F
:100F2C0003EBC20300EB4300B0F80434E26BC3F3F1
:100F3C00090363641344E363204602F04EFE94F805
:100F4C002430002B3FF40FAF226C002A7FF40BAF40
:100F5C0094F82430216843F08003A1F84C3084F8D5
:100F6C00242000E70588ABB215F4006521D0B0F859
:100F7C00503094F868219BB203EBC20300EB43039F
:100F8C00B3F80C34B4F86E21C3F30903C4F88431FC
:100F9C0004F52C7101F0BAFE22682046138823F068
:100FAC0070031B051B0D43F08003138002F006FE3B
:100FBC00D9E61A047FF5D7AE038823F070031B051E
:100FCC001B0D43F080030380B0F8503094F8682177
:100FDC009BB203EBC20300EB4303B3F80C34C3F333
:100FEC000903C4F884318BB1D4F87C1171B1B4F815
:100FFC006E2101F08BFED4F87C31D4F88421294683
:10100C0013442046C4F87C3102F0DEFD21680B88C5
:10101C001B053FF5A8AEB1F85030D4F878519BB20F
:10102C0001F20C40CDB9C25A22F4F8421204120C4F
:10103C00C252C25A92B242F40042C2520B8823F4FA
:10104C00804323F070031B041B0C83F4405343F4C4
:10105C00004343F080030B8085E63E2D06D86A08DA
:10106C00EF0748BF0132920292B2E6E76A09EE0638
:10107C0008BF02F1FF3248EA8222F5E730F8263049
:10108C001D049FB240F1F880282130F8263001FB76
:10109C00064123F070031B051B0D43F0800320F861
:1010AC00263091F8743100F58065B3B9B0F8503042
:1010BC0091F868219BB2063303EBC20335F8135049
:1010CC00C5F30905002D00F0BB802B46B1F86E214D
:1010DC00D1F87C1101F01AFEB2E091F86B3191F865
:1010EC0068C1022B40F08B80B0F8503017F4804A66
:1010FC00D1F880214FEACC0B9BB207F0400E40D0C8
:10110C009B440BF1020B35F81B50C5F309059542B6
:10111C0013D90023C1F8803130F82C3023F48043EC
:10112C0023F070031B041B0C83F4005343F40043A3
:10113C0043F0800320F82C3004E0521BC1F88021CE
:10114C00002AE9D0BEF1000F12D0282303FB06437E
:10115C0093F8682130F8223023F4E04323F0700335
:10116C001B041B0C43F4004343F0C00320F8223053
:10117C00002D65D0282101FB06412B46B1F87021CA
:10118C00A6E75B44063335F81350C5F309059542C1
:10119C0012D9C1F880A130F82C3023F4804323F00D
:1011AC0070031B041B0C83F4005343F4004343F003
:1011BC00800320F82C3004E0521BC1F88021002A57
:1011CC00E9D0BEF1000F12D1282303FB064393F89C
:1011DC00682130F8223023F4E04323F070031B0421
:1011EC001B0C43F4004343F0C00320F822303DB302
:1011FC00282101FB06412B46B1F8722168E730F833
:10120C002C3023F4E04323F070031B041B0C43F439
:10121C00004343F0C00320F82C3091F8683130F8CB
:10122C002320DB0012F4804FB0F8502092B259D03A
:10123C000232134435F81350C5F30905002D9CD127
:10124C00282171436318D3F884212A44C3F88421DC
:10125C00D3F87C212A44C3F87C21D3F880211AB11D
:10126C00D3F878319D4246D2282303FB064320460F
:10127C0093F8681102F0A8FC38067FF574AD2825A8
:10128C00206805FB064530F826309BB203EA0903BB
:10129C0043F4004320F8263095F82B2095F828309D
:1012AC00032A04D01AB1022A3DD1F9053BD42821D6
:1012BC00B0F8502001FB064792B2023202EBC30396
:1012CC0000EB4303B3F800E4D7F840C0CEF3090EAB
:1012DC00F44517D800233B64204695F8281002F0FB
:1012EC007CFC40E50632134435F81350C5F3090570
:1012FC00002DA5D07FE701F5B4712068214401F0E1
:10130C0077F9B9E7ACEB0E033B64002BE4D006FB9A
:10131C000111FA6B7B6C72447344FA637B64214455
:10132C0001F066F91FE5282202FB0642B0F85010C6
:10133C004FEAC30A89B217F0400E126C00F5806CAC
:10134C00514407F4804700F0E98002313CF811C0A9
:10135C002821CCF3090C944528BF002201FB06413F
:10136C0038BFA2EB0C020A64BFB2002A5CD195F81C
:10137C002910002942D1B0F850101B018AB200F29A
:10138C0004411144CA5A22F4F8421204120CCA52F3
:10139C00CA5A92B242F40042CA5295F8292095F8E2
:1013AC002830AABBB0F8502000F20C4092B2104486
:1013BC001A01835A23F4F8431B041B0C8352835ADF
:1013CC009BB243F400438352204695F8281002F058
:1013DC0004FC002F00F0EA8095F82810226832F8FF
:1013EC00213023F4E04323F070031B041B0C43F463
:1013FC00404343F0800322F82130D7E00129CCD1BF
:10140C00B0F850101B018EB200F204413144C3E716
:10141C00012AD9D1B0F8502000F20C4092B21044FD
:10142C0000221B01C252CFE76FB130F8232022F407
:10143C00E04222F070021204120C42F4404242F0DC
:10144C00800220F82320282303FB064393F84C202A
:10145C00012A40F0AB805A6CD96B62449F6C5A6481
:10146C009A6B61449742D96327D3BF1A9F6495F84E
:10147C00297093B2002F43D1B0F8507095F828C062
:10148C00BFB200F2044E4FEA0C1C774402BB3CF88E
:10149C00072022F4F8421204120C2CF807203CF816
:1014AC00072092B242F400422CF80720282202FBBB
:1014BC000646328E01F08BF878E01FB9624683F84D
:1014CC004C70D4E7002283F84C209A643A46CEE75D
:1014DC003E2A0CD84FEA520ED20748BF0EF1010E2D
:1014EC004FEA8E2E1FFA8EFE2CF807E0DEE74FEA4D
:1014FC00521ED20608BF0EF1FF3E48EA8E2EF1E7CF
:10150C00012FD3D1B0F8502095F828701FFA82FC27
:10151C0000F204423F016244BB52C7E706313CF87B
:10152C0011C02821CCF3090C944588BF724601FBED
:10153C00064198BFA2EB0C020A64BFB2002A5FD12D
:10154C0095F82910002945D1B0F850101B018AB22A
:10155C0000F204411144CA5A22F4F8421204120C4B
:10156C00CA52CA5A92B242F40042CA5295F8292081
:10157C0095F82830002A37D1B0F8502000F20C40F2
:10158C0092B210441A01835A23F4F8431B041B0C27
:10159C008352835A9BB243F400438352204695F8FE
:1015AC00281002F01AFB002F3FF416AF95F8281004
:1015BC00226832F821309BB223F4E04323F040033D
:1015CC0083F0300343F4004343F0800322F82130CE
:1015DC00FFF7C9BB0129C9D1B0F850101B018EB25D
:1015EC0000F204413144C0E7012AD7D1B0F85020B1
:1015FC0000F20C4092B2104400221B01C252CDE703
:10160C006FB930F8232022F4E04222F07002120469
:10161C00120C42F4404242F0800220F8232028238E
:10162C0003FB064393F84C20012ABFD15A6CD96BAB
:10163C0062449F6C5A649A6B61449742D96325D378
:10164C00BF1A9F6495F8297093B2002F41D1B0F85E
:10165C0050C01FFA8CF700F20C4CBC4495F8287063
:10166C003F01F2B93CF8072022F4F8421204120CA4
:10167C002CF807203CF8072092B242F400422CF8D8
:10168C000720282202FB0646728E13E71FB962461A
:10169C0083F84C70D6E700229A6483F84C203A46C3
:1016AC00D0E73E2A0CD84FEA520ED20748BF0EF1B3
:1016BC00010E4FEA8E2E1FFA8EFE2CF807E0E0E7A3
:1016CC004FEA521ED20608BF0EF1FF3E48EA8E2E9C
:1016DC00F1E7012FD5D1B0F85070BAB200F20C4737
:1016EC00174495F828201201BB52CAE70F8FFFFF51
:1016FC000080FFFF11F0800F70B5054601F0070068
:10170C004FF028011CD0012400FB011129444C701E
:10171C000A614A780870CB7002B1C881022B04BFF1
:10172C0000230B7195F8A832012B13D001232868E4
:10173C0085F8A83200F078FD002085F8A80270BD6D
:10174C00002601FB00F404F5B4712C44294484F800
:10175C006961DDE70220F2E770B52824002601F06C
:10176C0007014C43051985F8681104F5B47101445F
:10177C00C5E95F23C5F8846185F86961006800F0EC
:10178C0037FF304670BD70B501F00705282101FB0D
:10179C0005040026C4E90F23012205FB011184F87E
:1017AC004C200144A364666484F8292084F82850F2
:1017BC00006800F01DFF304670BD38B5436801F07D
:1017CC0007059D42044628D811F0800F4FF02803DE
:1017DC001AD005FB0333C11801234B7001230D7084
:1017EC008B7094F8A8229A4219D0206884F8A832F9
:1017FC0000F072FE25B9206804F52C7100F0E5FEAE
:10180C00002084F8A80238BD00224B4303F5B471C4
:10181C000344014483F86921E0E70120F3E7022047
:10182C00F1E738B5436801F00F029A42044626D816
:10183C0011F0800F01F007024FF0280115D00123A1
:10184C0002FB011101444B7000250A708D7094F855
:10185C00A832012B15D00123206884F8A83200F09F
:10186C005BFE284684F8A85238BD01FB02F303F551
:10187C00B47101440344002083F86901E4E70120BA
:10188C00F2E70220F0E710B5282411F0800F1BBFFF
:10189C0001F0070101FB044104FB0100401808BFE3
:1018AC0000F5B47099B21AB90273C180002010BD52
:1018BC00012283600273F9E70122014B1A60704721
:1018CC0020000E4270B5FEF7F1FE05462F4C236842
:1018DC0043F00103236023689B073BD5236841F247
:1018EC00883623F0F80343F080032360FEF7DEFE16
:1018FC00002305466360636813F00C0F32D1244B50
:10190C00244A1A60244B1868FEF78EFE0546002800
:10191C003AD1FEF7CBFE0646236823F08073236092
:10192C00236813F0007323D16360FEF7BFFE0646F5
:10193C00236823F410232360236813F400331DD190
:10194C00226822F480222260626A42F08072626213
:10195C00A36005E0FEF7AAFE401B0228BBD90325B5
:10196C00284670BDFEF7A2FE401BB042C3D9F6E775
:10197C00FEF79CFE801B0228D2D9F0E7FEF796FEFC
:10198C00801B6428D8D9EAE70125E9E7001002405A
:10199C000000002000127A00100000202DE9F34115
:1019AC00054638B30368DB0710D42B689F075ED459
:1019BC002B68190700F195802B685A0700F1BF803E
:1019CC00E869002840F02C81002029E08F4C6368E6
:1019DC0003F00C03042B07D0636803F00C03082BF3
:1019EC000AD16368DE0307D523689C03DDD56B68D9
:1019FC00002BDAD1012013E06B68B3F5803F12D1D4
:101A0C00236843F480332360FEF750FE06462368B8
:101A1C009803CAD4FEF74AFE801B6428F7D903202A
:101A2C0002B0BDE8F0819BB9236823F480332360B6
:101A3C00236823F480232360FEF738FE06462368D0
:101A4C009903B2D5FEF732FE801B6428F7D9E6E77E
:101A5C00B3F5A02F236803D143F480232360CFE791
:101A6C0023F480332360236823F48023CBE7674C73
:101A7C00636813F00C0F07D0636803F00C03082B9A
:101A8C0010D16368DA030DD423689B0702D52B6948
:101A9C00012BAFD123686A6923F0F80343EAC20330
:101AAC00236085E72A695A4B6AB101221A60FEF756
:101ABC00FDFD064623689F07ECD4FEF7F7FD801B5F
:101ACC000228F7D9ABE71A60FEF7F0FD064623684B
:101ADC0098077FF56DAFFEF7E9FD801B0228F6D95C
:101AEC009DE7AA69494E4B4BDAB101221A60FEF709
:101AFC00DDFD0446736A9B070DD54FF4FA52464B35
:101B0C001B68B3FBF2F3019300BF019B5A1E0192B9
:101B1C00002BF9D150E7FEF7C9FD001B0228E9D9CB
:101B2C007DE71A60FEF7C2FD0446736A9F077FF5D6
:101B3C0043AFFEF7BBFD001B0228F6D96FE7334C11
:101B4C00E369D80024D40127E36943F08053E361AF
:101B5C00E36903F080530093009B304E3368D90542
:101B6C0018D5EB68012B26D1236A43F001032362BD
:101B7C00FEF79CFD41F288380646236A9B073FD549
:101B8C00002F3FF41DAFE36923F08053E36117E7A7
:101B9C000027E2E7336843F480733360FEF786FD79
:101BAC0080463368DA05DCD4FEF780FDA0EB080034
:101BBC006428F6D933E7ABB9236A41F2883823F0AD
:101BCC0001032362236A23F004032362FEF76EFDF4
:101BDC000646236A9807D3D5FEF768FD801B40455F
:101BEC00F7D91CE7052B236A03D143F004032362C6
:101BFC00BAE723F001032362236A23F00403B6E758
:101C0C00FEF754FD801B4045B7D908E70010024091
:101C1C00000042428004424200000020007000405C
:101C2C002A4B5A681C4602F00C02082A3DD00023AD
:101C3C00274E022833602BD1FEF738FD0746236868
:101C4C0099011FD42B6AB3F5803F05D16268A9684E
:101C5C0022F400320A436260696A62680B4322F420
:101C6C0074121343636001233360FEF71FFD0546B6
:101C7C0023689A013FF5A8AEFEF718FD401B022819
:101C8C00F6D9CCE6FEF712FDC01B0228D7D9C6E662
:101C9C00FEF70CFD054623689B017FF595AEFEF71C
:101CAC0005FD401B0228F6D9B9E601283FF4B8AE71
:101CBC005B682A6A03F4803191427FF49BAE6A6AB6
:101CCC0003F4701393423FF47FAE93E6001002408E
:101CDC006000424230B5184B87B002AC03F11005DE
:101CEC00224618685968083303C2AB421446F7D130
:101CFC0040F201231149ADF804304B6803F00C029B
:101D0C00082A17D1C3F3834206A80244DB0312F856
:101D1C00102C0CD54B680A48C3F34043504306AA19
:101D2C00134413F8143CB0FBF3F007B030BD054876
:101D3C005043FAE70248F8E7503E00080010024012
:101D4C0000127A0000093D002DE9F0410D460446D1
:101D5C0010B90120BDE8F081444A136803F0070371
:101D6C008B4228D321688E0730D4CA0743D43F4A0C
:101D7C00136803F00703AB4265D822683C4D12F0A0
:101D8C00040F6CD1130706D56B68226923F46053DA
:101D9C0043EAC2036B60FFF79DFF6B68354AC3F3E0
:101DAC000313D35CD840344B1860344B1868FEF7DF
:101DBC003BFC0020CEE7136823F007030B431360B2
:101DCC00136803F007038B42C3D1CBE7284B11F008
:101DDC00040F1EBF5A6842F4E0625A60080742BF03
:101DEC005A6842F460525A605A68A06822F0F002B5
:101DFC0002435A60B9E762681D4E012A33681AD152
:101E0C0013F4003FA5D0736841F2883823F0030324
:101E1C0013437360FEF74AFC07467368626803F06D
:101E2C000C03B3EB820FA2D0FEF740FCC01B404565
:101E3C00F3D903208EE7022A02D113F0007FE1E7E9
:101E4C0013F0020FDEE7136823F007032B43136034
:101E5C00136803F00703AB427FF47BAF8DE76B682D
:101E6C00E16823F4E0630B436B608BE700200240D6
:101E7C0000100240383E0008000000201000002036
:101E8C00044B054A5B68C3F3C223D35C034A106856
:101E9C00D840704700100240483E00080000002067
:101EAC0003682DE9F341D907054620D5354CE36984
:101EBC00DA0032D40127E36943F08053E361E3692C
:101ECC0003F080530193019B2F4E3368DB0526D51D
:101EDC00236A13F4407336D1236A6A6823F440737F
:101EEC00134323621FB1E36923F08053E361286835
:101EFC00830706D52349AB684A6822F440421A434B
:101F0C004A6010F010001BD01E4AE968536800208C
:101F1C0023F480030B43536012E00027D4E73368AB
:101F2C0043F480733360FEF7C1FB80463368D805F9
:101F3C00CED4FEF7BBFBA0EB08006428F6D9032037
:101F4C0002B0BDE8F0816A6802F440729A42C3D0D4
:101F5C0001200E4A236A1060002023F440711060A7
:101F6C002162D907B8D5FEF7A1FB41F288380646A5
:101F7C00236A9A07B0D4FEF799FB801B4045F7D92A
:101F8C00DDE700BF001002400070004040044242F8
:101F9C00024670B5344B86B002AD03F110062C46E8
:101FAC0018685968083303C4B3422546F7D140F288
:101FBC000123022AADF8043049D0102A03D0012A9B
:101FCC0026D0002038E0294B5968186810F0807032
:101FDC0032D0C1F3834206A8024412F8100CCA0393
:101FEC0041BF5A6806A9C2F34042521844BF12F8C6
:101FFC00141C1F4A5B684CBFB2FBF1F21D4A5B021A
:10200C0002FB00F018D403234000B0FBF3F013E004
:10201C0040F20231154A136A1940B1F5817F1FD085
:10202C0003F44073B3F5007F08D149F64043506A7E
:10203C0010F0020018BF184606B070BDB3F5407F13
:10204C00BFD110684FF2244310F40030F2E7FFF7D1
:10205C0017FF064B5B68C3F3813301335B00D4E796
:10206C004FF40040E8E700BF503E0008001002406B
:10207C0000127A0000093D0038B50446FEF716FB45
:10208C00054623685A68920605D500205A6842F026
:10209C0010025A6038BDFEF709FB401BB0F57A7F81
:1020AC00EFD90320F6E7026838B55368044623F0ED
:1020BC0010035360FEF7FAFA054623685B689B062B
:1020CC0001D5002038BDFEF7F1FA401BB0F57A7F40
:1020DC00F3D90320F6E738B50446A8B10268536873
:1020EC0023F008035360FEF7E1FA054623685B68AA
:1020FC001B0701D5002038BDFEF7D8FA401BB0F500
:10210C007A7FF3D90320F6E70120F4E710B50446F3
:10211C0070B1437C03F0FF0213B90274FEF71EFA90
:10212C00022320466374FFF7D6FF18B104236374AF
:10213C00012036E02046FFF79FFF0028F6D12268E9
:10214C00A068536823F007035360164A18B1116B4B
:10215C0021F001011163D36A23F460730343D3624A
:10216C006068431C05D10120FFF712FF0028DDD069
:10217C0001382268936823F00F0343EA10439360FD
:10218C00D36880B21B0C1B041843D0602046FFF7A9
:10219C008AFF012310B104226274C9E76373E381DF
:1021AC00637410BD006C0040890001F1804101F5A1
:1021BC00D84192B20A607047890001F1804101F563
:1021CC00D841086880B2704784B001A880E80E003E
:1021DC0004B00020704703464FF43F420020A3F8A0
:1021EC004400A3F840207047B0F8403023F47C53EF
:1021FC005B045B0CA0F84030002070470020704757
:10220C0084B010B5044603A880E80E00002001231A
:10221C00A4F84030A4F84000A4F84400A4F85000FE
:10222C00BDE8104004B07047F0B50D78034630F8A7
:10223C002520C87822F4EC4222F070021204120C11
:10224C0003284FD8DFE800F0024B494742F40072F4
:10225C0048F28004224323F825200E789B4D33F856
:10226C00262092B22A403243224323F826200C7BAC
:10227C000A78002C40F08980CC884E786408640081
:10228C0003EB021286B3B3F85060B6B23244A2F834
:10229C0000440C7833F82420520609D533F8242056
:1022AC0092B22A4042F4004242F0C00223F82420A9
:1022BC00CA780C78012A33F82420854992B202EAB4
:1022CC00010218BF82F0200242F4004242F0800268
:1022DC0023F82420F0BD42F4C0620020B8E742F499
:1022EC008062FAE70120B3E7B3F850500E69ADB243
:1022FC002A44A2F808440A78B3F8504003EB0212BF
:10230C00A4B202F20C427EBB155B25F4F8452D04F9
:10231C002D0C1553155B6FEA45456FEA5545ADB26B
:10232C0015530C7833F8242055040DD533F824209C
:10233C0022F4E04222F070021204120C42F44042E9
:10234C0042F0800223F82420097833F8212022F46B
:10235C00804222F070021204120C82F4405242F4B9
:10236C00004242F0800271E03E2E05D87508F70756
:10237C0048BF0135AD02D2E77709564DF60608BFC6
:10238C0007F1FF3745EA8725C9E733F82240A4B2A5
:10239C002C4044F4014444F0800423F822400A7891
:1023AC000C89B3F8506003EB02126408B6B202F564
:1023BC008062640094530A784C89B3F8506003EB44
:1023CC000212640802F581626400B6B294534A7832
:1023DC000C78002A3DD133F82420520409D533F867
:1023EC00242092B22A4042F4404242F0800223F868
:1023FC0024200C7833F8242057060DD533F82420EC
:10240C0022F4E04222F070021204120C42F4004258
:10241C0042F0C00223F8242048F280040D7833F8EF
:10242C00252022F4804222F070021204120C82F455
:10243C004052224323F82520097833F8212022F436
:10244C00E04222F040021204120C224323F8212015
:10245C0040E733F82420560409D533F8242092B2EF
:10246C002A4042F4404242F0800223F824200C78A7
:10247C0033F8242052060DD533F8242022F4E04200
:10248C0022F070021204120C42F4004242F0C0021C
:10249C0023F82420CA780C78012A33F824200C4D18
:1024AC0092B202EA050218BF82F0200242F4004206
:1024BC0042F0800223F82420097833F8212022F4FA
:1024CC00804222F070021204120C48E78F8FFFFF3B
:1024DC00BF8FFFFF0080FFFF4B780A788BB130F87D
:1024EC00223023F4E04323F040031B041B0C83F045
:1024FC00100343F4004343F0800320F82230002003
:10250C00704730F8223023F4804323F070031B040F
:10251C001B0C83F48053ECE70B7B43BB4B780A78A2
:10252C003BB330F822305B060DD530F8223023F463
:10253C00E04323F070031B041B0C43F4004343F0F3
:10254C00C00320F82230CB78012B10D00A7830F859
:10255C00223023F4E04323F040031B041B0C83F0D4
:10256C00200343F4004343F0800320F82230002082
:10257C00704730F822305B040DD530F8223023F44C
:10258C00E04323F070031B041B0C43F4404343F063
:10259C00800320F822300A7830F8223023F480436C
:1025AC0023F070031B041B0C83F44053D9E711B9BF
:1025BC008023A0F84C30002070470020704700208A
:1025CC007047B0F8440080B270470020704700EBB1
:1025DC004202013302F580625B0802EB83039A42EC
:1025EC0000D1704731F8020B22F8040BF7E700001A
:1025FC00F8B50C46497805460129227B40F05582F6
:10260C00D4F810C0A6696169664528BF664602BB4E
:10261C00B6B2E2883346FFF7DAFFB5F850202178DE
:10262C0090B205F20442090102448E52227835F828
:10263C00223023F4E04323F040031B041B0C83F0F3
:10264C003003002043F4004343F0800325F822308C
:10265C00F8BDE2782778022A236A30F8272040F068
:10266C001E819C4580F0018122F4E04222F0700230
:10267C001204120C42F4014242F0800220F827208E
:10268C0022789B1B30F82200236210F0400FB3B26B
:10269C00607875D0002853D1B5F8500005F20C477E
:1026AC0080B238441201002E37D1875A27F4F847EC
:1026BC003F043F0C8752875A6FEA47476FEA5747E8
:1026CC00BFB2875228466289FFF781FF226A2369CD
:1026DC0061699A428ABF931B002332466078314469
:1026EC002362616193B2002840F05981B5F8500023
:1026FC00267880B205F20447360138445ABB325A68
:10270C0022F4F8421204120C3252325A6FEA42424C
:10271C006FEA524292B2325226E03E2E06D8770829
:10272C0016F0010F18BF0137BF02C9E74FEA561C5C
:10273C00F706A14F08BF0CF1FF3C47EA8C27BFE717
:10274C000128BFD1B5F85000120187B205F20C4038
:10275C0038448352B6E73E2A09D85708D20748BFF7
:10276C000137BF02BFB237522289284694E057097D
:10277C00D206914A08BF07F1FF3742EA8722C9E720
:10278C00002853D1B5F8500005F2044780B2384404
:10279C001201002E37D1875A27F4F8473F043F0C1B
:1027AC008752875A6FEA47476FEA5747BFB287523B
:1027BC0028462289FFF70BFF226A236961699A4236
:1027CC008ABF931B002332466078314423626161D7
:1027DC0093B2002840F05C81B5F85000267880B2A6
:1027EC0005F20C47360138445ABB325A22F4F842EF
:1027FC001204120C3252325A6FEA42426FEA5242BF
:10280C0092B2325226E03E2E06D8770816F0010F0F
:10281C0018BF0137BF02C9E74FEA561CF706664FCF
:10282C0008BF0CF1FF3C47EA8C27BFE70128BFD15A
:10283C00B5F85000120187B205F2044038448352B7
:10284C00B6E73E2A08D85708D20748BF0137BF025F
:10285C00BFB23752628988E75709D206564A08BF79
:10286C0007F1FF3742EA8722CAE722F4E24222F05C
:10287C0070021204120C42F4004242F0800220F862
:10288C002720B0F85020267897B200F204423A4440
:10289C0036019BB2B3522289FFF799FEC6E622F4A9
:1028AC00E04222F070021204120C42F4014242F097
:1028BC00800220F8272022789B1B30F8220023620C
:1028CC0010F0400FB3B2607878D0002851D1B5F831
:1028DC00500005F20C4780B238441201002E35D15D
:1028EC00875A27F4F8473F043F0C8752875A6FEA00
:1028FC0047476FEA5747BFB2875262892846FFF7AE
:10290C0066FE226A236961699A428ABF931B00237F
:10291C003246314461612362002A3FF487AE60780D
:10292C0093B200283BD1B5F850602778B0B23E2A5C
:10293C0005F204464FEA0717064425D85008D2077B
:10294C0048BF0130800280B2B8530DE73E2E06D846
:10295C00770816F0010F18BF0137BF02CBE74FEA1B
:10296C00561CF706144F08BF0CF1FF3C47EA8C27A6
:10297C00C1E70128C1D1B5F85000120187B205F2A8
:10298C000C4038448352B8E75009D2060A4A08BFB3
:10299C0000F1FF3042EA802292B2BA53E4E60128F9
:1029AC007FF4E2AEB5F85020207896B205F20442DE
:1029BC00000132448352D7E60080FFFF002851D13A
:1029CC00B5F8500005F2044780B238441201002ECD
:1029DC0035D1875A27F4F8473F043F0C8752875A62
:1029EC006FEA47476FEA5747BFB28752228928469A
:1029FC00FFF7EDFD226A236961699A428ABF931B36
:102A0C0000233246314461612362002A3FF40EAE4A
:102A1C00607893B200283BD1B5F850602778B0B2FB
:102A2C003E2A05F20C464FEA0717064425D85008F3
:102A3C00D20748BF0130800280B2B8530AE73E2E5D
:102A4C0006D8770816F0010F18BF0137BF02CBE785
:102A5C004FEA561CF706AC4F08BF0CF1FF3C47EA97
:102A6C008C27C1E70128C1D1B5F85000120187B2FB
:102A7C0005F2044038448352B8E75009D206A24A02
:102A8C0008BF00F1FF3042EA802292B2BA53E1E66D
:102A9C0001287FF4DFAEB5F85020207896B205F20D
:102AAC000C42000132448352D4E6002A3BD1A36984
:102ABC0021698B4284BF5A1A0B46B0F8501020780B
:102ACC00A2618AB205F20C41000111446BB9435A60
:102ADC0023F4F8431B041B0C4352435A6FEA434341
:102AEC006FEA53439BB2435208E03E2B12D85A086C
:102AFC00DF0748BF0132920292B24252227835F877
:102B0C00223023F4804323F070031B041B0C83F44A
:102B1C00405396E55A09DE067B4B08BF02F1FF32A3
:102B2C0043EA8223DEE7E378022B7ED1B9B9B0F811
:102B3C005020217893B200F20442206909011A4412
:102B4C00002844D18B5A23F4F8431B041B0C8B52E2
:102B5C008B5A6FEA43436FEA53439BB28B526278B2
:102B6C002378002A55D1B5F8501020698AB205F2A5
:102B7C000C4111441B0100283AD1CA5A22F4F842E4
:102B8C001204120CCA52CA5A6FEA42426FEA5242FB
:102B9C0092B2CA52E369002BB0D044F240032278BF
:102BAC0035F8221003EA01008B4301D00028A5D18F
:102BBC0035F8223023F4E04323F070031B041B0C84
:102BCC0043F4004343F0C00325F8223096E73E2837
:102BDC0005D84308C00748BF01339B02BDE746092F
:102BEC00494BC70608BF06F1FF3643EA8623B4E714
:102BFC003E2805D84208C00748BF01329202C7E7F9
:102C0C004609414AC70608BF06F1FF3642EA86224A
:102C1C00BEE7012ABED1B5F850201B0191B205F2D6
:102C2C000C420A44218AD152B4E7012B6AD1A36920
:102C3C002269934294BF0020981AA06188BF134662
:102C4C00A9B9B5F8501020788AB205F204410001F8
:102C5C00114433BB425A22F4F8421204120C425271
:102C6C00425A6FEA42426FEA524292B24252617841
:102C7C002278002939D1B5F85000120181B205F241
:102C8C000C400844F3B9835A23F4F8431B041B0C7F
:102C9C008352835A6FEA43436FEA53439BB2835286
:102CAC002CE73E2B05D85A08DE0748BF01329202AA
:102CBC00DBE75E09144ADF0608BF06F1FF3642EA7D
:102CCC008622D2E73E2B07D85908DE0748BF0131D0
:102CDC00890289B2815211E75909DB060A4B08BFF8
:102CEC0001F1FF3143EA8123D8E701297FF406AFD4
:102CFC00B5F85010120188B205F20C4101449BB298
:102D0C008B52FBE60120A3E40080FFFF00EB4202A4
:102D1C00F0B502F580625D080C4617462E4602346B
:102D2C0036B9DB0744BF32F8253001F81530F0BD59
:102D3C0037F8040B013E80B204F8020C000A04F8C8
:102D4C00010CECE71B230380004870475000002067
:102D5C0000207047002070470A230380004870470A
:102D6C006C00002037B5D0F8B842054694F81834FA
:102D7C00042B64D1D4F80014002951D123789BB9C9
:102D8C00D4F80434012B3CD100200323C4F80404F0
:102D9C00C4F8000484F8183484F81104A4F812045C
:102DAC0084F8143403B030BD212B10D1D4F8043482
:102DBC00052B26D1E378A2781B0403EB022362785F
:102DCC001344227903EB0263C4F80834DCE7412B8B
:102DDC0017D1D4F80434052B13D1E378A0781B0455
:102DEC0003EB002360780344207903EB0060D5F8F3
:102DFC00BC32C4F80804DB6898470028C4D0022011
:102E0C00D0E70023C4F80434C4F800348DF8003043
:102E1C00012369462846ADF8063000F07DFDB3E786
:102E2C000129B1D9D4F80804D5F8BC32023900EB29
:102E3C0081211B692046D4F804249847DDE7072B31
:102E4C004FF000030FD1174A84F81934127D12F099
:102E5C0004020AD0062284F8113484F81824A4F849
:102E6C00123484F8142418469CE7082384F811249F
:102E7C0084F81834A4F8122484F8143400F024FADA
:102E8C00D5F8BC329B689847BFF34F8F0649074B68
:102E9C00CA6802F4E0621343CB60BFF34F8F00BFEC
:102EAC00FDE700BF5000002000ED00E00400FA0533
:102EBC0038B5022200250446D0F8B83283F818241D
:102ECC0083F8142483F81054C3F80054C3F8045442
:102EDC00D0F8BC329B689847D4F8B80200F062FF77
:102EEC002846C4F8B85238BD10B5044640F21C4010
:102EFC0000F054FFC4F8B802A8B100230222C0F8B5
:102F0C001034A0F81824A0F814240849C0F8003490
:102F1C00C0F80434C0F80C34D4F8BC32C0F808142F
:102F2C005B68984700B1022010BD00BF005000083C
:102F3C00062908B507D8D0F8BC320449186800F047
:102F4C00F6FC024808BD0020FCE700BF1C03002073
:102F5C0000232DE9F3410D78064615F06005D0F8F5
:102F6C00B842ADF8063000F04381202D40F0568178
:102F7C0091F80180B8F1060F00F25081DFE818F0EB
:102F8C001101070037009800DE00F400F800CA8831
:102F9C0094F81834BAB1022B01D0052B0FD14B8801
:102FAC003046C4F8003403232146C4F8042484F8C2
:102FBC00183484F8143400F0EBFC002513E0304690
:102FCC0000F0AAFCF9E7052B01D0022BF7D14FF446
:102FDC0083730025A4F81834062384F81154A4F83C
:102FEC00125484F81434284602B0BDE8F081CA8823
:102FFC00002A53D094F81834022B01D0092B47D156
:10300C004F88C4F80424C4F80074B7B94FF40453BF
:10301C00032A98BF4FF0090823804123032221463D
:10302C0084F8188484F81174A4F8127484F8148445
:10303C00A370304600F097FCBFE7012F4FF000055E
:10304C0019D0092384F8115484F81834A4F81254B4
:10305C0084F81434D4F80804D6F8BC32023F214664
:10306C005B6900EB872098470146B4F8042430468E
:10307C0000F079FCB7E70F2384F8115484F8183466
:10308C00A4F8125484F81434304600F045FCAAE736
:10309C000025C4F80454C4F80054F5E7022384F85E
:1030AC00112484F81834A4F8122484F8143484E716
:1030BC0094F8183404F58265032B04D0062B26D023
:1030CC0006222946B5E7D4F80434D3B104230022F0
:1030DC0084F8183484F81124A4F8122484F81434D5
:1030EC00D0F8BC32D4F800149B69D4F8080429B980
:1030FC002278412A02D12A469847E1E72A46012143
:10310C00FAE7052284F8182484F8113409E094F8BD
:10311C001934012B0AD1072284F81134002384F8C6
:10312C001824A4F8123484F81424C9E7002BC7D14E
:10313C004C4A127D5207C3D50222E3E794F81834A7
:10314C000A2B08D10223002584F81834C4F8105433
:10315C00A4F8143447E70A230E2284F81834C4F870
:10316C001024A4F8143428E7012204F5836160E7E5
:10317C0094F81834092B3FF620AF4FF41B75DD4043
:10318C00ED4315F001057FF418AF0223C4F8105479
:10319C0084F81834A4F81434C4F80054C4F8045453
:1031AC0021E794F81824092A11D84FF41B73D34043
:1031BC00DB4313F001030AD10222C4F8103484F863
:1031CC001824A4F81424C4F80034C4F80434254B8F
:1031DC005D7D15F0100507D0304600F075F83046CF
:1031EC0000F06DF84546FEE64888FDF765FAFAE60C
:1031FC004F780B2F12D8DFE807F0061111111111BF
:10320C0016111111232B90F89C32032B06D102229C
:10321C000DF1060100F0A7FB3D46E4E6304600F058
:10322C007BFB0225DFE64B881B0A212B05D1CA88C4
:10323C000D49092A28BF092219E70022114616E771
:10324C0090F89C32032BE9D1012204F20C410EE7D9
:10325C008D78002DE2D190F89C32032BDED1C4F88E
:10326C000C54C0E650000020620000200020704783
:10327C0000207047002070470020704709B1C0F84B
:10328C00BC120020704708B580B1D0F8B43213B12D
:10329C000023C0F8B43209B1C0F8B0120123027097
:1032AC0080F89C3200F0CCFC002008BD0220FCE72A
:1032BC0019B1C0F8B412002070470220704708B54D
:1032CC0000F0E8FC002008BD10B50446D0F8B4327C
:1032DC0001795B689847204600F0EAFC002010BD9D
:1032EC0008B5D0F8B4320BB9022008BD1B6898475A
:1032FC000028FAD0F8E708B5D0F8B4325B689847E4
:10330C00002008BD38B500F52A750446284600F0A3
:10331C00EFFA012394F8A812C4F89432B4F8AE3240
:10332C00C4F8983201F01F03012B08D0022B0BD0EC
:10333C007BB92946204600F0FBF8002038BD294611
:10334C00204600F027FAF8E72946204600F046FA16
:10335C00F3E7204601F0800100F0C8FCEDE770B502
:10336C00044616460D4639BBD0F89432032B1CD1BB
:10337C00D0E9581291420BD9891A8A42C0F86011CF
:10338C008CBF8AB292B2314600F00FFB284670BD5A
:10339C00D0F8B4321B6923B190F89C22032A00D1D7
:1033AC009847204600F009FBF0E7052BEED1C4F856
:1033BC00941200F09BFCE9E7D0F8B4329B6933B16E
:1033CC0090F89C22032A02D198470025DEE70225BB
:1033DC00DCE7F8B5044617460D46002947D1D0F86E
:1033EC009432022B3CD1D0E908639E4214D9F31AD3
:1033FC00394603629AB200F0C3FA2B462A46294694
:10340C00204600F0BDFC94F8A032012B02D1002321
:10341C0084F8A0322846F8BDC269B2FBF3F603FB70
:10342C0016265EB9934209D8D0F898329A4205D242
:10343C000A4600F0A5FAC4F89852DEE7D4F8B43284
:10344C00DB682BB194F89C22032A01D120469847C3
:10345C008021204600F04AFC204600F0B9FAD2E761
:10346C0033F00403CFD1802100F040FCCBE7D0F83F
:10347C00B4325B6933B190F89C22032A02D198478D
:10348C000025C7E70225C5E7002270B504460125D3
:10349C0040261146402300F019FC334680210022BF
:1034AC002046C4F85851C4F8646100F00FFC0021A8
:1034BC00D4F8B832A561666284F89C52C4F89412B0
:1034CC006160C4F8A41223B1D4F8B43220465B680E
:1034DC009847002070BD01740020704790F89C3212
:1034EC0080F89D32042380F89C320020704790F8BD
:1034FC009C32042B04BF90F89D3280F89C32002043
:10350C00704708B590F89C22032A04D1D0F8B43245
:10351C00DB6903B19847002008BD10B50446802133
:10352C0000F0E4FB2046BDE81040002100F0DEBBBB
:10353C0037B50B78044603F06003202B0D4612D0F0
:10354C00402B10D0002B51D14B78092B4ED8DFE8F3
:10355C0013F0F70013014D000C014D009000130007
:10356C004D00DF00AC00D4F8B432294620469B68ED
:10357C009847002003B030BD00234988ADF80630D1
:10358C000B0A013B062B31D8DFE803F0041623307D
:10359C0030515B00D0F8B0321B68207C0DF1060175
:1035AC009847BDF80620002A5FD0EB88002B53D13A
:1035BC00204600F002FADCE7027CD0F8B43232B9D3
:1035CC009B6A0DF10600984702234370E9E7DB6A1A
:1035DC00F7E7C9B2052921D8DFE801F0030C101474
:1035EC00181CD0F8B0325B68002BD6D12046FFF700
:1035FC0094FFBEE7D0F8B0329B68F5E7D0F8B03254
:10360C00DB68F1E7D0F8B0321B69EDE7D0F8B032E7
:10361C005B69E9E7D0F8B0329B69E5E7D0F8B432E2
:10362C009B6B002BE2D00DF106029847B9E7037CA7
:10363C00002BDBD1D0F8B4320DF106005B6B984750
:10364C00AFE7037C002BD1D1D0F8B4320DF10600DA
:10365C001B6B98470723B8E79A4228BF1A460146C6
:10366C002046ADF8062000F07EF9EB88002B80D1C7
:10367C009EE78B88002BB9D1CB88002BB6D14D8817
:10368C007F2DB3D890F89C32032BAFD0E9B280F8E1
:10369C009E1200F059FB204600F08FF91DB1022359
:1036AC0084F89C3265E70123FAE78978384D0129C3
:1036BC0029709BD890F89C32022B08D0032B15D084
:1036CC00FFF72BFF20462978FFF715FE51E700295D
:1036DC003FF46EAF01210323416080F89C322046F9
:1036EC00FFF7FEFD02287FF463AF7FE731B90223B9
:1036FC00416080F89C32FFF7FEFD59E741680129D3
:10370C003FF456AFC9B2FFF7F6FD29786160E6E7E2
:10371C00CA88012A7FF46AAF90F89C32022B0AD82F
:10372C00002B3FF463AF0146002341F8083F2046CD
:10373C0000F019F91DE7032B7FF458AF011DF6E7D4
:10374C0090F89C32013B022B3FF650AFCB88022BFA
:10375C007FF44CAF0123C360D0F8A4320BB1032328
:10376C00C360022204F10C01E1E74B88012B7FF4CA
:10377C0000AFC4F8A4321BE790F89C32013B022B3B
:10378C003FF634AF4B88012B7FF4F3AE0023F0E708
:10379C001B04002038B50B78044603F06002402A65
:1037AC000D4601D05B0615D494F89C32013B022BDC
:1037BC0010D82B79012B0DD8D4F8B43229469B683C
:1037CC0020469847EB881BB910B9204600F0F5F855
:1037DC00002038BD2046FFF7A0FEF9E738B50A787F
:1037EC00044602F06002202A0B4627D0402A25D03E
:1037FC0092BB5A788D88012A09793DD0032A25D0AD
:10380C0052BB90F89C32022B4DD0032B24D11422A6
:10381C0001F00F0315F0800F02FB030354D09B69DA
:10382C00D3B1142301F07F0505FB0333C51811F048
:10383C007F0355D12B600222294641E0D4F8B422F3
:10384C001946204692689047002038BD90F89C227B
:10385C00022A1FD0032A03D02046FFF75EFEF3E7AF
:10386C005A882AB94A0603D0DB880BB900F03EFA15
:10387C00204600F0A2F8E7E790F89C22022A09D033
:10388C00032AE9D15B88002BDED14D06F0D000F085
:10389C003BFAEDE74B06DFD000F028FA80212046FA
:1038AC0000F024FAD0E74A06D6D12B064FF00003DD
:1038BC004FF002024CBF00F1140100F5AA710B602D
:1038CC00204600F050F8BFE7D3F85831002BC3D096
:1038DC00142301F07F0503FB050505F5AA75A6E782
:1038EC00204600F01FFA08B10123A3E72860A2E7E5
:1038FC000B7803704B784370CA788B7803EB0223F8
:10390C0043804A790B7903EB02238380CA798B7944
:10391C0003EB0223C380704710B50446802100F0EE
:10392C00E5F92046BDE81040002100F0DFB930B5C4
:10393C0088B1002501382B460135445D002CFAD1A5
:10394C00DBB201335B0013800B7003234B7002233B
:10395C0010F8015F05B930BD5A1CCD54D2B20233F8
:10396C00DBB28C54F4E71346022210B5C0E90733DE
:10397C00C0F894220A46002100F0F4F9002010BD92
:10398C0008B513460A46002100F0ECF9002008BDEA
:10399C001346032210B5C0E95733C0F894220A46E7
:1039AC00002100F0EDF9002010BD08B513460A46C1
:1039BC00002100F0E5F9002008BD08B50423C0F88B
:1039CC00943200231A46194600F0CCF9002008BDA9
:1039DC0008B50523C0F8943200231A46194600F0A6
:1039EC00CFF9002008BD000008B500220E490F4891
:1039FC00FFF749FC08B1FCF73FFC0D490B48FFF7FA
:103A0C0057FC08B1FCF738FC0A490848FFF736FCAC
:103A1C0008B1FCF731FC0548FFF751FC18B1BDE8C3
:103A2C000840FCF729BC08BD780000206008002085
:103A3C0014000020C8000020122301480B8070479E
:103A4C0094000020042301480B807047A80000203C
:103A5C00002370B51E464D1C040FB0F1204F34BF2F
:103A6C003034373401F8134005F813600133DCB2FD
:103A7C00A2424FEA0010EFD870BD00001A2310B517
:103A8C000B80094B186808331B68C0180AD0074B09
:103A9C0008221C680649FFF7DBFF04222046054973
:103AAC00FFF7D6FF044810BDE8F7FF1FECF7FF1F28
:103ABC00AE000020BE000020AC00002010B5044C6D
:103ACC000A4604482146FFF732FF204610BD00BFCE
:103ADC00240B0020613E000810B5044C0A46044833
:103AEC002146FFF724FF204610BD00BF240B002009
:103AFC00743E000810B5044C0A4604482146FFF7F2
:103B0C0016FF204610BD00BF240B0020933E00087A
:103B1C0010B5044C0A4604482146FFF708FF20461E
:103B2C0010BD00BF240B00209E3E000800207047F3
:103B3C0010B5002304460846934200D110BDE15C49
:103B4C00C1540133F8E70020322390705370D070C9
:103B5C00704708B50B4601461846FCF74BFC80F045
:103B6C000100C0B208BD4FF4806108B5FCF7F4FB4E
:103B7C0080F00100C0B208BD0020704707B50E4BA5
:103B8C0002689A4215D103F5DA33DA69142042F44B
:103B9C000002DA610022DB69114603F40003019391
:103BAC00019BFCF7ADFD142003B05DF804EBFCF7B2
:103BBC00D9BD03B05DF804FB005C004000F52C712E
:103BCC00D0F8E802FFF79EBB282303FB0103D0F8D3
:103BDC00E802D3F87C21FFF7C2BB282303FB0103C7
:103BEC00D0F8E802DA6BFFF7F4BBD0F8E802FFF785
:103BFC0088BC836810B5022B044601D0FCF73CFB53
:103C0C00D4F8E8020121FFF766FCD4F8E802BDE81D
:103C1C001040FFF739BC000010B50446D0F8E8029C
:103C2C00FFF75CFCA36923B1024A136943F0060356
:103C3C00136110BD00ED00E0D0F8E802FFF757BCAF
:103C4C00082310B5114A04461148C0E90023022389
:103C5C0083600023C0F8E842C4F8C002C0E9063310
:103C6C000362FCF7B3FF08B1FCF706FB0022182334
:103C7C001146D4F8C002FDF706FE5823002280211D
:103C8C00D4F8C002FDF7FFFD002010BD005C004021
:103C9C00240D002008B5D0F8C002FDF710F8032859
:103CAC0096BF024B0220185C08BD00BFDB3E00082B
:103CBC0008B5D0F8C002FDF71BF8032896BF024BDD
:103CCC000220185C08BD00BFDB3E000810B514468E
:103CDC00D0F8C0021A462346FDF70CFD032896BF08
:103CEC00014B0220185C10BDDB3E000808B5D0F873
:103CFC00C002FDF762FD032896BF024B0220185C40
:103D0C0008BD00BFDB3E000808B5D0F8C002FDF7C7
:103D1C0088FD032896BF024B0220185C08BD00BF2B
:103D2C00DB3E0008282311F0800FD0F8C0221BBF07
:103D3C0001F07F0101FB033103FB0121891814BF42
:103D4C00887891F86A01704708B5D0F8C002FCF782
:103D5C00E8FF032896BF024B0220185C08BD00BF89
:103D6C00DB3E000808B5D0F8C002FDF70CFD0328B7
:103D7C0096BF024B0220185C08BD00BFDB3E00085A
:103D8C0008B5D0F8C002FDF7E7FC032896BF024B3C
:103D9C000220185C08BD00BFDB3E000800487047DD
:103DAC001C0400207047704708B5FCF71DFCFCF79D
:103DBC00C7F9FCF7C6F9002008BD000070B5002655
:103DCC000C4D0D4C641BA410A64209D100F022F836
:103DDC0000260A4D0A4C641BA410A64205D170BDE6
:103DEC0055F8043B98470136EEE755F8043B9847E5
:103DFC000136F2E7E03E0008E03E0008E03E000835
:103E0C00E43E000803460244934200D1704703F895
:103E1C00011BF9E7F8B500BFF8BC08BC9E4670471B
:0C3E2C00F8B500BFF8BC08BC9E4670470B
:103E38000000000000000000010203040607080952
:103E48000000000001020304020304050607080934
:103E58000A0B0C0D0E0F10100053544D6963726F4E
:103E6800656C656374726F6E6963730053544D3388
:103E78003220446F776E4C6F6164204669726D77AB
:103E8800617265205570646174650044465520432D
:103E98006F6E6669670044465520496E74657266A0
:103EA8006163650040496E7465726E616C20466C92
:103EB8006173682020202F3078303830303030302F
:103EC800302F3036342A30314B612C36342A303199
:083ED8004B670000020102002B
:043EE00031010008A4
:043EE4000D010008C4
:103EE8000024F400000C0140001000010100000053
:103EF80010000000F52E0008BD2E00085D2F0008F8
:103F0800712D0008612D00085D2D00087D32000824
:103F1800853200088132000879320008512D0008E6
:103F2800512D0008512D0008652D00083D2F00086F
:103F380009021B00010102C0320904000000FE0151
:103F4800020609210BFF0000041A01000A060002FC
:103F58000000004001000000453A0008513A0008FE
:103F6800C93A0008E53A0008893A0008013B000808
:103F78001D3B00081201000200000040830411DF0D
:103F88000002010203010000040309041A030000EF
:103F98000000000000000000000000000000000019
:103FA8000000000000000000AC3E0008393B00089B
:103FB800853B0008733B00085F3B00083D3B000859
:043FC800533B00085F
:04000005080002F1FC
:00000001FF
