:020000040800F2
:1050000000500020B95F0008BD5E0008BF5E0008C8
:10501000C15E0008C35E0008C55E00080000000015
:10502000000000000000000000000000F174000813
:10503000C75E00080000000081750008C95E000816
:1050400001600008016000080160000801600008BC
:1050500001600008016000080160000801600008AC
:10506000016000080160000801600008016000089C
:10507000016000080160000801600008D95E0008B6
:10508000016000080160000801600008016000087C
:10509000E55E00080160000801600008016000088A
:1050A000016000080160000801600008016000085C
:1050B000016000080160000801600008016000084C
:1050C000016000080160000801600008016000083C
:1050D00001600008F15E000801600008016000083E
:1050E0000160000801600008016000080000000085
:1050F00000000000000000000000000000000000B0
:0C51000000000000000000005FF808F153
:1051100010B5054C237833B9044B13B10448AFF3F1
:1051200000800123237010BD6803002000000000F0
:10513000DCEC000808B5034B1BB103490348AFF38F
:10514000008008BD000000006C030020DCEC0008BB
:1051500010F8012B11F8013B012A28BF9A42F7D021
:10516000D01A7047034613F8012B002AFBD1181AF6
:105170000138704781F0004102E000BF83F0004336
:1051800030B54FEA41044FEA430594EA050F08BFE2
:1051900090EA020F1FBF54EA000C55EA020C7FEAA6
:1051A000645C7FEA655C00F0E2804FEA5454D4EB23
:1051B0005555B8BF6D420CDD2C4480EA020281EAED
:1051C000030382EA000083EA010180EA020281EA25
:1051D0000303362D88BF30BD11F0004F4FEA013177
:1051E0004FF4801C4CEA113102D0404261EB410186
:1051F00013F0004F4FEA03334CEA133302D052420C
:1052000063EB430394EA050F00F0A780A4F10104C7
:10521000D5F1200E0DDB02FA0EFC22FA05F2801801
:1052200041F1000103FA0EF2801843FA05F35941E7
:105230000EE0A5F120050EF1200E012A03FA0EFC66
:1052400028BF4CF0020C43FA05F3C01851EBE37190
:1052500001F0004507D54FF0000EDCF1000C7EEBAD
:1052600000006EEB0101B1F5801F1BD3B1F5001FEB
:105270000CD349085FEA30004FEA3C0C04F101040A
:105280004FEA445212F5800F80F09A80BCF1004F33
:1052900008BF5FEA500C50F1000041EB045141EAB5
:1052A000050130BD5FEA4C0C404141EB0101013C7E
:1052B00028BFB1F5801FE9D291F0000F04BF01466D
:1052C0000020B1FA81F308BF2033A3F10B03B3F13F
:1052D00020020CDA0C3208DD02F1140CC2F10C02CF
:1052E00001FA0CF021FA02F10CE002F11402D8BF2D
:1052F000C2F1200C01FA02F120FA0CFCDCBF41EAF9
:105300000C019040E41AA2BF01EB0451294330BDC7
:105310006FEA04041F3C1CDA0C340EDC04F11404A4
:10532000C4F1200220FA04F001FA02F340EA03007B
:1053300021FA04F345EA030130BDC4F10C04C4F1C1
:10534000200220FA02F001FA04F340EA03002946A1
:1053500030BD21FA04F0294630BD94F0000F83F4EB
:10536000801306BF81F480110134013D4EE77FEACE
:10537000645C18BF7FEA655C29D094EA050F08BF1A
:1053800090EA020F05D054EA000C04BF19461046FB
:1053900030BD91EA030F1EBF0021002030BD5FEA3F
:1053A000545C05D14000494128BF41F0004130BD67
:1053B00014F580043CBF01F5801130BD01F00045BB
:1053C00045F0FE4141F470014FF0000030BD7FEA2E
:1053D000645C1ABF194610467FEA655C1CBF0B4629
:1053E000024650EA013406BF52EA033591EA030F40
:1053F00041F4002130BD00BF90F0000F04BF002138
:10540000704730B54FF4806404F132044FF000056A
:105410004FF0000150E700BF90F0000F04BF0021E3
:10542000704730B54FF4806404F1320410F0004549
:1054300048BF40424FF000013EE700BF42004FEA44
:10544000E2014FEA31014FEA02701FBF12F07F43C1
:1054500093F07F4F81F06051704732F07F4208BF78
:10546000704793F07F4F04BF41F40021704730B57F
:105470004FF4607401F0004521F000411CE700BFCB
:1054800050EA010208BF704730B54FF000050AE04E
:1054900050EA010208BF704730B511F0004502D54F
:1054A000404261EB41014FF4806404F132045FEA51
:1054B000915C3FF4D8AE4FF003025FEADC0C18BFFA
:1054C00003325FEADC0C18BF033202EBDC02C2F1EC
:1054D000200300FA03FC20FA02F001FA03FE40EA7E
:1054E0000E0021FA02F11444BDE600BF70B54FF082
:1054F000FF0C4CF4E06C1CEA11541DBF1CEA135560
:1055000094EA0C0F95EA0C0F00F0DEF82C4481EAC7
:10551000030621EA4C5123EA4C5350EA013518BFE7
:1055200052EA033541F4801143F4801338D0A0FBD4
:1055300002CE4FF00005E1FB02E506F00042E0FB81
:1055400003E54FF00006E1FB03569CF0000F18BF87
:105550004EF0010EA4F1FF04B6F5007F64F540742F
:1055600004D25FEA4E0E6D4146EB060642EAC621C2
:1055700041EA55514FEAC52040EA5E504FEACE2E2F
:10558000B4F1FD0C88BFBCF5E06F1ED8BEF1004F32
:1055900008BF5FEA500E50F1000041EB045170BDAE
:1055A00006F0004646EA010140EA020081EA0301F2
:1055B000B4EB5C04C2BFD4EB0C0541EA045170BDEE
:1055C00041F480114FF0000E013C00F3AB8014F168
:1055D000360FDEBF002001F0004170BDC4F10004B1
:1055E000203C35DA0C341BDC04F11404C4F1200532
:1055F00000FA05F320FA04F001FA05F240EA02008D
:1056000001F0004221F0004110EBD37021FA04F6C2
:1056100042EB06015EEA430E08BF20EAD37070BD7C
:10562000C4F10C04C4F1200500FA04F320FA05F0DB
:1056300001FA04F240EA020001F0004110EBD370DD
:1056400041F100015EEA430E08BF20EAD37070BD4D
:10565000C4F1200500FA05F24EEA020E20FA04F326
:1056600001FA05F243EA020321FA04F001F00041D5
:1056700021FA04F220EA020000EBD3705EEA430E46
:1056800008BF20EAD37070BD94F0000F0FD101F075
:105690000046400041EB010111F4801F08BF013CAE
:1056A000F7D041EA060195F0000F18BF704703F0EC
:1056B0000046520043EB030313F4801F08BF013D73
:1056C000F7D043EA0603704794EA0C0F0CEA13552F
:1056D00018BF95EA0C0F0CD050EA410618BF52EAE9
:1056E0004306D1D181EA030101F000414FF00000EF
:1056F00070BD50EA410606BF1046194652EA4306FD
:1057000019D094EA0C0F02D150EA013613D195EA70
:105710000C0F05D152EA03361CBF104619460AD1B8
:1057200081EA030101F0004141F0FE4141F47001C2
:105730004FF0000070BD41F0FE4141F4780170BDB2
:1057400070B54FF0FF0C4CF4E06C1CEA11541DBF17
:105750001CEA135594EA0C0F95EA0C0F00F0A7F819
:10576000A4EB050481EA030E52EA03354FEA013146
:1057700000F088804FEA03334FF0805545EA131359
:1057800043EA12634FEA022245EA111545EA106521
:105790004FEA00260EF000419D4208BF964244F1B8
:1057A000FD0404F5407402D25B084FEA3202B61AD7
:1057B00065EB03055B084FEA32024FF480104FF4AB
:1057C000002CB6EB020E75EB030E22BFB61A75461F
:1057D00040EA0C005B084FEA3202B6EB020E75EBB2
:1057E000030E22BFB61A754640EA5C005B084FEA1A
:1057F0003202B6EB020E75EB030E22BFB61A7546E7
:1058000040EA9C005B084FEA3202B6EB020E75EBF1
:10581000030E22BFB61A754640EADC0055EA060EB2
:1058200018D04FEA051545EA16754FEA06164FEAF5
:10583000C30343EA52734FEAC2025FEA1C1CC0D1A1
:1058400011F4801F0BD141EA00014FF000004FF02E
:10585000004CB6E711F4801F04BF01430020B4F1EF
:10586000FD0C88BFBCF5E06F3FF6AFAEB5EB030CA7
:1058700004BFB6EB020C5FEA500C50F1000041EBA4
:10588000045170BD0EF0004E4EEA113114EB5C0471
:10589000C2BFD4EB0C0541EA045170BD41F4801144
:1058A0004FF0000E013C90E645EA060E8DE60CEA4C
:1058B000135594EA0C0F08BF95EA0C0F3FF43BAF69
:1058C00094EA0C0F0AD150EA01347FF434AF95EA20
:1058D0000C0F7FF425AF104619462CE795EA0C0F04
:1058E00006D152EA03353FF4FDAE1046194622E7D1
:1058F00050EA410618BF52EA43067FF4C5AE50EAAB
:1059000041047FF40DAF52EA43057FF4EBAE12E79A
:105910004FF0FF3C06E000BF4FF0010C02E000BF7B
:105920004FF0010C4DF804CD4FEA410C7FEA6C5C5E
:105930004FEA430C18BF7FEA6C5C1BD001B050EA01
:10594000410C0CBF52EA430C91EA030F02BF90EAEC
:10595000020F0020704710F1000F91EA030F58BFAB
:10596000994208BF90422CBFD8176FEAE37040F00D
:10597000010070474FEA410C7FEA6C5C02D150EAAB
:10598000013C07D14FEA430C7FEA6C5CD6D152EA66
:10599000033CD3D05DF8040B704700BF844610462B
:1059A00062468C461946634600E000BF01B5FFF72A
:1059B000B7FF002848BF10F1000F01BD4DF808EDFA
:1059C000FFF7F4FF0CBF012000205DF808FB00BFCB
:1059D0004DF808EDFFF7EAFF34BF012000205DF825
:1059E00008FB00BF4DF808EDFFF7E0FF94BF012072
:1059F00000205DF808FB00BF4DF808EDFFF7CEFF73
:105A000094BF012000205DF808FB00BF4DF808EDB1
:105A1000FFF7C4FF34BF012000205DF808FB00BF82
:105A20004FEA410C7FEA6C5C02D150EA013C0AD19A
:105A30004FEA430C7FEA6C5C02D152EA033C02D18C
:105A40004FF0000070474FF0010070474A0011D23C
:105A500012F5001211D20DD56FF47873B3EB6252C8
:105A60000ED44FEAC12343F0004343EA505323FAD4
:105A700002F070474FF00000704750EA013002D149
:105A80004FF0FF3070474FF0000070474FEA41027F
:105A9000B2F1E04324BFB3F5001CDCF1FE5C0DD98C
:105AA00001F0004C4FEAC0024CEA5070B2F1004FD6
:105AB00040EB830008BF20F00100704711F0804FD9
:105AC00021D113F13872BCBF01F00040704741F49E
:105AD00080114FEA5252C2F11802C2F1200C10FAA2
:105AE0000CF320FA02F018BF40F001004FEAC12386
:105AF0004FEAD32303FA0CFC40EA0C0023FA02F32A
:105B00004FEA4303CCE77FEA625307D150EA0133FF
:105B10001EBF4FF0FE4040F44000704701F00040CF
:105B200040F0FE4040F40000704700BF4FF0FF3CE3
:105B300006E000BF4FF0010C02E000BF4FF0010C87
:105B40004DF804CD4FEA40024FEA41037FEA226C50
:105B500018BF7FEA236C11D001B052EA530C18BF72
:105B600090EA010F58BFB2EB030088BFC81738BFD7
:105B70006FEAE17018BF40F0010070477FEA226CC5
:105B800002D15FEA402C05D17FEA236CE4D15FEAC1
:105B9000412CE1D05DF8040B704700BF84460846F5
:105BA0006146FFE70FB5FFF7C9FF002848BF10F1B6
:105BB000000F0FBD4DF808EDFFF7F4FF0CBF0120FB
:105BC00000205DF808FB00BF4DF808EDFFF7EAFF85
:105BD00034BF012000205DF808FB00BF4DF808ED40
:105BE000FFF7E0FF94BF012000205DF808FB00BF35
:105BF0004DF808EDFFF7D2FF94BF012000205DF8BB
:105C000008FB00BF4DF808EDFFF7C8FF34BF0120C7
:105C100000205DF808FB00BF4FEA40024FEA410355
:105C20007FEA226C02D15FEA402C08D17FEA236C24
:105C300002D15FEA412C02D14FF0000070474FF0D3
:105C40000100704738B50C4605462146284600221B
:105C50000023FFF7BDFE28B928462146BDE838409D
:105C600000F00AB8284604F1004100F005F840426F
:105C700061EB410138BD00BFD0B500220B4B064699
:105C80000F46FFF733FCFFF7E1FE0446FFF7B4FBD6
:105C90000022074BFFF72AFC02460B4630463946E6
:105CA000FFF76CFAFFF7D2FE2146D0BD0000F03DB1
:105CB0000000F04108B5002000F01CFE4FF4FA701F
:105CC00000F035F8F7E7000030B54FF4E13187B068
:105CD000002000F0AFFE0F4D4FF4E131012000F045
:105CE000A9FE01AC4FF4E131002000F061FA0FCDC4
:105CF0000FC42B68002101A8236001F00FF820B128
:105D0000054805F0ADFE07B030BD044805F0A8FE1B
:105D1000FEE700BFF8EC00082AED00083CED0008A3
:105D200008B500F05DFB012000F001F8F9E710B5BF
:105D3000044601F085FB0128204603D0BDE8104051
:105D400001F004B8BDE8104001F0F2BD01F0EABD79
:105D500007B50122019001A9104600F0EFFE0120D5
:105D600003B05DF804FB10B51422002494B0214662
:105D70000DEB0200CDE90F4405F0FCFD2146102299
:105D800001A805F0F7FD4FF4803305210C9402249F
:105D90000122CDE90A13CDE911434FF4E0130AA81B
:105DA000CDE90D22139302F0C5FF08B172B6FEE7EC
:105DB0000F23CDE905344FF480630790CDE9083017
:105DC000214605A803F08CF908B172B6FEE711224E
:105DD0004FF48073049001A8CDE9012303F03CFA4D
:105DE00008B172B6FEE714B010BD000070B588B0FF
:105DF00001F07AFDFFF7B7FF1C4B4FF480559A690D
:105E0000002642F020029A619A69194C02F02002A1
:105E10000092009A9A69204642F010029A619A69AB
:105E200004A902F010020192019A9A6942F0040258
:105E30009A619A6902F004020292029A9A6942F007
:105E400008029A619B6903F008030393039B1123E3
:105E5000CDE904530223CDE9066301F07FFF32460A
:105E60002946204602F0C4F808B070BD0010024078
:105E70000008014072B6FEE70E4B82B09A6942F00C
:105E800001029A619A6902F001020092009ADA69AD
:105E900042F08052DA61DB69074A03F080530193D4
:105EA000019B536823F0E06343F00073536002B03A
:105EB000704700BF0010024000000140FEE7FEE70F
:105EC000FEE7FEE7FEE7704708B501F01FFDBDE8FD
:105ED000084000F043BF0000014801F0ADBE00BF24
:105EE000E4250020014802F037B900BF3437002014
:105EF000014803F0DBBC00BF2826002001207047CA
:105F000008B505F0FFFC162303604FF0FF3008BD15
:105F100008B505F0F7FC16230360FEE770B50E46E2
:105F200014460025A54201DB204670BDAFF300807A
:105F300070550135F6E770B50E4614460025A542AA
:105F400001DB204670BD705DFFF702FF0135F6E70B
:105F50004FF0FF3070474FF4005300204B60704704
:105F600001207047002070470B4B0246196810B59E
:105F700009B90A491960186809490A4C0244091B01
:105F80008A4206D905F0BEFC0C2303604FF0FF30B7
:105F900010BD1A60FCE700BF84030020303A0020E7
:105FA0000050002000040000014B024A9A60704734
:105FB00000ED00E0005000080C480D490D4A002398
:105FC00002E0D458C4500433C4188C42F9D30A4AAE
:105FD0000A4C002301E013600432A242FBD3FFF716
:105FE000E3FF05F095FC05F069FC70470000002018
:105FF0006803002084F3000868030020303A002082
:10600000FEE70023C0E90221C0E900330120704708
:1060100070B50024A24201D1012070BDC36813B144
:1060200045685B5D0B55D0E90053AB4208D08668EC
:106030000133B3FBF6F506FB153301344360E9E7A2
:106040000020EAE7D0E900329B1A8268B3FBF2F045
:1060500002FB1030704710B5421E00F10F0112F81C
:10606000013F53B1A3F16104192C9CBF203BDBB26B
:106070008A421370F3D10023C37310BD054BB3F8EC
:106080008C23824286BFD3F8903353F8200000203F
:10609000704700BF4022002008B50346084A084662
:1060A000B2F88C13994209D9D2F8902352F82310F0
:1060B000FFF74EF8B0FA80F0400908BD0020FCE779
:1060C00040220020064BB3F88C23824206D9D3F835
:1060D0009033002153F8200006F0EABA0020704700
:1060E00040220020074BB3F88C23824207D90022BC
:1060F000D3F89033114653F8200006F0D3BB0020AC
:10610000704700BF4022002070B5254C054694F82A
:106110009731002B3ED094F845221AB121492078BE
:1061200000F026FD94F846221AB11F49207800F0AD
:106130001FFD012D94F897112DD194F894311BB1C6
:1061400094F8963184F8953194F995210A44013AEE
:1061500092FBF1F301FB1323232284F89531DBB288
:1061600002FB0343114D03F5CC7203F5DC732E469D
:1061700010685168083203C69A423546F7D19378C1
:106180001188B370318094F8463284F84532002388
:1061900084F8943170BD94F995315A1CD8E700BF4A
:1061A0004022002068ED00086EED00086424002005
:1061B00010B5034C2070616000F03CFC207210BDF3
:1061C00040220020F8B5234B04465B7A002B3FD0D9
:1061D00090F845222049807A00F0CAFC94F84622C3
:1061E0001E49A07A00F0C4FC94F844221C49A07A0D
:1061F00000F0BEFC1B4904F50972A07A00F0B8FC5F
:1062000094F995211849A07A00F0B2FC94F89621EF
:106210001649A07A00F0ACFC94F897211449A07AB2
:1062200000F0A6FC0025134F04F5CC7694F89731C6
:10623000A07A9D4204DBBDE8F8400F4900F098BC0D
:1062400033462A46394600F093FC01352336EDE704
:10625000F8BD00BF4022002074ED000882ED000868
:1062600090ED00089EED0008ACED0008BAED0008C6
:10627000C8ED0008D6ED000803EE00080FB413B512
:106280000A4C04AB53F8042B4FF480712046019361
:1062900006F03EFB2146024614F8110C00F04EFCBD
:1062A00002B0BDE8104004B0704700BF512200208A
:1062B000F8B50F48FFF7E2FF0E48FFF7DFFF0E4883
:1062C000002405460A4FB5F8483200F11406A342EF
:1062D00004DCBDE8F8400948FFF7D0BF00F51370B3
:1062E000FFF7CCFF3846FFF7C9FF01343046EAE735
:1062F00002EE0008E5ED00084022002005EE00084F
:106300002DE9F04F038885B02BB92D4805B0BDE8C5
:10631000F04FFFF7B3BF012B446815D90022606826
:10632000114606F0BFFA064600222068114606F024
:10633000B9FA04462348FFF7A1FF27460025B542D6
:1063400004DB05B0BDE8F08F1026EDE715F003087B
:1063500003D139461C48FFF791FF39681B48FFF706
:106360008DFFB8F1030F24D11948FFF787FFDFF83D
:1063700068A004F11003DFF864B001934FF0000946
:1063800023680DF10C08039318F8011BA1F12002FA
:106390005E2A11D85846FFF771FF09F10109B9F1DA
:1063A000040FF1D1019B04349C42E7D10948FFF767
:1063B00065FF04370135C2E75046FFF75FFFECE7A2
:1063C00025EE000855EE000839EE000843EE0008FF
:1063D0004BEE000854EE000852EE00084FEE0008A5
:1063E0002DE9F043AA4C85B0267A002E00F04981B1
:1063F000207800F075FB002800F04381207800F041
:1064000085FB217C8DF80700002940F0ED801B28DA
:1064100000F0328153D8082800F000810D286AD09E
:1064200094F8463294F84422591C914280F2268115
:1064300094F845229A4219D101220DF107012078E2
:1064400000F07CFB94F845229DF80710A318013258
:1064500084F84522002283F8241294F8463201334E
:10646000DBB284F84632234483F8242294F84512A0
:1064700094F84632994280F0B7800025581A03F507
:106480000972C0B2224412F8017C0135854202F83B
:106490000179F8DB6018013184F8451200210133DD
:1064A0009DF80720DBB284F84632234480F824228A
:1064B00083F824122078774900F05AFB94E07F2873
:1064C000AED194F8452294F846329A4280F0D680B4
:1064D0000120991A02F50972C9B222448842C0F219
:1064E00098800022013BDBB284F8463223446A499B
:1064F00083F8242275E094F84632002B65D02323DC
:1065000094F8962104F5097503FB024304F5117C08
:1065100003F5CC732F4603CF6745186059603D469D
:1065200003F10803F6D13888B9781880997094F887
:1065300097310027032B9CBF013384F89731012347
:1065400084F89521013202F0030284F89621534920
:10655000534802AA84F89431A4F81271C4F8147153
:1065600006F020F93B460546DFF84C81DFF82C9118
:106570009AB25F1C002D3FD1A4F812212AB34948DA
:10658000FFF77CFED4F81401FFF765FD404FB4F827
:106590004882D4F81491454517DA07F51371484637
:1065A000FEF7D6FD1437002831D1B4F812313E4839
:1065B000013BA4F88C33142303FB0545C4F8900376
:1065C000D5F85C3200F51D709847002337492078D4
:1065D00084F8463284F8453284F8243200F0C8FA50
:1065E0003349207800F0C4FA237C013B032B45D8C3
:1065F000DFE803F0424B64DB9BB248F82350494686
:10660000002002AA06F0CEF83B460546B0E7013569
:10661000C1E75578013002F8015B5FE794F8462244
:1066200094F845322AB94BB3013B224984F84532EC
:10663000D7E71BB39A4206D15A1ED2B284F846223B
:10664000224482F8241294F846229A42ECD900257A
:10665000D01A03F22321C0B221444F78013585427C
:1066600001F8017BF9DB0021013AD2B284F846221D
:10667000224482F82412D7E7022323740448FFF748
:10668000A1FD304605B0BDE8F0830323F5E700BF68
:106690004022002072EE00086DEE00085AEE00085D
:1066A0006424002002EE00085823002061EE000858
:1066B00064EE00086AEE00085423002000239DF8D1
:1066C00007202374442A10D194F845328BB3013B40
:1066D00084F8453245F61B338DF80A2020780322D2
:1066E00002A9ADF8083000F029FA9DF80730432BD5
:1066F00014D194F8453294F8442220789A4284BF09
:10670000013384F8453245F61B33ADF80830432396
:10671000032202A98DF80A3000F010FA9DF8073024
:10672000412B06D10120FFF7EFFC2149207800F032
:106730001FFA9DF80730422B06D10020FFF7E4FC3A
:106740001B49207800F014FA9DF80730312B0AD14C
:1067500094F845221749207800F00AFA002384F8BB
:106760004532042323749DF80730342B86D194F8E6
:10677000453294F84622934205D2D21A0E49207827
:1067800092B200F0F5F994F8452294F846329A4214
:1067900005D9D21A0749207892B200F0E9F994F8A5
:1067A000463284F84532042367E7002365E700BFDB
:1067B0006424002068ED00087DEE000808B5044B55
:1067C000187800F08DF9B0FA80F0400908BD00BFDC
:1067D0004022002070B50E4D0E46B5F848320F2B02
:1067E00014D814245C4304F513732B4401462C4441
:1067F000184605F03DF9C4F85C62FFF72CFC012057
:10680000B5F848320133A5F8483270BD0020FCE7E6
:106810004022002008B51149114B0022C3F89413FF
:1068200010491A81C3F898130F49C3F89421C3F88B
:106830009C130E490E48C3F8A0131F21A3F844125D
:106840000C491A7483F8462283F82422FFF7C2FF0A
:1068500009490A48FFF7BEFF012008BDE5600008AE
:1068600040220020C56000087D6000089960000893
:1068700083EE0008B16200080163000888EE00089A
:106880004FF000634FF48060054A0649136003F53A
:1068900080638B42908002F10802F7D1012070479B
:1068A0008803002000000108024BDA7999881868F3
:1068B00001F09EBB040000201FB501240023CDE998
:1068C000014302230393084B69469A881868009293
:1068D00001F044FAFFF7E8FF04490548FFF77AFFA3
:1068E000204604B010BD00BF040000200969000864
:1068F0008BEE000820B9034B9988186801F07DBB26
:10690000704700BF04000020038870B5032B0546C4
:1069100022D14369134900209847E8B1AB680120B0
:106920009847AB68C4B20220984706460CB1013CB8
:10693000E4B2FFF70BFA0546FFF740FF00B970BD60
:10694000FFF704FA401B8642F6D8FFF7FFF9054629
:106950002046FFF7CFFFEFE70121BDE87040024876
:10696000FFF78CBC8FEE000896EE000808B50D4BC3
:106970005B6A5B010FD5012000F02EF8411C01205D
:1069800000F030F84FF47A70FFF7D1F9012000F0F1
:1069900023F8054B18600021012000F023F80120A6
:1069A00008BD00BF001002408805002008B54FF068
:1069B000FF330748074AC0E900234FF48073836020
:1069C00002F080FD08B1FFF755FA012008BD00BFB5
:1069D0008C050020002800400146014802F0C8BD97
:1069E0008C0500200A460146014802F0B9BD00BFEF
:1069F0008C05002007B50B4B02689A420ED102F0BD
:106A000093F9094BDA6942F00062DA610122DB692D
:106A100003F000630193019B044B1A6003B05DF81F
:106A200004FB00BF00280040001002403C0442422A
:106A30000120704773B5002840D0012840D1224D75
:106A4000224B0024C5E900310C23214E2846C5E91C
:106A50000534C5E902442C61EC6102F037FE4FF4C5
:106A600080721C4906F11000FFF7CBFA1A4B214641
:106A70005A690F2042F001025A615B69224603F015
:106A800001030193019B00F077FF0F2000F0A6FFA8
:106A9000284602F0EDFDA8B94FF4807228460D4952
:106AA00003F072F8B0FA80F00C4B40091B685A688A
:106AB000B3699B1AC6E9043302B070BD0120FBE73D
:106AC0000020F9E72046F7E728260020003801409B
:106AD000A0050020C005002000100240E425002091
:106AE00018B1012803D00020704704F083BC054B87
:106AF00005481B685A6883699B1A40F8103FFFF7E6
:106B0000A1BA00BFE4250020A005002007B5024679
:106B100030B1012809D09DF8070003B05DF804FBEF
:106B200004F07AFC8DF80700F5E70DF10701024843
:106B3000FFF76EFAEFE700BFB0050020034610B57F
:106B40000846144623B1012B07D00024204610BD6F
:106B50001146BDE8104004F0EBBC6423034892B238
:106B600002F0CDFD002818BF0024EFE72826002002
:106B70000EB410B5C3B045AB53F8042B04464FF424
:106B8000807102A8019305F0C3FE02A902462046C7
:106B9000FFF7D4FF43B0BDE8104003B07047704723
:106BA0007047000070B5064686B01022002102A88A
:106BB00004F0E0FE3268254B9A4244D103F5584375
:106BC0009A69234842F480429A619A6902A902F4C0
:106BD00080420092009A9A69002542F004029A616C
:106BE0009B694FF4007203F004030193019B02239D
:106BF000CDE902230323059301F0B0F84FF480633D
:106C0000134802A9134CCDE90235049501F0A6F80A
:106C1000114B2046C4E900358023C4E90335202305
:106C2000A560C4E90635656100F010FF08B1FFF703
:106C300021F9002225201146B463666200F09CFE13
:106C4000252000F0CBFE06B070BD00BF003801402B
:106C500000080140E42500205800024002680C4B67
:106C600010B59A42044611D10A4A4FF4C0619369A3
:106C7000094823F48043936101F04CF9A06B00F0C4
:106C800013FFBDE81040252000F0B6BE10BD00BFC8
:106C90000038014000100240000801407FB54FF469
:106CA000805611230025CDE9006302230E4C69466E
:106CB0002046CDE9025301F051F82A4631462046DC
:106CC00001F096F9C820FFF732F80122314620463C
:106CD00001F08EF920466946019501F03FF804F075
:106CE0001BFB012004B070BD0008014008B5FFF790
:106CF0007DF8FFF78FFDFFF759FEFFF737FEFFF72F
:106D0000DBFDFFF7CBFFFFF793FEBDE80840FFF781
:106D1000B7BD08B500F0EAF9002008BD30B504465B
:106D2000228AB4F9084085B0842C0CBF00240334B7
:106D300003AD0B46D0E90010CDE9004500F0E8F8BE
:106D4000012814BF0020039805B030BD08B5012804
:106D500038BF012000F016FB002008BD08B500F088
:106D60006FFB012803D0BDE8084000F02BBC08BD34
:106D70004FF0FF3200F10803C0E9022343600361D2
:106D800000230360704700230361704743689A68DB
:106D90004B608A609A6851609960036808610133AA
:106DA0000360704730B50C68631C0AD103695A68E8
:106DB0004A6091608B605960036808610133036029
:106DC00030BD00F10802134652681568A542FAD991
:106DD000EDE70369D0E901128A6051605968814288
:106DE00008BF5A60002202611A68013A1A601868E6
:106DF00070470000064A13681968064B19B94FF02E
:106E0000FF321A6070471268D268D2685268F8E799
:106E1000C40600209C070020F8B51B4B1B4F1C68C4
:106E2000054638680E460430FFF7D3FF3B4640B9AD
:106E300039681748CF6A01210268B94022EA010285
:106E400002606A1C07D136B1196812480431BDE8E6
:106E5000F840FFF79BBF1A686419546007D30E4AC5
:106E600010681968BDE8F8400431FFF79BBF0B4A72
:106E7000106819680431FFF795FF094B1A68A242A0
:106E800088BF1C60F8BD00BFE4070020C0060020DA
:106E90006C070020BC070020C8060020C4060020A4
:106EA0009C07002080B5DFF86480144F144C154E09
:106EB000236863B9144B1B68012BF8D94FF080533A
:106EC000C8F80030BFF34F8FBFF36F8FEEE700F0CD
:106ED00021FBFB68DD68281DFFF77BFF3368013B62
:106EE00033602368013B236000F036FB286B00F021
:106EF0009FFC284600F09CFCDAE700BFD00700208A
:106F00005C07002058070020CC06002004ED00E0BC
:106F10002DE9F84F9500074628460E46984600F0A2
:106F2000FDFB8146002800F0AB805C2000F0F6FB02
:106F30000446002800F0A1802A46C0F83090A52120
:106F4000484604F017FDD4F830B0731E04F1340243
:106F50000F3613F8011F02F8011B197809B1B3426B
:106F6000F7D10A9E4FF0000A062E28BF062604F12C
:106F700004094846C4E9136AE66284F843A0043D64
:106F8000FFF701FFC6F1070604F118005D44FFF7A3
:106F9000FAFEC4F854A0424639462461A6616462F0
:106FA00084F858A025F0070000F08AFA0B9B2060B7
:106FB00003B11C6000F0AEFA384B394E1A68394FF5
:106FC00001321A603268002A5DD134601B68012BDF
:106FD0002BD13548FFF7CCFE3448FFF7C9FE3448C3
:106FE000FFF7C6FE3348FFF7C3FE3348FFF7C0FE86
:106FF000DFF8F4803148FFF7BBFE314D3148FFF731
:10700000B7FE4046FFF7B4FE2846FFF7B1FE2E4814
:10701000FFF7AEFE2D48FFF7ABFE2D48FFF7A8FEA9
:107020002C4BC3F800802C4B1D6001252B4A2C49AA
:107030001368086801331360E26A636405FA02F3B7
:10704000034314200B60184B494600FB0230FFF746
:107050009DFE00F081FA3B6863B13368DA6AE36A47
:107060009A4207D24FF080521E4B1A60BFF34F8FE7
:10707000BFF36F8F2846BDE8F88F484600F0D8FB75
:107080004FF0FF35F6E73B68002BCED13368E26A5C
:10709000DB6A9A4228BF3460C7E700BF5807002068
:1070A000C0060020B8070020CC060020E006002023
:1070B000F4060020080700201C07002030070020ED
:1070C0008407002044070020A4070020D0070020E8
:1070D000BC070020C4060020C80600206807002066
:1070E0006C07002004ED00E07007002013B50024B9
:1070F000164B802201931649234616480094FFF749
:1071000007FF012814D14FF0500383F31188BFF318
:107110006F8FBFF34F8F4FF0FF320F4B1A600F4B43
:1071200018600F4B1C6002B0BDE8104000F07ABA46
:10713000013008D14FF0500383F31188BFF36F8FF4
:10714000BFF34F8FFEE702B010BD00BF98070020CD
:10715000B4EE0008A56E00089C070020B8070020C8
:10716000E4070020024A136801331360704700BF30
:10717000640700202DE9F84F3C4B1B68002B6ED1B3
:107180003B4B1D6801351D60BDB93A4B1A6812684A
:1071900042B14FF0500383F31188BFF36F8FBFF3F9
:1071A0004F8FFEE7344A1968106818601160334A3F
:1071B000136801331360FFF71DFE314E002433685E
:1071C000304FAB4210D9304B1B68DA6A142353435B
:1071D000FB58022B28BF01242C4B1B68002B0CBF33
:1071E00020460120BDE8F88FDFF888A0DFF8A490E2
:1071F000DAF800301B681BB94FF0FF333360E2E769
:10720000DAF80030DB68D3F80CB0DBF804209542E4
:1072100001D23260D7E70BF104084046FFF7D9FDF1
:10722000DBF828201AB10BF11800FFF7D2FD01227C
:10723000DBF82C00D9F8003082401A43C9F800204E
:107240001422414602FB0070FFF7A0FD0E4BDBF855
:107250002C201968CB6A9A4228BF0124C8E70C4A3F
:107260000024136801331360B6E700BF64070020F1
:10727000E4070020C4060020C8060020A007002064
:107280009C070020CC060020C0060020E807002054
:10729000600700206C0700202DE9F843304C23687C
:1072A00043B94FF0500383F31188BFF36F8FBFF3DF
:1072B0004F8FFEE700F02EF92368013B236024681E
:1072C0002CB1002400F048F92046BDE8F883254B96
:1072D0001B68002BF5D0244D244EDFF8A4801FE05E
:1072E000EB680127DC6804F1040904F11800FFF7DA
:1072F00070FD4846FFF76DFD1420E26A316807FA19
:1073000002F30B4300FB028049463360FFF73EFD6A
:10731000174BE26A1B68DB6A9A4201D3154B1F6068
:107320002B68002BDCD10CB1FFF764FD124D2C68EB
:1073300044B101270F4EFFF71DFF00B13760013C3C
:10734000F9D12C600B4B1B68002BBAD04FF0805248
:107350000A4B1A60BFF34F8FBFF36F8F0124B1E761
:107360006407002058070020A40700206C070020B5
:10737000C0060020E80700206007002004ED00E0C0
:10738000CC06002008B540B94FF080520D4B1A6072
:10739000BFF34F8FBFF36F8F08BD0B4B196841B11F
:1073A0004FF0500383F31188BFF36F8FBFF34F8FFC
:1073B000FEE7FFF7D7FEFFF72FFDFFF76DFF002871
:1073C000E2D0E9E704ED00E064070020174B10B5B8
:1073D0001A68174B12B101221A6010BD1A60154BC2
:1073E0001B68B3FA83F31422DBB2C3F11F035A43C1
:1073F00011498C58881844B94FF0500383F3118811
:10740000BFF36F8FBFF34F8FFEE7446808326468A5
:107410000A44944208BF6268446008BF4260142274
:1074200002FB03135B68DA68044BD5E764070020AE
:10743000E80700206C070020CC060020C0060020D2
:10744000054B1B6833B1054B1B68002B0CBF02209A
:107450000020704701207047B80700206407002013
:1074600006480068006880F3088862B661B6BFF31A
:107470004F8FBFF36F8F00DF00BF000008ED00E00B
:10748000002382B001930D4B1B68013308D04FF0ED
:10749000500383F31188BFF36F8FBFF34F8FFEE765
:1074A0004FF0500383F31188BFF36F8FBFF34F8FFB
:1074B000019B002BFCD002B0704700BF0C000020E5
:1074C0004FF0807340F8043C054B21F0010140F877
:1074D000081C40F80C3C40F8202C4038704700BF96
:1074E000817400080000000000000000000000009F
:1074F000074B19680868B0E8F00F80F30988BFF3FC
:107500006F8F4FF0000080F311884EF00D0E704722
:10751000C00600204FF0500383F31188BFF36F8F34
:10752000BFF34F8F0A4A13680133012B13600DD14B
:10753000084B1B6813F0FF0F08D04FF0500383F384
:107540001188BFF36F8FBFF34F8FFEE7704700BF07
:107550000C00002004ED00E0084A136843B94FF026
:10756000500383F31188BFF36F8FBFF34F8FFEE794
:10757000013B13600BB983F3118870470C000020A6
:10758000EFF30980BFF36F8F0D4B1A6820E9F00FFE
:1075900010602DE908404FF0500080F31188FFF78C
:1075A00015FF4FF0000080F31188BDE8084019680E
:1075B0000868B0E8F00F80F30988BFF36F8F704759
:1075C000C006002008B54FF0500383F31188BFF3C5
:1075D0006F8FBFF34F8FFFF7CDFD18B14FF0805283
:1075E000024B1A60002383F3118808BD04ED00E00C
:1075F0000023084A084913600B604FF47A71074B67
:107600001B68B3FBF1F30649013B0B6007231360D2
:10761000704700BF10E000E018E000E0000000202C
:1076200014E000E013B5264B00211A78D2B2019283
:10763000FF221A701B78234ADBB28DF803309DF8C5
:10764000033003F05003137007231F4A13609DF8A3
:1076500003005C1E00060CD411B1032B136011D083
:107660004FF0500383F31188BFF36F8FBFF34F8F39
:10767000FEE79DF8033001215B00DBB28DF803309B
:107680002346E4E74FF4407300241360019B0C4A47
:10769000DBB213700D4B1A6842F470021A601A685C
:1076A00042F070421A60FFF7A3FF094B1C60FFF71E
:1076B000D7FEFFF78BFEFFF7E3FE204602B010BDBA
:1076C00000E400E0EC070020F007002020ED00E0DF
:1076D0000C00002010B50F4B1A461B688342FBD3E9
:1076E00054681119884201BF416810460919516058
:1076F000446801198B4207D1074909688B421FBFB3
:1077000059681B68091941609042036018BF1060F6
:1077100010BD00BF04200020F40700202DE9F04137
:107720000446FFF71FFD3B4B3B481A689C46D2B905
:1077300000213A4A3A4B55071CBF073222F0070294
:107740001A605960374B23F00703C3E90011991AF7
:10775000C2E90031CCF80030334B1960334B19606B
:107760004FF000430360076827424ED1002C3FD002
:1077700004F1080361071CBF23F007030833002B43
:1077800043D02A4A166890469E423ED3244A156842
:107790006968994201D22868A8B9DCF80000A842BB
:1077A00033D02868C91A10291468106012D9E81853
:1077B00042070BD04FF0500383F31188BFF36F8F54
:1077C000BFF34F8FFEE72A460546E1E741606B6055
:1077D000FFF780FF6B681449F61A1F4300230868FF
:1077E000C8F80060864238BF0E6008346F602B60B6
:1077F000FFF752FD63070AD04FF0500383F311885F
:10780000BFF36F8FBFF34F8FFEE70024F0E72046F2
:10781000BDE8F081F4070020F81F0020F8070020E1
:1078200004200020F01F002000200020FC1F00206A
:1078300010B5044670B3184A50F8043C126813425D
:1078400008D14FF0500383F31188BFF36F8FBFF35C
:107850004F8FFEE750F8081C41B14FF0500383F3FF
:107860001188BFF36F8FBFF34F8FFEE723EA020348
:1078700040F8043CFFF776FC084A54F8043C1168D1
:10788000A4F108000B441360FFF724FFBDE810408B
:10789000FFF702BD10BD00BFF81F0020FC1F002035
:1078A00038B50E4B054618784FF47A73B3FBF0F3F6
:1078B0000B4A1068B0FBF3F000F0B2F8044658B978
:1078C0000F2D09D8024629464FF0FF3000F054F83A
:1078D0002046044B1D6038BD0120FCE7100000204D
:1078E0000000002014000020074A08B51368032098
:1078F00043F01003136000F02DF80020FFF7D0FFD5
:10790000FEF7BAFA002008BD00200240034A044BEB
:1079100011681B780B441360704700BF6C26002071
:1079200010000020014B1868704700BF6C26002033
:1079300038B50446FFF7F6FF0546631C1EBF044B2F
:107940001B78E418FFF7EEFF431BA342FAD338BDC0
:107950001000002007490302CA6803F4E06322F420
:10796000E0621204120C134343F0BF6343F400338C
:10797000CB60704700ED00E0164B30B5DC68C4F317
:107980000224C4F10703251D042B28BF0423062D60
:107990004FF0FF3598BF002405FA03F388BF033C7E
:1079A00021EA0303A34005FA04F422EA04020028B2
:1079B00043EA0203ACBF00F16040074A4FEA0313F9
:1079C000DBB2ABBF00F5614000F00F0080F8003380
:1079D000135430BD00ED00E014ED00E0002808DB9A
:1079E0000123420900F01F0003FA00F0014B43F8A5
:1079F0002200704700E100E000280DDB012243096E
:107A000000F01F0002FA00F0044A203342F823007D
:107A1000BFF34F8FBFF36F8F704700BF00E100E0EF
:107A20000138B0F1807F0AD2F021064B064A586037
:107A300082F823100020072298601A607047012006
:107A4000704700BF10E000E000ED00E010B520B38B
:107A500014220168124B0B44B3FBF2F39B00036446
:107A6000104B0A68C363D0E901342343C46822F48D
:107A70007F522343046922F03002234344692343A5
:107A800084692343C469234313430B604FF480721A
:107A9000002302848363184610BD0120FCE700BF69
:107AA000F8FFFDBF00000240034610B5E8B10168D1
:107AB00000200A680E4C22F001020A600D4A08609C
:107AC0000A4448608860C8601421B2FBF1F20121C9
:107AD00092001A6401FA02F2DC636260C3E90A00F0
:107AE000C3E90C009863188410BD0120FCE700BFB7
:107AF00000000240F8FFFDBFF0B590F82040012CD7
:107B000034D0012490F8215080F82040A5424FF055
:107B100000064FF0020427D180F8214004688663F4
:107B2000266826F001062660D0E90F67BD40756023
:107B300063604368102BC36A0BBFA260A160E16061
:107B4000E2604BB1236843F00E03002023602368FA
:107B500043F001032360F0BD236823F00403236096
:107B6000236843F00A03F0E780F820600220F2E780
:107B700090F82130022B06D004238363002380F881
:107B800020300120704703681A6822F00E021A6044
:107B90001A6822F001021A600123D0E90F218B40FC
:107BA00053604FF4807303840020704708B590F849
:107BB0002130022B03D004238363012008BD036816
:107BC0001A6822F00E021A601A6822F001021A6086
:107BD000174A93421CD0143293421BD01432934262
:107BE0001AD0143293421AD0143293421AD014325B
:107BF00093420CBF4FF480134FF080730D4A5360D3
:107C00004FF480730384436B7BB198470020D5E722
:107C10000123F3E71023F1E74FF48073EEE74FF40D
:107C20008053EBE74FF48033E8E71846C6E700BF20
:107C3000080002400000024070B40425C66B026CCC
:107C40003468036895402542196832D04D0730D515
:107C50001A6896065EBF1A6822F004021A603D4A4E
:107C6000934219D01432934218D01432934217D051
:107C70001432934217D01432934217D014329342E5
:107C80000CBF4FF480034FF08063334A5360C36AE4
:107C9000002B5CD070BC18470423F6E74023F4E7C0
:107CA0004FF48063F1E74FF48043EEE74FF4802315
:107CB000EBE702259540254235D08D0733D51A686C
:107CC000940606D41A6822F00A021A60012280F88B
:107CD0002120204A934219D01432934218D01432F2
:107CE000934217D01432934217D01432934217D0D4
:107CF000143293420CBF4FF400134FF00073164A36
:107D00005360002380F82030836AC1E70223F6E73E
:107D10002023F4E74FF40073F1E74FF40053EEE74C
:107D20004FF40033EBE70825954025420FD00907B3
:107D30000DD5196821F00E011960012303FA02F232
:107D4000726083634FF480730384036BA0E770BC9D
:107D5000704700BF08000240000002402DE9F74FC5
:107D600000221646644BDFF8A0C1DFF8A0E10D68E1
:107D700035FA06F402D103B0BDE8F08F4FF00108E8
:107D800008FA06F805EA080438EA05057CD14D68CA
:107D9000032D07D8013D022D00F28880DFE805F0B1
:107DA000969BA100122D00F099806FD8112D00F044
:107DB0008F80FF2C98BF82464FF00F0988BF00F1DB
:107DC000040A4FEA8605DAF8008088BF203D09FAE8
:107DD00005FB28EA0B0802FA05F548EA0505CAF88A
:107DE0000050D1F804A01AF0805F4DD0434F26F028
:107DF0000308BD6908F1804845F00105BD61BD6912
:107E000008F5803805F00105019506F0030B019D8A
:107E10004FEA8B0BD8F8085009FA0BF925EA090943
:107E2000374DA84261D005F58065A8425FD005F5C1
:107E30008065A8425DD005F58065A8420CBF03258A
:107E4000042505FA0BF545EA0905C8F808501D6830
:107E50001AF4803F14BF2543A5431D605D681AF4E2
:107E6000003F14BF2543A5435D609D681AF4801F41
:107E700014BF2543A5439D60DD681AF4001F14BF9D
:107E80002C4325EA0404DC60013670E71D4FBD4237
:107E90000CD017D8DFF878904D4507D009F5702938
:107EA0004D4503D0A9F580194D4582D18A68D2B1DC
:107EB000012A08BFC0F810804FF0080218BFC0F8B0
:107EC000148076E76545F1D07545EEE7CA6870E73E
:107ED000CA6804326DE7CA6808326AE7CA680C32B9
:107EE00067E7002265E7042263E70025A9E701258B
:107EF000A7E70225A5E700BF0004014000100240EB
:107F00000008014000002210000031100000321073
:107F1000000012102DE9F74F4FF0040B00224FF034
:107F2000010A4FF00F0800EB0B0301932E4B31FABF
:107F300002F402D103B0BDE8F08F0AFA02F70F4055
:107F400049D022F0030404F18044284D04F5803424
:107F500002F0030CA6684FEA8C0C08FA0CF9A84250
:107F600009EA060E39D005F58065A84237D005F537
:107F70008065A84235D005F58065A8420CBF032571
:107F8000042505FA0CF575456FEA07060FD1A568BB
:107F900025EA0905A5601C6834401C605C68344013
:107FA0005C609C6834409C60DC683440DC60FF2F7F
:107FB00094BF0746019F4FEA82043D6888BF203C7A
:107FC00008FA04FC25EA0C050BFA04F425433D608D
:107FD000C4682640C6600132A9E70025D1E7012523
:107FE000CFE70225CDE700BF0004014000080140B3
:107FF0000AB1016170470904FBE7C36801EA0302A3
:1080000021EA030141EA024101617047F0B50446EB
:1080100087B010B390F8A93203F0FF021BB980F8C3
:10802000A82203F017FB032325466E4684F8A932E5
:1080300055F8100B01F0D0FD0FCD0FC62B68271D92
:108040003360264697E80E0056F8100B01F0B4FD99
:10805000054620B1022384F8A93201254CE00146EF
:10806000206801F0C3FD29464FF0010E282508467F
:10807000D4F804C0CAB2944501F101011BD8002311
:1080800028251946D8B2844503F1010320D8EC46CF
:1080900035460FCDACE80F002B68CCF8003097E8E0
:1080A0000E00206801F0A4FD01230546E8B102227C
:1080B00084F8A922D1E705FB0243C3E90E0083F847
:1080C00029E083F82820DA8683F82B001864D1E7AA
:1080D00005FB0042C2E95E1182F8691182F868016D
:1080E00082F86B11C2F88011CCE784F82400206874
:1080F00084F8A93202F03AF8284607B0F0BD38B546
:1081000090F8A8320446012B10D0012580F8A8521F
:10811000006801F058FD2946204603F0CCFB20689A
:1081200002F022F8002084F8A80238BD0220FCE703
:1081300010B590F8A8220446012A0BD0012280F83D
:10814000241080F8A822006802F008F8002084F8C3
:10815000A80210BD0220FCE72DE9F04F044685B0CF
:10816000006802F005F8000409D5DFF88C99DFF803
:108170008C892068B0F844301D0400F1C18020686B
:1081800001F0F6FF41050FD522682046B2F84430D1
:1081900023F480631B041B0CA2F8443003F095FA0F
:1081A00000212046FFF7C4FF206801F0E1FF4104F1
:1081B00008D52268B2F8443023F480431B041B0C1A
:1081C000A2F84430206801F0D3FF820408D5226869
:1081D000B2F8443023F400531B041B0CA2F84430C3
:1081E000206801F0C5FFC3041CD522682046B2F800
:1081F000403023F004031B041B0CA2F84030B2F8FB
:10820000403023F008031B041B0CA2F8403003F09D
:108210007FFA2268B2F8443023F480531B041B0C0D
:10822000A2F84430206801F0A3FF070546D5684650
:108230002368064619461A4603F1200532F8047BE6
:10824000954226F8027BF9D1B3F8402092B242F071
:108250000102A3F84020B3F8402022F001021204EA
:10826000120CA3F84020B3F844205605FBD5B3F810
:10827000442022F480621204120CA3F8442030F847
:10828000022B21F8042B8D42F9D1B3F8402020466F
:1082900092B242F00802A3F84020B3F8442022F43E
:1082A00000621204120CA3F84420B3F8402092B2EA
:1082B00042F00402A3F8402003F01AFA206801F00B
:1082C00057FF82050BD522682046B2F8443023F4CC
:1082D00000731B041B0CA2F8443003F0F2F9206871
:1082E00001F046FFC30508D52268B2F8443023F4F4
:1082F00080731B041B0CA2F8443005B0BDE8F08F5E
:10830000B0F84460B1B216F00F0640F0BD8011F035
:1083100010012DD103889BB203EA090343F4004303
:108320000380B0F8503094F828209BB203EBC203CE
:1083300000EB4300B0F80434E26BC3F30903636459
:108340001344E363204603F0B4F994F82430002B7F
:108350003FF40FAF226C002A7FF40BAF94F8243067
:10836000216843F08003A1F84C3084F8242000E712
:108370000588ABB215F4006521D0B0F8503094F800
:1083800068219BB203EBC20300EB4303B3F80C3448
:10839000B4F86E21C3F30903C4F8843104F52C71D9
:1083A00002F08AFA22682046138823F070031B0526
:1083B0001B0D43F08003138003F06CF9D9E61A0417
:1083C0007FF5D7AE038823F070031B051B0D43F028
:1083D00080030380B0F8503094F868219BB203EB1F
:1083E000C20300EB4303B3F80C34C3F30903C4F82E
:1083F00084318BB1D4F87C1171B1B4F86E2102F0E4
:108400005BFAD4F87C31D4F8842129461344204601
:10841000C4F87C3103F044F921680B881B053FF553
:10842000A8AEB1F85030D4F878519BB201F20C40AC
:10843000CDB9C25A22F4F8421204120CC252C25AE6
:1084400092B242F40042C2520B8823F4804323F0DC
:1084500070031B041B0C83F4405343F4004343F0AC
:1084600080030B8085E63E2D06D86A08EF0748BFDB
:108470000132920292B2E6E76A09EE0608BF02F103
:10848000FF3248EA8222F5E730F826301D049FB219
:1084900040F1F880282130F8263001FB064123F016
:1084A00070031B051B0D43F0800320F8263091F864
:1084B000743100F58065B3B9B0F8503091F8682197
:1084C0009BB2063303EBC20335F81350C5F309051D
:1084D000002D00F0BB802B46B1F86E21D1F87C1145
:1084E00002F0EAF9B2E091F86B3191F868C1022B21
:1084F00040F08B80B0F8503017F4804AD1F88021DA
:108500004FEACC0B9BB207F0400E40D09B440BF1DE
:10851000020B35F81B50C5F30905954213D900230A
:10852000C1F8803130F82C3023F4804323F07003FD
:108530001B041B0C83F4005343F4004343F08003FB
:1085400020F82C3004E0521BC1F88021002AE9D029
:10855000BEF1000F12D0282303FB064393F86821D5
:1085600030F8223023F4E04323F070031B041B0C8B
:1085700043F4004343F0C00320F82230002D65D0BF
:10858000282101FB06412B46B1F87021A6E75B4488
:10859000063335F81350C5F30905954212D9C1F8D1
:1085A00080A130F82C3023F4804323F070031B04A7
:1085B0001B0C83F4005343F4004343F0800320F882
:1085C0002C3004E0521BC1F88021002AE9D0BEF112
:1085D000000F12D1282303FB064393F8682130F8DB
:1085E000223023F4E04323F070031B041B0C43F4FC
:1085F000004343F0C00320F822303DB3282101FBA3
:1086000006412B46B1F8722168E730F82C3023F48C
:10861000E04323F070031B041B0C43F4004343F0BE
:10862000C00320F82C3091F8683130F82320DB00AB
:1086300012F4804FB0F8502092B259D00232134455
:1086400035F81350C5F30905002D9CD1282171433D
:108650006318D3F884212A44C3F88421D3F87C21F9
:108660002A44C3F87C21D3F880211AB1D3F8783199
:108670009D4246D2282303FB0643204693F8681107
:1086800003F00EF838067FF574AD2825206805FB49
:10869000064530F826309BB203EA090343F4004351
:1086A00020F8263095F82B2095F82830032A04D09E
:1086B0001AB1022A3DD1F9053BD42821B0F8502047
:1086C00001FB064792B2023202EBC30300EB430305
:1086D000B3F800E4D7F840C0CEF3090EF44517D83C
:1086E00000233B64204695F8281002F0E2FF40E5A5
:1086F0000632134435F81350C5F30905002DA5D0F3
:108700007FE701F5B4712068214401F047FDB9E726
:10871000ACEB0E033B64002BE4D006FB0111FA6BBB
:108720007B6C72447344FA637B64214401F036FD30
:108730001FE5282202FB0642B0F850104FEAC30A98
:1087400089B217F0400E126C00F5806C514407F4AA
:10875000804700F0E98002313CF811C02821CCF3B9
:10876000090C944528BF002201FB064138BFA2EB4B
:108770000C020A64BFB2002A5CD195F829100029C6
:1087800042D1B0F850101B018AB200F204411144EA
:10879000CA5A22F4F8421204120CCA52CA5A92B2AD
:1087A00042F40042CA5295F8292095F82830AABB15
:1087B000B0F8502000F20C4092B210441A01835AD3
:1087C00023F4F8431B041B0C8352835A9BB243F4DB
:1087D00000438352204695F8281002F06AFF002FCC
:1087E00000F0EA8095F82810226832F8213023F44E
:1087F000E04323F070031B041B0C43F4404343F09D
:10880000800322F82130D7E00129CCD1B0F85010F4
:108810001B018EB200F204413144C3E7012AD9D1D1
:10882000B0F8502000F20C4092B2104400221B011C
:10883000C252CFE76FB130F8232022F4E04222F099
:1088400070021204120C42F4404242F0800220F8FE
:108850002320282303FB064393F84C20012A40F0F1
:10886000AB805A6CD96B62449F6C5A649A6B6144BA
:108870009742D96327D3BF1A9F6495F8297093B2A2
:10888000002F43D1B0F8507095F828C0BFB200F265
:10889000044E4FEA0C1C774402BB3CF8072022F43C
:1088A000F8421204120C2CF807203CF8072092B270
:1088B00042F400422CF80720282202FB0646328EA2
:1088C00001F05CFC78E01FB9624683F84C70D4E795
:1088D000002283F84C209A643A46CEE73E2A0CD810
:1088E0004FEA520ED20748BF0EF1010E4FEA8E2E0C
:1088F0001FFA8EFE2CF807E0DEE74FEA521ED20682
:1089000008BF0EF1FF3E48EA8E2EF1E7012FD3D1CA
:10891000B0F8502095F828701FFA82FC00F204424B
:108920003F016244BB52C7E706313CF811C0282121
:10893000CCF3090C944588BF724601FB064198BFF1
:10894000A2EB0C020A64BFB2002A5FD195F829108D
:10895000002945D1B0F850101B018AB200F2044141
:108960001144CA5A22F4F8421204120CCA52CA5ACA
:1089700092B242F40042CA5295F8292095F8283064
:10898000002A37D1B0F8502000F20C4092B21044C7
:108990001A01835A23F4F8431B041B0C8352835A95
:1089A0009BB243F400438352204695F8281002F00E
:1089B00080FE002F3FF416AF95F82810226832F899
:1089C00021309BB223F4E04323F0400383F03003D3
:1089D00043F4004343F0800322F82130FFF7C9BB82
:1089E0000129C9D1B0F850101B018EB200F2044128
:1089F0003144C0E7012AD7D1B0F8502000F20C4032
:108A000092B2104400221B01C252CDE76FB930F878
:108A1000232022F4E04222F070021204120C42F4ED
:108A2000404242F0800220F82320282303FB064323
:108A300093F84C20012ABFD15A6CD96B62449F6CC9
:108A40005A649A6B61449742D96325D3BF1A9F64D5
:108A500095F8297093B2002F41D1B0F850C01FFA99
:108A60008CF700F20C4CBC4495F828703F01F2B929
:108A70003CF8072022F4F8421204120C2CF80720CC
:108A80003CF8072092B242F400422CF8072028223A
:108A900002FB0646728E13E71FB9624683F84C70DC
:108AA000D6E700229A6483F84C203A46D0E73E2A63
:108AB0000CD84FEA520ED20748BF0EF1010E4FEA12
:108AC0008E2E1FFA8EFE2CF807E0E0E74FEA521ECA
:108AD000D20608BF0EF1FF3E48EA8E2EF1E7012FC5
:108AE000D5D1B0F85070BAB200F20C47174495F8DF
:108AF00028201201BB52CAE70F8FFFFF0080FFFF43
:108B000011F0800F70B5054601F007004FF0280105
:108B10001CD0012400FB011129444C700A614A78E1
:108B20000870CB7002B1C881022B04BF00230B7107
:108B300095F8A832012B13D00123286885F8A832B4
:108B400001F06AF8002085F8A80270BD002601FB3C
:108B500000F404F5B4712C44294484F86961DDE71C
:108B60000220F2E711F0800F10B501F00702044671
:108B70004FF0280113D0012302FB011101444B7077
:108B80000A7094F8A832012B13D00123206884F8CE
:108B9000A83201F099F9002084F8A80210BD01FB69
:108BA00002F303F5B47101440344002083F8690122
:108BB000E6E70220F2E770B52824002601F007015D
:108BC0004C43051985F8681104F5B4710144C5E9F1
:108BD0005F23C5F8846185F86961006801F0DEFAF9
:108BE000304670BD282301F0070103FB0101D1F8D5
:108BF0008401704770B501F00705282101FB0504C9
:108C00000026C4E90F23012205FB011184F84C2042
:108C10000144A364666484F8292084F8285000681D
:108C200001F0BCFA304670BD38B5436801F0070565
:108C30009D42044628D811F0800F4FF028031AD027
:108C400005FB0333C11801234B7001230D708B709A
:108C500094F8A8229A4219D0206884F8A83201F02A
:108C600012FA25B9206804F52C7101F085FA00206C
:108C700084F8A80238BD00224B4303F5B4710344C5
:108C8000014483F86921E0E70120F3E70220F1E7DE
:108C900038B5436801F00F029A42044626D811F015
:108CA000800F01F007024FF0280115D0012302FBCD
:108CB000011101444B7000250A708D7094F8A832A0
:108CC000012B15D00123206884F8A83201F0FBF9AC
:108CD000284684F8A85238BD01FB02F303F5B471AD
:108CE00001440344002083F86901E4E70120F2E72E
:108CF0000220F0E710B5282411F0800F1BBF01F00F
:108D0000070101FB044104FB0100401808BF00F506
:108D1000B47099B21AB90273C180002010BD01224B
:108D200083600273F9E700000122014B1A6070476B
:108D300020000E422DE9F341054638B30368DB07F6
:108D400010D42B689F075ED42B68190700F195801B
:108D50002B685A0700F1BF80E869002840F02C8199
:108D6000002029E08F4C636803F00C03042B07D02C
:108D7000636803F00C03082B0AD16368DE0307D590
:108D800023689C03DDD56B68002BDAD1012013E04A
:108D90006B68B3F5803F12D1236843F480332360BE
:108DA000FEF7C0FD064623689803CAD4FEF7BAFD55
:108DB000801B6428F7D9032002B0BDE8F0819BB97D
:108DC000236823F480332360236823F48023236003
:108DD000FEF7A8FD064623689903B2D5FEF7A2FD6B
:108DE000801B6428F7D9E6E7B3F5A02F236803D1E9
:108DF00043F480232360CFE723F480332360236888
:108E000023F48023CBE7674C636813F00C0F07D083
:108E1000636803F00C03082B10D16368DA030DD4E8
:108E200023689B0702D52B69012BAFD123686A69A0
:108E300023F0F80343EAC203236085E72A695A4B0B
:108E40006AB101221A60FEF76DFD064623689F078E
:108E5000ECD4FEF767FD801B0228F7D9ABE71A6058
:108E6000FEF760FD0646236898077FF56DAFFEF7B5
:108E700059FD801B0228F6D99DE7AA69494E4B4B44
:108E8000DAB101221A60FEF74DFD0446736A9B07B2
:108E90000DD54FF4FA52464B1B68B3FBF2F3019326
:108EA00000BF019B5A1E0192002BF9D150E7FEF73B
:108EB00039FD001B0228E9D97DE71A60FEF732FD73
:108EC0000446736A9F077FF543AFFEF72BFD001B37
:108ED0000228F6D96FE7334CE369D80024D4012780
:108EE000E36943F08053E361E36903F08053009347
:108EF000009B304E3368D90518D5EB68012B26D17D
:108F0000236A43F001032362FEF70CFD41F2883827
:108F10000646236A9B073FD5002F3FF41DAFE36948
:108F200023F08053E36117E70027E2E7336843F457
:108F300080733360FEF7F6FC80463368DA05DCD4D4
:108F4000FEF7F0FCA0EB08006428F6D933E7ABB9D4
:108F5000236A41F2883823F001032362236A23F055
:108F600004032362FEF7DEFC0646236A9807D3D586
:108F7000FEF7D8FC801B4045F7D91CE7052B236A78
:108F800003D143F004032362BAE723F00103236211
:108F9000236A23F00403B6E7FEF7C4FC801B4045B8
:108FA000B7D908E700100240000042428004424264
:108FB00000000020007000402A4B5A681C4602F056
:108FC0000C02082A3DD00023274E022833602BD103
:108FD000FEF7A8FC0746236899011FD42B6AB3F556
:108FE000803F05D16268A96822F400320A436260BA
:108FF000696A62680B4322F47412134363600123AD
:109000003360FEF78FFC054623689A013FF5A8AE52
:10901000FEF788FC401B0228F6D9CCE6FEF782FC5E
:10902000C01B0228D7D9C6E6FEF77CFC054623689C
:109030009B017FF595AEFEF775FC401B0228F6D923
:10904000B9E601283FF4B8AE5B682A6A03F48031C0
:1090500091427FF49BAE6A6A03F4701393423FF42B
:109060007FAE93E6001002406000424230B5184BDC
:1090700087B002AC03F1100522461868596808331E
:1090800003C2AB421446F7D140F201231149ADF8B7
:1090900004304B6803F00C02082A17D1C3F3834253
:1090A00006A80244DB0312F8102C0CD54B680A48C2
:1090B000C3F34043504306AA134413F8143CB0FBD7
:1090C000F3F007B030BD05485043FAE70248F8E72F
:1090D000B9EE00080010024000127A0000093D00BD
:1090E0002DE9F0410D46044610B90120BDE8F0819C
:1090F000444A136803F007038B4228D321688E0784
:1091000030D4CA0743D43F4A136803F00703AB4285
:1091100065D822683C4D12F0040F6CD1130706D5B8
:109120006B68226923F4605343EAC2036B60FFF764
:109130009DFF6B68354AC3F30313D35CD840344BAF
:109140001860344B1868FEF7ABFB0020CEE71368BD
:1091500023F007030B431360136803F007038B42EC
:10916000C3D1CBE7284B11F0040F1EBF5A6842F45D
:10917000E0625A60080742BF5A6842F460525A607F
:109180005A68A06822F0F00202435A60B9E76268A8
:109190001D4E012A33681AD113F4003FA5D073681D
:1091A00041F2883823F0030313437360FEF7BAFBE0
:1091B00007467368626803F00C03B3EB820FA2D01A
:1091C000FEF7B0FBC01B4045F3D903208EE7022A0F
:1091D00002D113F0007FE1E713F0020FDEE713681E
:1091E00023F007032B431360136803F00703AB421C
:1091F0007FF47BAF8DE76B68E16823F4E0630B439A
:109200006B608BE7002002400010024050ED000828
:109210000000002014000020044B054A5B68C3F3E3
:109220000223D35C034A1068D84070470010024004
:1092300060ED000800000020044B054A5B68C3F3A2
:10924000C223D35C034A1068D84070470010024024
:1092500060ED00080000002003682DE9F341D90704
:10926000054620D5354CE369DA0032D40127E3699D
:1092700043F08053E361E36903F080530193019B62
:109280002F4E3368DB0526D5236A13F4407336D19D
:10929000236A6A6823F44073134323621FB1E369AE
:1092A00023F08053E3612868830706D52349AB6820
:1092B0004A6822F440421A434A6010F010001BD062
:1092C0001E4AE9685368002023F480030B4353606F
:1092D00012E00027D4E7336843F480733360FEF76D
:1092E00021FB80463368D805CED4FEF71BFBA0EBEC
:1092F00008006428F6D9032002B0BDE8F0816A684E
:1093000002F440729A42C3D001200E4A236A1060D0
:10931000002023F4407110602162D907B8D5FEF710
:1093200001FB41F288380646236A9A07B0D4FEF75B
:10933000F9FA801B4045F7D9DDE700BF0010024075
:109340000070004040044242024670B5344B86B083
:1093500002AD03F110062C4618685968083303C49F
:10936000B3422546F7D140F20123022AADF804307A
:1093700049D0102A03D0012A26D0002038E0294BFA
:109380005968186810F0807032D0C1F3834206A883
:10939000024412F8100CCA0341BF5A6806A9C2F36E
:1093A0004042521844BF12F8141C1F4A5B684CBF5D
:1093B000B2FBF1F21D4A5B0202FB00F018D403235A
:1093C0004000B0FBF3F013E040F20231154A136A9B
:1093D0001940B1F5817F1FD003F44073B3F5007FCE
:1093E00008D149F64043506A10F0020018BF1846F1
:1093F00006B070BDB3F5407FBFD110684FF2244373
:1094000010F40030F2E7FFF717FF064B5B68C3F379
:10941000813301335B00D4E74FF40040E8E700BF3D
:10942000B9EE00080010024000127A0000093D0069
:1094300038B50446FEF776FA054623685A68920660
:1094400005D500205A6842F010025A6038BDFEF778
:1094500069FA401BB0F57A7FEFD90320F6E702687E
:1094600038B55368044623F010035360FEF75AFAE8
:10947000054623685B689B0601D5002038BDFEF7D2
:1094800051FA401BB0F57A7FF3D90320F6E738B5DF
:109490000446A8B10268536823F008035360FEF73E
:1094A00041FA054623685B681B0701D5002038BDDB
:1094B000FEF738FA401BB0F57A7FF3D90320F6E7C0
:1094C0000120F4E710B5044670B1437C03F0FF02BD
:1094D00013B90274FDF78EFA022320466374FFF776
:1094E000D6FF18B104236374012036E02046FFF74D
:1094F0009FFF0028F6D12268A068536823F0070375
:109500005360164A18B1116B21F001011163D36A3F
:1095100023F460730343D3626068431C05D10120C8
:10952000FFF712FF0028DDD001382268936823F08E
:109530000F0343EA10439360D36880B21B0C1B04F3
:109540001843D0602046FFF78AFF012310B10422A0
:109550006274C9E76373E381637410BD006C0040FB
:10956000890001F1804101F5D84192B20A6070474B
:10957000890001F1804101F5D841086880B2704747
:109580000368DA6822F49072DA605A6922F0010204
:109590005A61026B012A02BFDA6822F01002DA6017
:1095A000202380F83E3000230363704710B5044643
:1095B0000368C1681A6922F440520A431A6182683A
:1095C0000069D9680243606921F4B05121F00C01AF
:1095D00002430A43DA605A69A16922F440720A43DD
:1095E0005A610E4A934215D1FFF726FE19234343D1
:1095F000626820689200B3FBF2F36422B3FBF2F1DD
:1096000002FB11331B013233B3FBF2F303EB011303
:10961000836010BDFFF700FEE8E700BF003801409F
:10962000F8B504460E4617461D462268136836EA0A
:10963000030301D1002014E06B1CF7D095B9236817
:109640000320DA6822F4D072DA605A6922F001024B
:109650005A61202384F83D3084F83E30002384F89A
:109660003C30F8BDFEF75EF9C01B8542DDD2E6E76F
:1096700010B5044640B390F83D3003F0FF021BB92B
:1096800080F83C20FDF78EFA2423226884F83D30D0
:10969000D368204623F40053D360FFF787FF236885
:1096A00000201A6922F490421A615A6922F02A02B3
:1096B0005A61DA6842F40052DA602023206484F8A8
:1096C0003D3084F83E3010BD0120FCE710B5044663
:1096D00098B12423026880F83D30D36823F4005306
:1096E000D360FDF7BBFA0020206484F83C0084F8C6
:1096F0003D0084F83E00206310BD0120FCE72DE909
:10970000F843994690F83D300446202B0E46174604
:1097100048D1002944D0002A42D090F83C30012B97
:1097200040D00123002580F83C302123056480F8D7
:109730003D30FEF7F7F8A3688046B3F5805FA78455
:10974000E78403D123690BB935461E46002384F80C
:109750003C30E38C9BB253B94B46424640212046F5
:10976000FFF75EFF50B9202384F83D3007E04B46F9
:10977000424680212046FFF753FF10B10320BDE889
:10978000F88322684EB935F8023BC3F308035360EF
:10979000E18C013989B2E184DBE716F8013BF6E799
:1097A0000120ECE70220EAE77047704708B5406AFD
:1097B00003685A6990F83D1021290AD1120608D58C
:1097C0000022C284DA6822F0C002DA60202280F827
:1097D0003D205B6990F83E20222A05D15B0603D527
:1097E0000023C385FFF7CCFE036C43F01003036432
:1097F000FDF7D5F908BD08B50023406AC385C384C9
:10980000FDF7CDF908BD704713B590F83E30222B17
:1098100049D18168836AB1F5805F026833D10169FB
:10982000002933D15268C2F3080223F8022BC48DF9
:109830008362013CA4B2C4851CBB0368DA6822F0D1
:109840002002DA60DA6822F48072DA605A6922F063
:1098500001025A61202280F83E20026B012A1FD1AA
:109860000463DA6822F01002DA601A68D20605D5BD
:1098700001941A6801925B680193019B818DFFF747
:10988000C2FF002010E039B9016929B95268D2B28B
:109890001A70836A0133CAE7526802F07F02F7E761
:1098A000FDF77EF9EDE7022002B010BD036837B581
:1098B0001A68044612F00F0FD9685D6908D1950641
:1098C0005FD58D065DD503B0BDE83040FFF79CBF86
:1098D00005F0010001F49075054352D0D50705D578
:1098E000CB0542BF236C43F001032364550704D525
:1098F00018B1236C43F002032364930704D518B115
:10990000236C43F004032364150707D501F02003FB
:1099100003431EBF236C43F008032364236C53B33B
:10992000920604D58B0602D52046FFF76DFF23680B
:1099300020465B69256C03F0400305F008051D43D4
:109940001BD0FFF71DFE23685A69550610D55A69CA
:10995000A06B22F040025A6150B1534B4363FEF7B3
:1099600025F940B1A06B436B03B0BDE83040184708
:109970002046FDF714F903B030BDFDF710F925645A
:10998000F9E7206B012855D1D00653D5CD0651D526
:10999000002101911A6801925A680192019A5A694C
:1099A00012F040022AD0A06B0268526892B2002ADC
:1099B000E1D0A58D9542DED9E2858269202A15D0B5
:1099C000DA6822F48072DA605A6922F001025A6180
:1099D0005A6922F040025A61202284F83E20216315
:1099E000DA6822F01002DA60FEF7C2F8E38DA18D8A
:1099F000C91A89B22046FFF706FFBCE7E18D88B29D
:109A0000E18D89B20029B6D0A18D091A89B2002949
:109A1000B1D0D86820F49070D860586920F0010067
:109A20005861202084F83E002263DA6822F0100298
:109A3000DA60DFE7100626D50D0624D594F83D2020
:109A4000212A98D1A168226AB1F5805F16D12169D7
:109A5000A1B932F8021BC1F3080159602262E28CFD
:109A6000013A92B2E284002A85D1DA6822F08002BB
:109A7000DA60DA6842F04002DA607CE7511C216269
:109A800012785A60EBE750067FF575AF4A067FF50E
:109A900072AFDA68204622F04002DA60202384F8B0
:109AA0003D30FFF781FE66E7F7970008406A08B58A
:109AB000036B012B04D1818D4908FFF7A4FE08BD7B
:109AC000FFF773FEFBE708B503461B68406A1B6897
:109AD00013F0200317D1C3850368DA6822F480727B
:109AE000DA605A6922F001025A615A6922F0400292
:109AF0005A61202280F83E20026B012A02BFDA68F8
:109B000022F01002DA60036B012B03D1818DFFF785
:109B10007AFE08BDFDF744F8FBE7000073B5134675
:109B200000258285222204468162056480F83E2059
:109B3000806B124A26688262114AC262114AC0E9E9
:109B40000C250A46311DFDF7D7FF284623680195ED
:109B50001A6801925A6884F83C500192019ADA68B6
:109B600042F48072DA605A6942F001025A615A691D
:109B700042F040025A6102B070BD00BFC79A0008AF
:109B8000AD9A0008AD97000870B490F83E60202EA2
:109B900010D161B15AB190F83C40012C0AD0012497
:109BA00080F83C400024046370BCFFF7B7BF01207D
:109BB00070BC70470220FBE784B001A880E80E006B
:109BC00004B00020704703464FF43F420020A3F842
:109BD0004400A3F840207047B0F8403023F47C5391
:109BE0005B045B0CA0F840300020704700207047F9
:109BF00084B010B5044603A880E80E0000200123BD
:109C0000A4F84030A4F84000A4F84400A4F85000A0
:109C1000BDE8104004B07047F0B50D78034630F849
:109C20002520C87822F4EC4222F070021204120CB3
:109C300003284FD8DFE800F0024B494742F4007296
:109C400048F28004224323F825200E789B4D33F8F8
:109C5000262092B22A403243224323F826200C7B4E
:109C60000A78002C40F08980CC884E786408640023
:109C700003EB021286B3B3F85060B6B23244A2F8D6
:109C800000440C7833F82420520609D533F82420F8
:109C900092B22A4042F4004242F0C00223F824204B
:109CA000CA780C78012A33F82420854992B202EA56
:109CB000010218BF82F0200242F4004242F080020A
:109CC00023F82420F0BD42F4C0620020B8E742F43B
:109CD0008062FAE70120B3E7B3F850500E69ADB2E5
:109CE0002A44A2F808440A78B3F8504003EB021261
:109CF000A4B202F20C427EBB155B25F4F8452D049C
:109D00002D0C1553155B6FEA45456FEA5545ADB20D
:109D100015530C7833F8242055040DD533F824203E
:109D200022F4E04222F070021204120C42F440428B
:109D300042F0800223F82420097833F8212022F40D
:109D4000804222F070021204120C82F4405242F45B
:109D5000004242F0800271E03E2E05D87508F707F8
:109D600048BF0135AD02D2E77709564DF60608BF68
:109D700007F1FF3745EA8725C9E733F82240A4B247
:109D80002C4044F4014444F0800423F822400A7833
:109D90000C89B3F8506003EB02126408B6B202F506
:109DA0008062640094530A784C89B3F8506003EBE6
:109DB0000212640802F581626400B6B294534A78D4
:109DC0000C78002A3DD133F82420520409D533F809
:109DD000242092B22A4042F4404242F0800223F80A
:109DE00024200C7833F8242057060DD533F824208E
:109DF00022F4E04222F070021204120C42F40042FB
:109E000042F0C00223F8242048F280040D7833F891
:109E1000252022F4804222F070021204120C82F4F7
:109E20004052224323F82520097833F8212022F4D8
:109E3000E04222F040021204120C224323F82120B7
:109E400040E733F82420560409D533F8242092B291
:109E50002A4042F4404242F0800223F824200C7849
:109E600033F8242052060DD533F8242022F4E042A2
:109E700022F070021204120C42F4004242F0C002BE
:109E800023F82420CA780C78012A33F824200C4DBA
:109E900092B202EA050218BF82F0200242F40042A8
:109EA00042F0800223F82420097833F8212022F49C
:109EB000804222F070021204120C48E78F8FFFFFDD
:109EC000BF8FFFFF0080FFFF10B50C7B4B780A7837
:109ED000002C3DD113B330F822305C060DD530F89C
:109EE000223023F4E04323F070031B041B0C43F4E3
:109EF000004343F0C00320F822300A7830F82230C3
:109F000023F4E04323F040031B041B0C43F4004301
:109F100043F0800320F82230002010BD30F82230BA
:109F20005B040DD530F8223023F4E04323F07003B6
:109F30001B041B0C43F4404343F0800320F8223001
:109F40000A7830F8223023F4804323F07003DBE7F3
:109F5000002B4ED130F822305C040DD530F8223081
:109F600023F4E04323F070031B041B0C43F4404331
:109F700043F0800320F822300A7830F822305B0664
:109F80000DD530F8223023F4E04323F070031B0496
:109F90001B0C43F4004343F0C00320F822300A783E
:109FA00030F8223023F4E04323F070031B041B0C31
:109FB00043F4004343F0C00320F8223048F280020B
:109FC0000C7830F8243023F4804323F070031B0412
:109FD0001B0C134320F82430097830F8213023F487
:109FE000E04323F040031B041B0C134320F82130F3
:109FF00092E730F822305C040DD530F8223023F49B
:10A00000E04323F070031B041B0C43F4404343F074
:10A01000800320F822300A7830F822305B060DD514
:10A0200030F8223023F4E04323F070031B041B0CB0
:10A0300043F4004343F0C00320F822300A7830F89C
:10A04000223023F4E04323F070031B041B0C43F481
:10A05000404343F0800320F8223048F280020C781D
:10A0600030F8243023F4E04323F040031B041B0C9E
:10A07000134320F82430097830F8213023F480434A
:10A0800023F07003AFE74B780A788BB130F82230B9
:10A0900023F4E04323F040031B041B0C83F0100364
:10A0A00043F4004343F0800320F82230002070473F
:10A0B00030F8223023F4804323F070031B041B0C80
:10A0C00083F48053ECE70B7B43BB4B780A783BB3BC
:10A0D00030F822305B060DD530F8223023F4E0430F
:10A0E00023F070031B041B0C43F4004343F0C00334
:10A0F00020F82230CB78012B10D00A7830F82230AB
:10A1000023F4E04323F040031B041B0C83F02003E3
:10A1100043F4004343F0800320F8223000207047CE
:10A1200030F822305B040DD530F8223023F4E043C0
:10A1300023F070031B041B0C43F4404343F08003E3
:10A1400020F822300A7830F8223023F4804323F0BC
:10A1500070031B041B0C83F44053D9E711B980230F
:10A16000A0F84C3000207047002070470020704756
:10A17000B0F8440080B270470020704700EB420204
:10A18000013302F580625B0802EB83039A4200D13F
:10A19000704731F8020B22F8040BF7E7F8B50C46CC
:10A1A000497805460129227B40F05582D4F810C039
:10A1B000A6696169664528BF664602BBB6B2E288F9
:10A1C0003346FFF7DBFFB5F85020217890B205F257
:10A1D0000442090102448E52227835F8223023F4D9
:10A1E000E04323F040031B041B0C83F030030020EA
:10A1F00043F4004343F0800325F82230F8BDE278B1
:10A200002778022A236A30F8272040F01E819C45D7
:10A2100080F0018122F4E04222F070021204120C5C
:10A2200042F4014242F0800220F8272022789B1B52
:10A2300030F82200236210F0400FB3B2607875D07E
:10A24000002853D1B5F8500005F20C4780B23844CD
:10A250001201002E37D1875A27F4F8473F043F0CEC
:10A260008752875A6FEA47476FEA5747BFB287520C
:10A2700028466289FFF782FF226A236961699A4250
:10A280008ABF931B002332466078314423626161A8
:10A2900093B2002840F05981B5F85000267880B27A
:10A2A00005F20447360138445ABB325A22F4F842C8
:10A2B0001204120C3252325A6FEA42426FEA524290
:10A2C00092B2325226E03E2E06D8770816F0010FE1
:10A2D00018BF0137BF02C9E74FEA561CF706A14F66
:10A2E00008BF0CF1FF3C47EA8C27BFE70128BFD12C
:10A2F000B5F85000120187B205F20C403844835281
:10A30000B6E73E2A09D85708D20748BF0137BF022F
:10A31000BFB237522289284694E05709D206914AA3
:10A3200008BF07F1FF3742EA8722C9E7002853D167
:10A33000B5F8500005F2044780B238441201002EEF
:10A3400037D1875A27F4F8473F043F0C8752875A82
:10A350006FEA47476FEA5747BFB2875228462289BC
:10A36000FFF70CFF226A236961699A428ABF931B37
:10A3700000233246607831442362616193B2002841
:10A3800040F05C81B5F85000267880B205F20C47A9
:10A39000360138445ABB325A22F4F8421204120CE5
:10A3A0003252325A6FEA42426FEA524292B232520B
:10A3B00026E03E2E06D8770816F0010F18BF0137A9
:10A3C000BF02C9E74FEA561CF706664F08BF0CF1FB
:10A3D000FF3C47EA8C27BFE70128BFD1B5F8500002
:10A3E000120187B205F2044038448352B6E73E2A90
:10A3F00008D85708D20748BF0137BF02BFB237524B
:10A40000628988E75709D206564A08BF07F1FF3725
:10A4100042EA8722CAE722F4E24222F070021204E2
:10A42000120C42F4004242F0800220F82720B0F8DB
:10A430005020267897B200F204423A4436019BB28B
:10A44000B3522289FFF79AFEC6E622F4E04222F0D8
:10A4500070021204120C42F4014242F0800220F811
:10A46000272022789B1B30F82200236210F0400F37
:10A47000B3B2607878D0002851D1B5F8500005F219
:10A480000C4780B238441201002E35D1875A27F488
:10A49000F8473F043F0C8752875A6FEA47476FEAF5
:10A4A0005747BFB2875262892846FFF767FE226A84
:10A4B000236961699A428ABF931B00233246314463
:10A4C00061612362002A3FF487AE607893B200286E
:10A4D0003BD1B5F850602778B0B23E2A05F2044669
:10A4E0004FEA0717064425D85008D20748BF013065
:10A4F000800280B2B8530DE73E2E06D8770816F0DA
:10A50000010F18BF0137BF02CBE74FEA561CF70611
:10A51000144F08BF0CF1FF3C47EA8C27C1E7012824
:10A52000C1D1B5F85000120187B205F20C40384491
:10A530008352B8E75009D2060A4A08BF00F1FF303B
:10A5400042EA802292B2BA53E4E601287FF4E2AEF6
:10A55000B5F85020207896B205F20442000132444A
:10A560008352D7E60080FFFF002851D1B5F8500094
:10A5700005F2044780B238441201002E35D1875AC3
:10A5800027F4F8473F043F0C8752875A6FEA474742
:10A590006FEA5747BFB2875222892846FFF7EEFD80
:10A5A000226A236961699A428ABF931B002332465B
:10A5B000314461612362002A3FF40EAE607893B2A9
:10A5C00000283BD1B5F850602778B0B23E2A05F29A
:10A5D0000C464FEA0717064425D85008D20748BF53
:10A5E0000130800280B2B8530AE73E2E06D87708C1
:10A5F00016F0010F18BF0137BF02CBE74FEA561C18
:10A60000F706AC4F08BF0CF1FF3C47EA8C27C1E7C7
:10A610000128C1D1B5F85000120187B205F20440FB
:10A6200038448352B8E75009D206A24A08BF00F165
:10A63000FF3042EA802292B2BA53E1E601287FF469
:10A64000DFAEB5F85020207896B205F20C4200013A
:10A6500032448352D4E6002A3BD1A36921698B425C
:10A6600084BF5A1A0B46B0F850102078A2618AB203
:10A6700005F20C41000111446BB9435A23F4F8432D
:10A680001B041B0C4352435A6FEA43436FEA534384
:10A690009BB2435208E03E2B12D85A08DF0748BF4E
:10A6A0000132920292B24252227835F8223023F4DB
:10A6B000804323F070031B041B0C83F4405396E586
:10A6C0005A09DE067B4B08BF02F1FF3243EA8223C0
:10A6D000DEE7E378022B7ED1B9B9B0F850202178BB
:10A6E00093B200F20442206909011A44002844D1BF
:10A6F0008B5A23F4F8431B041B0C8B528B5A6FEAC2
:10A7000043436FEA53439BB28B5262782378002A0B
:10A7100055D1B5F8501020698AB205F20C411144A8
:10A720001B0100283AD1CA5A22F4F8421204120C32
:10A73000CA52CA5A6FEA42426FEA524292B2CA52AF
:10A74000E369002BB0D044F24003227835F82210A0
:10A7500003EA01008B4301D00028A5D135F822304F
:10A7600023F4E04323F070031B041B0C43F4004369
:10A7700043F0C00325F8223096E73E2805D8430869
:10A78000C00748BF01339B02BDE74609494BC706D6
:10A7900008BF06F1FF3643EA8623B4E73E2805D812
:10A7A0004208C00748BF01329202C7E74609414A42
:10A7B000C70608BF06F1FF3642EA8622BEE7012A35
:10A7C000BED1B5F850201B0191B205F20C420A44EB
:10A7D000218AD152B4E7012B6AD1A369226993423D
:10A7E00094BF0020981AA06188BF1346A9B9B5F894
:10A7F000501020788AB205F204410001114433BBA5
:10A80000425A22F4F8421204120C4252425A6FEA9F
:10A8100042426FEA524292B2425261782278002953
:10A8200039D1B5F85000120181B205F20C4008444C
:10A83000F3B9835A23F4F8431B041B0C8352835A45
:10A840006FEA43436FEA53439BB283522CE73E2B9C
:10A8500005D85A08DE0748BF01329202DBE75E09DD
:10A86000144ADF0608BF06F1FF3642EA8622D2E725
:10A870003E2B07D85908DE0748BF0131890289B24B
:10A88000815211E75909DB060A4B08BF01F1FF317C
:10A8900043EA8123D8E701297FF406AFB5F85010C9
:10A8A000120188B205F20C4101449BB28B52FBE6C7
:10A8B0000120A3E40080FFFF00EB4202F0B502F5A7
:10A8C00080625D080C4617462E46023436B9DB0717
:10A8D00044BF32F8253001F81530F0BD37F8040BCD
:10A8E000013E80B204F8020C000A04F8010CECE707
:10A8F000D0F8BC3210B56BB1D0F8B84294F8000271
:10A90000FF2807D09B68214694F801229847FF232F
:10A9100084F80032002010BD4323038000487047B4
:10A92000500000204323038000487047940000201B
:10A930004323038000487047E40000200A2303807B
:10A9400000487047D800002038B50446D0F8B85207
:10A9500000F0A8FFD4F8B832C5F80C024BB1D4F817
:10A96000BC32D5F80402DB6805F503719847002076
:10A9700038BD0220FCE7D0F8B822F8B5D2B11427D0
:10A9800007FB0107FB698BB12826D0F8C04206FB04
:10A990000145AD6BB3FBF5F405FB143434B9234624
:10A9A0002246FC6100F062FF2046F8BD0020C2F89C
:10A9B0001402FAE70220F8E72DE9F7434FF0000808
:10A9C0000A78054612F060040E46D0F8B8728DF889
:10A9D0000580ADF8068028D0202C42D1CC884B7859
:10A9E000E4B1120611D5D0F8BC223946D2F808904D
:10A9F00018462246C84739462846F28800F04BFCE4
:10AA00004446204603B0BDE8F0832246394687F825
:10AA1000003287F8014200F053FCF1E7D0F8BC2285
:10AA2000184695682246A847EBE74B780A2B0CD0CE
:10AA30000B2B12D0ABB990F89C32032B11D1022210
:10AA40000DF1060100F027FCDBE790F89C32032BA8
:10AA500007D101220DF10501F4E790F89C32032B98
:10AA6000CFD03146284600F0EFFB0224C9E738B5C5
:10AA700004460025812100F0AFFE01212046E56259
:10AA800000F0AAFE82212046C4F86C5100F0A4FE1A
:10AA9000D4F8B83225644BB1D4F8BC325B6898471F
:10AAA000D4F8B80200F006FFC4F8B852002038BD50
:10AAB0002DE9F041037C0446BBBB4FF40073022236
:10AAC0008121012500F078FE4FF40073E562012733
:10AAD00029460222204600F06FFE0823032282212D
