:020000040800F2
:100000000050002025160008351500083B15000893
:1000100041150008471500084D15000800000000B4
:100020000000000000000000000000005315000860
:100030005F150008000000006B1500087715000828
:100040007516000875160008751600087516000864
:100050007516000875160008751600087516000854
:100060007516000875160008751600087516000844
:100070007516000875160008751600088515000825
:100080007516000875160008751600087516000824
:100090007516000875160008751600087516000814
:1000A0007516000875160008751600087516000804
:1000B00075160008751600087516000875160008F4
:1000C00075160008751600087516000875160008E4
:1000D00075160008991500087516000875160008B1
:1000E0007516000875160008000000007516000857
:1000F00075160008751600087516000875160008B4
:1001000075160008751600087516000875160008A3
:100110007516000875160008751600087516000893
:100120007516000875160008751600087516000883
:1001300010B5054C237833B9044B13B10448AFF321
:1001400000800123237010BD9C00002000000000EF
:10015000AC7F000808B5034B1BB103490348AFF35C
:10016000008008BD00000000A0000020AC7F000857
:1001700081F0004102E000BF83F0004330B54FEA58
:1001800041044FEA430594EA050F08BF90EA020FC5
:100190001FBF54EA000C55EA020C7FEA645C7FEA58
:1001A000655C00F0E2804FEA5454D4EB5555B8BF7B
:1001B0006D420CDD2C4480EA020281EA030382EAEC
:1001C000000083EA010180EA020281EA0303362D7E
:1001D00088BF30BD11F0004F4FEA01314FF4801C51
:1001E0004CEA113102D0404261EB410113F0004F63
:1001F0004FEA03334CEA133302D0524263EB43031A
:1002000094EA050F00F0A780A4F10104D5F1200EB7
:100210000DDB02FA0EFC22FA05F2801841F1000112
:1002200003FA0EF2801843FA05F359410EE0A5F1E6
:1002300020050EF1200E012A03FA0EFC28BF4CF017
:10024000020C43FA05F3C01851EBE37101F00045CD
:1002500007D54FF0000EDCF1000C7EEB00006EEBDA
:100260000101B1F5801F1BD3B1F5001F0CD3490864
:100270005FEA30004FEA3C0C04F101044FEA4452BB
:1002800012F5800F80F09A80BCF1004F08BF5FEA42
:10029000500C50F1000041EB045141EA050130BD22
:1002A0005FEA4C0C404141EB0101013C28BFB1F534
:1002B000801FE9D291F0000F04BF01460020B1FA7F
:1002C00081F308BF2033A3F10B03B3F120020CDA52
:1002D0000C3208DD02F1140CC2F10C0201FA0CF030
:1002E00021FA02F10CE002F11402D8BFC2F1200C95
:1002F00001FA02F120FA0CFCDCBF41EA0C0190404B
:10030000E41AA2BF01EB0451294330BD6FEA040493
:100310001F3C1CDA0C340EDC04F11404C4F120027E
:1003200020FA04F001FA02F340EA030021FA04F390
:1003300045EA030130BDC4F10C04C4F1200220FAE7
:1003400002F001FA04F340EA0300294630BD21FA25
:1003500004F0294630BD94F0000F83F4801306BFEB
:1003600081F480110134013D4EE77FEA645C18BFDF
:100370007FEA655C29D094EA050F08BF90EA020F76
:1003800005D054EA000C04BF1946104630BD91EA6E
:10039000030F1EBF0021002030BD5FEA545C05D171
:1003A0004000494128BF41F0004130BD14F58004B0
:1003B0003CBF01F5801130BD01F0004545F0FE4124
:1003C00041F470014FF0000030BD7FEA645C1ABF59
:1003D000194610467FEA655C1CBF0B46024650EA90
:1003E000013406BF52EA033591EA030F41F40021BC
:1003F00030BD00BF90F0000F04BF0021704730B542
:100400004FF4806404F132044FF000054FF0000116
:1004100050E700BF90F0000F04BF0021704730B5D7
:100420004FF4806404F1320410F0004548BF4042AC
:100430004FF000013EE700BF42004FEAE2014FEA01
:1004400031014FEA02701FBF12F07F4393F07F4FDC
:1004500081F06051704732F07F4208BF704793F0DF
:100460007F4F04BF41F40021704730B54FF46074F2
:1004700001F0004521F000411CE700BF50EA0102F5
:1004800008BF704730B54FF000050AE050EA01029E
:1004900008BF704730B511F0004502D5404261EB0E
:1004A00041014FF4806404F132045FEA915C3FF44F
:1004B000D8AE4FF003025FEADC0C18BF03325FEAEC
:1004C000DC0C18BF033202EBDC02C2F1200300FA9D
:1004D00003FC20FA02F001FA03FE40EA0E0021FAC2
:1004E00002F11444BDE600BF70B54FF0FF0C4CF4B0
:1004F000E06C1CEA11541DBF1CEA135594EA0C0F62
:1005000095EA0C0F00F0DEF82C4481EA030621EA9C
:100510004C5123EA4C5350EA013518BF52EA0335D7
:1005200041F4801143F4801338D0A0FB02CE4FF089
:100530000005E1FB02E506F00042E0FB03E54FF0B9
:100540000006E1FB03569CF0000F18BF4EF0010EB1
:10055000A4F1FF04B6F5007F64F5407404D25FEAAD
:100560004E0E6D4146EB060642EAC62141EA555160
:100570004FEAC52040EA5E504FEACE2EB4F1FD0CA2
:1005800088BFBCF5E06F1ED8BEF1004F08BF5FEA20
:10059000500E50F1000041EB045170BD06F00046D2
:1005A00046EA010140EA020081EA0301B4EB5C047F
:1005B000C2BFD4EB0C0541EA045170BD41F4801177
:1005C0004FF0000E013C00F3AB8014F1360FDEBF9C
:1005D000002001F0004170BDC4F10004203C35DA78
:1005E0000C341BDC04F11404C4F1200500FA05F3FB
:1005F00020FA04F001FA05F240EA020001F000429C
:1006000021F0004110EBD37021FA04F642EB060111
:100610005EEA430E08BF20EAD37070BDC4F10C043B
:10062000C4F1200500FA04F320FA05F001FA04F2FF
:1006300040EA020001F0004110EBD37041F10001EB
:100640005EEA430E08BF20EAD37070BDC4F12005F6
:1006500000FA05F24EEA020E20FA04F301FA05F25E
:1006600043EA020321FA04F001F0004121FA04F206
:1006700020EA020000EBD3705EEA430E08BF20EAD6
:10068000D37070BD94F0000F0FD101F00046400010
:1006900041EB010111F4801F08BF013CF7D041EA92
:1006A000060195F0000F18BF704703F00046520096
:1006B00043EB030313F4801F08BF013DF7D043EA67
:1006C0000603704794EA0C0F0CEA135518BF95EA1D
:1006D0000C0F0CD050EA410618BF52EA4306D1D1A4
:1006E00081EA030101F000414FF0000070BD50EAC3
:1006F000410606BF1046194652EA430619D094EA4D
:100700000C0F02D150EA013613D195EA0C0F05D136
:1007100052EA03361CBF104619460AD181EA03018A
:1007200001F0004141F0FE4141F470014FF0000042
:1007300070BD41F0FE4141F4780170BD70B54FF0DD
:10074000FF0C4CF4E06C1CEA11541DBF1CEA13555D
:1007500094EA0C0F95EA0C0F00F0A7F8A4EB05043F
:1007600081EA030E52EA03354FEA013100F0888036
:100770004FEA03334FF0805545EA131343EA1263FF
:100780004FEA022245EA111545EA10654FEA0026B4
:100790000EF000419D4208BF964244F1FD0404F56D
:1007A000407402D25B084FEA3202B61A65EB0305C9
:1007B0005B084FEA32024FF480104FF4002CB6EB86
:1007C000020E75EB030E22BFB61A754640EA0C0006
:1007D0005B084FEA3202B6EB020E75EB030E22BF46
:1007E000B61A754640EA5C005B084FEA3202B6EB87
:1007F000020E75EB030E22BFB61A754640EA9C0046
:100800005B084FEA3202B6EB020E75EB030E22BF15
:10081000B61A754640EADC0055EA060E18D04FEAD3
:10082000051545EA16754FEA06164FEAC30343EA73
:1008300052734FEAC2025FEA1C1CC0D111F4801F40
:100840000BD141EA00014FF000004FF0004CB6E739
:1008500011F4801F04BF01430020B4F1FD0C88BFD8
:10086000BCF5E06F3FF6AFAEB5EB030C04BFB6EBE3
:10087000020C5FEA500C50F1000041EB045170BDD6
:100880000EF0004E4EEA113114EB5C04C2BFD4EB03
:100890000C0541EA045170BD41F480114FF0000E87
:1008A000013C90E645EA060E8DE60CEA135594EA03
:1008B0000C0F08BF95EA0C0F3FF43BAF94EA0C0F06
:1008C0000AD150EA01347FF434AF95EA0C0F7FF47B
:1008D00025AF104619462CE795EA0C0F06D152EACF
:1008E00003353FF4FDAE1046194622E750EA4106B3
:1008F00018BF52EA43067FF4C5AE50EA41047FF4C4
:100900000DAF52EA43057FF4EBAE12E74FF0FF3C28
:1009100006E000BF4FF0010C02E000BF4FF0010CF9
:100920004DF804CD4FEA410C7FEA6C5C4FEA430C72
:1009300018BF7FEA6C5C1BD001B050EA410C0CBFC1
:1009400052EA430C91EA030F02BF90EA020F002023
:10095000704710F1000F91EA030F58BF994208BF8A
:1009600090422CBFD8176FEAE37040F00100704747
:100970004FEA410C7FEA6C5C02D150EA013C07D19E
:100980004FEA430C7FEA6C5CD6D152EA033CD3D0E9
:100990005DF8040B704700BF8446104662468C46E3
:1009A0001946634600E000BF01B5FFF7B7FF002816
:1009B00048BF10F1000F01BD4DF808EDFFF7F4FF3F
:1009C0000CBF012000205DF808FB00BF4DF808EDCA
:1009D000FFF7EAFF34BF012000205DF808FB00BFED
:1009E0004DF808EDFFF7E0FF94BF012000205DF80F
:1009F00008FB00BF4DF808EDFFF7CEFF94BF0120C4
:100A000000205DF808FB00BF4DF808EDFFF7C4FFBC
:100A100034BF012000205DF808FB00BF4FEA410C05
:100A20007FEA6C5C02D150EA013C0AD14FEA430CE8
:100A30007FEA6C5C02D152EA033C02D14FF0000025
:100A400070474FF0010070474FEA410212F5001263
:100A500015D211D56FF47873B3EB625212D94FEA05
:100A6000C12343F0004343EA505311F0004F23FAEF
:100A700002F018BF404270474FF00000704750EA44
:100A8000013005D111F0004008BF6FF00040704701
:100A90004FF00000704700BF80F0004002E000BF50
:100AA00081F0004142001FBF5FEA410392EA030F59
:100AB0007FEA226C7FEA236C6AD04FEA1262D2EBA3
:100AC0001363C1BFD218414048404140B8BF5B42A8
:100AD000192B88BF704710F0004F40F4000020F041
:100AE0007F4018BF404211F0004F41F4000121F057
:100AF0007F4118BF494292EA030F3FD0A2F10102A1
:100B000041FA03FC10EB0C00C3F1200301FA03F1DE
:100B100000F0004302D5494260EB4000B0F5000F01
:100B200013D3B0F1807F06D340084FEA310102F1C0
:100B30000102FE2A51D2B1F1004F40EBC25008BF72
:100B400020F0010040EA03007047490040EB00003C
:100B5000013A28BFB0F5000FEDD2B0FA80FCACF13D
:100B6000080CB2EB0C0200FA0CF0AABF00EBC2506A
:100B700052421843BCBFD0401843704792F0000F58
:100B800081F4000106BF80F400000132013BB5E7AB
:100B90004FEA41037FEA226C18BF7FEA236C21D021
:100BA00092EA030F04D092F0000F08BF0846704786
:100BB00090EA010F1CBF0020704712F07F4F04D154
:100BC000400028BF40F00040704712F100723CBF67
:100BD00000F50000704700F0004343F0FE4040F491
:100BE000000070477FEA226216BF08467FEA23634F
:100BF0000146420206BF5FEA412390EA010F40F43A
:100C0000800070474FF0000304E000BF10F0004385
:100C100048BF40425FEA000C08BF704743F096436C
:100C200001464FF000001CE050EA010208BF704787
:100C30004FF000030AE000BF50EA010208BF70470E
:100C400011F0004302D5404261EB41015FEA010C23
:100C500002BF84460146002043F0B64308BFA3F11B
:100C60008053A3F50003BCFA8CF2083AA3EBC253FD
:100C700010DB01FA02FC634400FA02FCC2F120021C
:100C8000BCF1004F20FA02F243EB020008BF20F053
:100C90000100704702F1200201FA02FCC2F12002B9
:100CA00050EA4C0021FA02F243EB020008BF20EAAE
:100CB000DC7070474FF0FF0C1CEAD0521EBF1CEADC
:100CC000D15392EA0C0F93EA0C0F6FD01A4480EACA
:100CD000010C400218BF5FEA41211ED04FF00063B3
:100CE00043EA501043EA5111A0FB01310CF00040DF
:100CF000B1F5000F3EBF490041EAD3715B0040EA05
:100D0000010062F17F02FD2A1DD8B3F1004F40EBD4
:100D1000C25008BF20F00100704790F0000F0CF0A7
:100D2000004C08BF49024CEA502040EA51207F3A6B
:100D3000C2BFD2F1FF0340EAC250704740F4000046
:100D40004FF00003013A5DDC12F1190FDCBF00F037
:100D500000407047C2F10002410021FA02F1C2F1E5
:100D6000200200FA02FC5FEA310040F1000053EA81
:100D70004C0308BF20EADC70704792F0000F00F0CF
:100D8000004C02BF400010F4000F013AF9D040EAD5
:100D90000C0093F0000F01F0004C02BF490011F469
:100DA000000F013BF9D041EA0C018FE70CEAD15367
:100DB00092EA0C0F18BF93EA0C0F0AD030F0004CE7
:100DC00018BF31F0004CD8D180EA010000F000409B
:100DD000704790F0000F17BF90F0004F084691F059
:100DE000000F91F0004F14D092EA0C0F01D1420293
:100DF0000FD193EA0C0F03D14B0218BF084608D15C
:100E000080EA010000F0004040F0FE4040F40000A5
:100E1000704740F0FE4040F4400070474FF0FF0C38
:100E20001CEAD0521EBF1CEAD15392EA0C0F93EA7F
:100E30000C0F69D0A2EB030280EA010C49024FEAD1
:100E4000402037D04FF0805343EA111143EA10138A
:100E50000CF000408B4238BF5B0042F17D024FF442
:100E6000000C8B4224BF5B1A40EA0C00B3EB510F1D
:100E700024BFA3EB510340EA5C00B3EB910F24BF06
:100E8000A3EB910340EA9C00B3EBD10F24BFA3EB8B
:100E9000D10340EADC001B0118BF5FEA1C1CE0D153
:100EA000FD2A3FF650AF8B4240EBC25008BF20F006
:100EB000010070470CF0004C4CEA50207F32C2BF5A
:100EC000D2F1FF0340EAC250704740F400004FF0F7
:100ED0000003013A37E792F0000F00F0004C02BF28
:100EE000400010F4000F013AF9D040EA0C0093F0F2
:100EF000000F01F0004C02BF490011F4000F013B4C
:100F0000F9D041EA0C0195E70CEAD15392EA0C0FB3
:100F100008D142027FF47DAF93EA0C0F7FF470AFEB
:100F2000084676E793EA0C0F04D14B023FF44CAF2E
:100F300008466EE730F0004C18BF31F0004CCAD1C3
:100F400030F000427FF45CAF31F000437FF43CAFFF
:100F50005FE700BF4FEA4002B2F1FE4F0FD34FF000
:100F60009E03B3EB12620DD94FEA002343F0004316
:100F700010F0004F23FA02F018BF404270474FF0C4
:100F80000000704712F1610F01D1420205D110F04B
:100F9000004008BF6FF0004070474FF000007047FE
:100FA00080B500AF4FF4E131002001F077FA00BFC7
:100FB00080BD0000000000002DE9F04F9BB006AF9F
:100FC00007F1120607F1140207F1160107F11800E4
:100FD00007F10E03019307F110030093334600F06D
:100FE0002BFF00F024FA02467B6CD31A1846FFF759
:100FF00001FA4FF00002E04BFFF7A0FB02460B4660
:1010000010461946FFF720FD03463B6400F00FFA37
:1010100003467B6407F1240607F1260207F1280145
:1010200007F12A0007F11A03049307F11C03039345
:1010300007F11E03029307F12003019307F1220336
:101040000093334600F0F2FDB7F84E30FB87B7F857
:101050004C30BB87B7F84A307B87B7F924301A4643
:10106000B7F91230D31AC54A82FB03125211DB17AB
:10107000D31A1BB2BB84B7F922301A46B7F9103025
:10108000D31ABE4A82FB03125211DB17D31A1BB2CA
:101090007B84B7F920301A46B7F90E30D31AB74A15
:1010A00082FB03125211DB17D31A1BB23B84B7F930
:1010B00028301846FFF7AEF902460B46904683F0FB
:1010C0000049B7F92A301846FFF7A4F94FF000029B
:1010D0004FF0804305F0E0FE82468B46B7F926309C
:1010E0001846FFF797F94FF000024FF0804305F0E4
:1010F000D3FE02460B4650465946FFF73FF80246DC
:101100000B461046194605F073FF02460B46404653
:101110004946FFF713FB02460B461046194605F0F9
:101120002BFD8BA3D3E90023FFF7DEF902460B4624
:1011300010461946FFF788FC03463B87B7F92A306B
:101140001846FFF767F982468B46B7F928301846EC
:10115000FFF760F94FF000024FF0804305F09CFE6E
:10116000C7E90001B7F926301846FFF753F94FF0E9
:1011700000024FF0804305F08FFE02460B46D7E990
:101180000001FEF7FBFF02460B461046194605F02C
:101190002FFF02460B4650465946FFF7CFFA02464C
:1011A0000B461046194605F0E7FC69A3D3E9002376
:1011B000FFF79AF902460B4610461946FFF744FC22
:1011C0000346FB863B6C9BB2B7F9242092B202FB2C
:1011D00003F39AB2FB8F13449BB2BB863B6C9BB26A
:1011E000B7F9222092B202FB03F39AB2BB8F1344E9
:1011F0009BB27B863B6C9BB2B7F9202092B202FB7C
:1012000003F39AB27B8F13449BB23B8600233B646B
:10121000B7F934301846FFF7FDF84FA3D3E90023A0
:10122000FFF762F902460B4692469B46B7F9383003
:101230001846FFF7EFF84AA3D3E90023FFF754F964
:1012400002460B4650465946FEF798FF02460B46AB
:1012500010461946FFF7F8FB0346A7F84E30B7F9DA
:1012600032301846FFF7D6F83BA3D3E90023FFF747
:101270003BF902460B4692469B46B7F93630184674
:10128000FFF7C8F836A3D3E90023FFF72DF902468C
:101290000B4650465946FEF771FF02460B46104674
:1012A0001946FFF7D1FB0346A7F84C303B8EFB8570
:1012B000B7F91E301846FFF7ADF882468B46B7F9EE
:1012C0001C301846FFF7A6F802460B465046594612
:1012D00005F0DFFD02460B46144683F000451CA3D3
:1012E000D3E9002320462946FFF7FEF802460B46C5
:1012F00010461946FFF7A8FB0346BB85B7F92E3009
:101300001846FFF787F818A3D3E90023FFF7ECF896
:1013100002460B4692469B46B7F92C301846FFF71B
:1013200079F813A3D3E90023FFF7DEF802460B4652
:1013300050465946FEF722FF02460B461046194614
:10134000FFF782FB0346A7F84A3019E0AFF30080AD
:10135000CB67791EDCA54C40B81E85EB51B8EE3F3B
:101360008014AE47E17AA43F713D0AD7A370ED3FE8
:101370007814AE47E17AB43F00408F403DCB883EC1
:10138000B7F94E00B7F94C60B7F94A30B7F92E20DB
:10139000B7F92C100291019200933346024604499A
:1013A000002001F029F9052000F036F819E600BF09
:1013B000C87F000880B584B000AF01F0F7F900F0F5
:1013C0003DF8144B9B69134A43F020039361114B82
:1013D0009B6903F02003FB60FB680E4B9B690D4A81
:1013E00043F0080393610B4B9B6903F00803BB6058
:1013F000BB68084B9B69074A43F004039361054BA4
:101400009B6903F004037B607B6800BF1037BD4617
:1014100080BD00BF0010024080B582B000AF786090
:10142000786801F025FA00BF0837BD4680BD80B559
:1014300000AF01F013FA0346184680BD80B590B0A6
:1014400000AF07F1180328220021184604F036FFE8
:101450003B1D00221A605A609A60DA601A6101230B
:10146000BB614FF48033FB6100233B620123BB620D
:1014700002237B634FF48033BB634FF4E013FB63C1
:1014800007F11803184603F083F80346002B01D038
:1014900000F019F80F237B600223BB600023FB6080
:1014A0004FF480633B6100237B613B1D02211846A2
:1014B00003F0EEFA0346002B01D000F004F800BF61
:1014C0004037BD4680BD80B400AF72B600BFFEE7B6
:1014D00080B485B000AF154B9B69144A43F00103FB
:1014E0009361124B9B6903F00103BB60BB680F4B18
:1014F000DB690E4A43F08053D3610C4BDB6903F088
:1015000080537B607B680A4B5B68FB60FB6823F061
:10151000E063FB60FB6843F00073FB60044AFB6818
:10152000536000BF1437BD4680BC704700100240B6
:101530000000014080B400AFFEE780B400AFFEE7DA
:1015400080B400AFFEE780B400AFFEE780B400AF28
:10155000FEE780B400AF00BFBD4680BC704780B4DA
:1015600000AF00BFBD4680BC704780B400AF00BF75
:10157000BD4680BC704780B500AF01F05DF900BF8B
:1015800080BD000080B500AF024801F0D3FB00BF72
:1015900080BD00BF7803002080B500AF024804F092
:1015A000B3FA00BF80BD00BFBC03002080B586B089
:1015B00000AF7860144A154BD31A7B617B693B619D
:1015C000134B1B68002B02D1114B124A1A60104BAF
:1015D0001A687B6813443A699A4207D204F044FEC1
:1015E00003460C221A604FF0FF3309E0084B1B68DA
:1015F000FB60074B1A687B681344054A1360FB685D
:1016000018461837BD4680BD005000200004000079
:10161000B80000201004002080B400AF00BFBD4619
:1016200080BC70470D488546FFF7F6FF0C480D4912
:101630000D4A002302E0D458C4500433C4188C422D
:10164000F9D30A4A0A4C002301E013600432A24293
:10165000FBD304F00FFE04F0FBFDFEE7005000207A
:10166000000000209C000020108100089C00002049
:1016700010040020FEE780B487B000AFF860B960C6
:101680007A600123FB75FB6800221A60FB68002268
:101690005A60FB687A689A60FB68BA68DA60FB7D1A
:1016A00018461C37BD4680BC7047000080B500AFAF
:1016B000124B134A1A60114B124A5A600F4B002208
:1016C0009A600E4B0022DA600C4B4FF480421A6194
:1016D0000A4B00225A61094B00229A61074B0022F3
:1016E000DA61064B00221A62044801F0F3FD03465A
:1016F000002B01D0FFF7E7FE00BF80BDF401002002
:1017000000580040801A060080B588B000AF7860AD
:1017100007F1100300221A605A609A60DA607B6851
:101720001B68164A934224D1154B9B69144A43F017
:1017300008039361124B9B6903F00803FB60FB688D
:101740004FF440633B6112237B610323FB6107F18C
:10175000100319460B4801F021FC094BDB69084ACC
:1017600043F48003D361064BDB6903F48003BB6061
:10177000BB6800BF2037BD4680BD00BF0058004099
:1017800000100240000C014080B586B000AF01237C
:10179000FB743B4600221A605A609A60DA600123AB
:1017A0007B600023BB600223FB6000237B6116E0AB
:1017B0000F4A7B69DB0013449B883B600C4A7B69C2
:1017C00052F833303A461146184601F0E7FB7B6980
:1017D000DBB2184600F00EF87B6901337B617B6950
:1017E000002BE5DDFB7C18461837BD4680BD00BFE9
:1017F0000400002080B582B000AF0346FB71FB7986
:10180000002B11D1FB790A4A52F83300FB79084AC0
:10181000DB0013449988FB79054ADB001344DB792C
:101820001A4601F03FFD00E000BF0837BD4680BD0D
:101830000400002080B588B000AF0346FB7101238F
:10184000FB7607F1080300221A605A609A60DA609A
:101850000123FB6000233B6102237B610023FB61CA
:1018600014E0164AFB69DB0013449B88BB60134AF3
:10187000FB6952F8333007F108021146184601F0AF
:101880008DFB00F01FF8FB690133FB61FB69032B43
:10189000E7DD08210A4803F069FB094B1B68FA7968
:1018A000DA630C21064803F061FB054B1B68FA79EB
:1018B0001A64FB7E18462037BD4680BD0C00002010
:1018C000E802002080B500AF124B1B68114A9188D6
:1018D000104AD279184601F0E5FC0E4B9B680D4A80
:1018E00091890C4AD27B184601F0DCFC094B1B693C
:1018F000084A918A074AD27D184601F0D3FC054B6D
:101900009B69044A918B034AD27F184601F0CAFCB6
:1019100000BF80BD0C00002080B586B004AF7860A9
:101920000B46FB7013463B80D021FB789AB24FF0F8
:10193000FF3302933B8801937B68009301230348A4
:1019400002F06AF900BF0837BD4680BDF4010020EF
:1019500080B586B002AF78600B46FB7013463B80C3
:101960008022FB781343DBB2FB73D02107F10F0217
:101970004FF0FF3300930123074801F0EFFDD02122
:101980003B884FF0FF3200927A68034801F0E4FE92
:1019900000BF1037BD4680BDF401002080B582B085
:1019A00000AF03460A46FB711346BB71F979BB1DB4
:1019B00001221846FFF7B0FF0A2000F059FF00BFD0
:1019C0000837BD4680BD80B582B000AF03463A609F
:1019D000FB710B46BB71BB799AB2FB79194638682B
:1019E000FFF7B6FF00BF0837BD4680BD80B582B0A7
:1019F00000AF03460A46FB711346BB7125230C2238
:101A000011461846FFF7CAFF2622FB7919461046F1
:101A1000FFF7C4FF6322BB7919461046FFF7BEFFEC
:101A20002722802343F00103DBB219461046FFF75B
:101A3000B5FF00BF0837BD4680BD80B582B000AF9E
:101A400003463A60FB710B46BB7125200C228023B4
:101A50001343DBB21946FFF7A1FF2622FB79194693
:101A60001046FFF79BFF27208022BB791343DBB290
:101A70001946FFF793FF012000F0FAFE4920BB79D9
:101A80003A681946FFF79FFF00BF0837BD4680BD83
:101A900080B500AF7523044A01211846FFF793FF74
:101AA000014B1B78184680BDBC00002080B500AFFC
:101AB0000023044A01211846FFF7BFFF014B1B78A2
:101AC000184680BDBC00002080B582B000AF6B23FB
:101AD000012211461846FFF761FF6A2320221146B2
:101AE0001846FFF75BFF24230D2211461846FFF727
:101AF00055FF0A23002211461846FFF777FF6B2394
:101B0000802211461846FFF749FF0A2000F0B0FE78
:101B10000B23012211461846FFF768FF6B230122B1
:101B200011461846FFF73AFFFFF7B2FF0346FB7175
:101B3000FB79712B04D0FB79732B01D001236CE06E
:101B40006C23002211461846FFF728FF1C23182299
:101B500011461846FFF722FF1B23002211461846A4
:101B6000FFF71CFF1D23052211461846FFF716FF3D
:101B70001A23052211461846FFF710FF19230021EA
:101B80001846FFF70BFF6A23202211461846FFF77D
:101B900005FF24230D2211461846FFF7FFFEFFF72D
:101BA00085FF0346482B01D0012336E00A2300229B
:101BB00011461846FFF71AFF642000F059FE0A2369
:101BC0000F2211461846FFF711FF642000F050FE67
:101BD0001023144A03211846FFF72FFF0A2300227F
:101BE00011461846FFF702FF642000F041FE0A2369
:101BF000162211461846FFF7F9FE642000F038FE61
:101C00006B23012211461846FFF7C8FE0323064A3C
:101C100007211846FFF711FF002318460837BD4675
:101C200080BD00BFD4000020BC00002090B58FB064
:101C300000AFF860B9607A603B6000237B6207F117
:101C4000280300221A605A609A60C3F80B2007F13B
:101C5000140300221A605A609A60DA603B2007F190
:101C600024031A461321FFF7AEFE97F824301B0217
:101C70001AB297F825301BB213431BB2BB8297F8F8
:101C800026301B021AB297F827301BB213431BB23F
:101C9000FB8297F828301B021AB297F829301BB242
:101CA00013431BB23B8397F82C301B021AB297F8F0
:101CB0002D301BB213431BB27B8397F82E301B02CF
:101CC0001AB297F82F301BB213431BB2BB8397F89D
:101CD00030301B021AB297F831301BB213431BB2DB
:101CE000FB8397F833301B021AB297F832301BB2DD
:101CF00013431BB23B8497F835301B021AB297F896
:101D000034301BB213431BB27B8497F837301B026D
:101D10001AB297F836301BB213431BB2BB84B7F923
:101D20001420FB681A80B7F91620BB681A80B7F92F
:101D300018207B681A80B7F91A203B681A80B7F917
:101D40001C20BB6C1A80B7F91E20FB6C1A80B7F9F7
:101D500020301846FEF75AFF0446364B1B78803B6E
:101D60001846FEF753FF03464FF087411846FFF72A
:101D700055F803464FF07E511846FEF793FE034692
:101D800019462046FEF796FF03461846FFF7E2F88D
:101D900003461AB23B6D1A80B7F922301846FEF797
:101DA00035FF0446234B5B78803B1846FEF72EFF39
:101DB00003464FF087411846FFF730F803464FF0CF
:101DC0007E511846FEF76EFE034619462046FEF782
:101DD00071FF03461846FFF7BDF803461AB27B6D44
:101DE0001A80B7F924301846FEF710FF0446114B4D
:101DF0009B78803B1846FEF709FF03464FF087416A
:101E00001846FFF70BF803464FF07E511846FEF7D1
:101E100049FE034619462046FEF74CFF0346184686
:101E2000FFF798F803461AB2BB6D1A8000BF3C3723
:101E3000BD4690BDD400002090B595B006AFF860C7
:101E4000B9607A603B600A2387F827300023BB62C1
:101E50004DE007F11E0407F1200207F1220107F10E
:101E6000240007F11403049307F11603039307F109
:101E70001803029307F11A03019307F11C0300935F
:101E80002346FFF7D3FEFA8EB7F924309BB2D31A5C
:101E90009BB2A3F57F533F3B9BB2FB86BA8EB7F94B
:101EA00022309BB2D31A9BB2BB867A8EB7F9203010
:101EB0009BB213449BB27B863A8EB7F91E309BB21D
:101EC00013449BB23B86FA8DB7F91C309BB2134486
:101ED0009BB2FB85BA8DB7F91A309BB213449BB203
:101EE000BB856420FFF798FABB6A0133BB6297F9A0
:101EF0002730BA6A9A42ACDBB7F9362097F9273017
:101F000092FBF3F3FB86B7F9342097F9273092FB65
:101F1000F3F3BB86B7F9322097F9273092FBF3F33E
:101F20007B86B7F9302097F9273092FBF3F33B8695
:101F3000B7F92E2097F9273092FBF3F3FB85B7F919
:101F40002C2097F9273092FBF3F3BB85FB68FA8EC0
:101F50001A80BB68BA8E1A807B687A8E1A803B68BA
:101F60003A8E1A80BB6CFA8D1A80FB6CBA8D1A807F
:101F700000BF3C37BD4690BD80B584B000AF3B4646
:101F800000221A605A609A60DA600022202112480A
:101F900001F088F9012210210F4801F083F9302364
:101FA0003B6001237B600023BB600223FB603B4658
:101FB0001946094800F0F2FF08233B6000237B60CC
:101FC0000123BB603B461946034800F0E7FF00BF12
:101FD0001037BD4680BD00BF000C014080B500AF8A
:101FE000174B184A1A60164B4FF482725A60144B02
:101FF00000229A60124B0022DA60114B00221A6113
:102000000F4B00225A610E4B4FF400729A610C4B39
:102010001022DA610A4B00221A62094B00225A622E
:10202000074B00229A62064B0A22DA62044802F049
:10203000C9FE0346002B01D0FFF745FA00BF80BD63
:10204000480200200030014080B588B000AF7860C1
:1020500007F1100300221A605A609A60DA607B6808
:102060001B681B4A93422FD11A4B9B69194A43F4B0
:1020700080539361174B9B6903F48053FB60FB68AB
:10208000144B9B69134A43F004039361114B9B6902
:1020900003F00403BB60BB68A0233B6102237B61A8
:1020A0000323FB6107F1100319460B4800F076FF8C
:1020B00040233B6100237B610023BB6107F11003D8
:1020C0001946054800F06AFF00BF2037BD4680BDB5
:1020D00000300140001002400008014080B58CB083
:1020E00000AF07F10C0324220021184604F0E6F8A3
:1020F0003B1D00221A605A60214B4FF080421A604B
:102100001F4B00225A601E4B00229A601C4B4FF658
:10211000FF72DA601A4B00221A61194B00229A6191
:102120000323FB6000233B6101237B610023BB6130
:102130000023FB6100233B6201237B620023BB621F
:102140000023FB6207F10C0319460D4802F0B0FFB3
:102150000346002B01D0FFF7B6F900237B60002374
:10216000BB603B1D1946064803F010FB0346002BDD
:1021700001D0FFF7A8F900BF3037BD4680BD00BFD2
:102180003003002080B58AB000AF07F120030022A1
:102190001A605A603B1D00221A605A609A60DA6029
:1021A0001A615A619A61274B274A1A60254B4722C8
:1021B0005A60244B00229A60224B6422DA60214B41
:1021C00000221A611F4B00229A611E4802F07EFE17
:1021D0000346002B01D0FFF776F900233B62002372
:1021E0007B6207F120031946164803F0CFFA034635
:1021F000002B01D0FFF767F960237B603223BB60BF
:102200000023FB6000237B613B1D082219460D481B
:1022100002F0F0FF0346002B01D0FFF754F93B1DFD
:102220000C221946074802F0E5FF0346002B01D0B7
:10223000FFF749F9034800F0E5F800BF2837BD462D
:1022400080BD00BFE80200200004004080B58CB0D3
:1022500000AF07F10C0324220021184604F02EF8E9
:102260003B1D00221A605A60204B214A1A601F4B06
:1022700000225A601D4B00229A601C4B4FF6FF72E1
:10228000DA601A4B00221A61184B00229A6103236C
:10229000FB6000233B6101237B610023BB610023C2
:1022A000FB6100233B6201237B620023BB620023AE
:1022B000FB6207F10C0319460C4802F0F9FE0346D5
:1022C000002B01D0FFF7FFF800237B600023BB60E9
:1022D0003B1D1946054803F059FA0346002B01D06F
:1022E000FFF7F1F800BF3037BD4680BDA0020020E7
:1022F0000008004080B58AB000AF786007F118038D
:1023000000221A605A609A60DA607B681B68B3F139
:10231000804F24D1284BDB69274A43F00103D36166
:10232000254BDB6903F001037B617B69224B9B69D1
:10233000214A43F0040393611F4B9B6903F004039C
:102340003B613B690323BB610023FB6100233B62CC
:1023500007F118031946194800F020FE28E07B68B1
:102360001B68174A934223D1134BDB69124A43F08F
:102370000403D361104BDB6903F00403FB60FB68CB
:102380000D4B9B690C4A43F0080393610A4B9B6910
:1023900003F00803BB60BB68C023BB610023FB6183
:1023A00000233B6207F118031946064800F0F6FDCA
:1023B00000BF2837BD4680BD001002400008014024
:1023C00000080040000C014080B485B000AF786088
:1023D0007B681B68094A93420BD1094BDB69084AA9
:1023E00043F00203D361064BDB6903F00203FB6099
:1023F000FB6800BF1437BD4680BC70470004004036
:102400000010024080B588B000AF786007F110037B
:1024100000221A605A609A60DA607B681B680F4A73
:10242000934217D10E4B9B690D4A43F00803936109
:102430000B4B9B6903F00803FB60FB6803233B61C4
:1024400002237B610223FB6107F110031946054853
:1024500000F0A4FD00BF2037BD4680BD0004004051
:1024600000100240000C014080B483B000AF002394
:102470007B6007E0084A7B68134400221A707B687F
:1024800001337B607B68002BF4DD012318460C3799
:10249000BD4680BC704700BFD800002080B584B026
:1024A00000AF03463960FB710023FB73FB79002BFF
:1024B0006DD1394B394A1A60374A3B685360364B05
:1024C00000229A60344B0022DA60334B00221A61FA
:1024D000314B0C225A61304B00229A612E4B002264
:1024E000DA612D4803F0B0F9FB791B012C4A134443
:1024F0004FF480722B491846FFF7BDF82A4B5B69F1
:10250000294A43F001035361274B5B6903F0010340
:10251000BB60BB68002200210F2000F0A4FA0F204E
:1025200000F0BDFA1C4803F08FF90346002B02D0DF
:102530000023FB732AE00123FB73FB791B4A012173
:10254000D1544FF480721749134803F05DFA0346E3
:10255000002B01D00023FB73FB79114A1B011344AC
:1025600008331968124B1B685A68FB798A1A0C49A0
:102570001B010B441A60FA79FB79094912010A44DC
:10258000126807491B010B4404331A6000BFFB7B30
:1025900018461037BD4680BDBC03002000380140FE
:1025A000DC000020EC00002000100240D8000020D9
:1025B0007803002080B586B000AF0346B9607A602A
:1025C000FB7300237B61FB7B002B0ED17B689AB2EF
:1025D0006423B968074803F084F90346FB74FB7C65
:1025E000002B01D17B687B6100BF7B6918461837DF
:1025F000BD4680BDBC0300200EB480B5C7B000AF9F
:102600000246FB1D1A7007F5947207F10C031A605D
:1026100007F10C0307F110001B68D7F824214FF4D1
:10262000807103F07FFEC7F81401D7F8142107F179
:102630001001FB1D1B781846FFF7BCFFC7F81001FF
:10264000D7F81031184607F58E77BD46BDE88040B3
:1026500003B0704780B483B000AF786000BF0C3720
:10266000BD4680BC704780B483B000AF786000BFC7
:102670000C37BD4680BC704780B588B000AF78602D
:1026800007F1100300221A605A609A60DA607B68D2
:102690001B68334A93425FD1324B9B69314A43F402
:1026A000804393612F4B9B6903F48043FB60FB687D
:1026B0002C4B9B692B4A43F004039361294B9B6984
:1026C00003F00403BB60BB684FF400733B6102235B
:1026D0007B610323FB6107F110031946224800F0D8
:1026E0005DFC4FF480633B6100237B610023BB6191
:1026F00007F1100319461C4800F050FC1B4B1C4A04
:102700001A601A4B00225A60184B00229A60174B2D
:102710008022DA60154B00221A61144B00225A61A4
:10272000124B20229A61114B0022DA610F4800F00F
:10273000D1F90346002B01D0FEF7C5FE7B680B4A9A
:102740005A630A4A7B68536200220021252000F068
:102750008AF9252000F0A3F900BF2037BD4680BDCF
:1027600000380140001002400008014078030020BA
:102770005800024080B500AFFEF71CFEFFF774FE64
:10278000FFF7ACFCFFF7FEFCFFF760FDFEF78EFFE6
:10279000FFF724FC6420FFF74DF8FFF795F9FFF7EA
:1027A000EBFBFEF7F1FF00BF80BD000080B500AF7E
:1027B000084B1B68074A43F010031360032000F026
:1027C00047F9002000F008F8FEF782FE00231846C3
:1027D00080BD00BF0020024080B582B000AF7860AD
:1027E000124B1A68124B1B7819464FF47A73B3FBDD
:1027F000F1F3B2FBF3F3184600F05FF90346002B48
:1028000001D001230EE07B680F2B0AD800227968E3
:102810004FF0FF3000F027F9064A7B681360002371
:1028200000E0012318460837BD4680BD00000020A7
:10283000300000202C00002080B400AF054B1B7836
:102840001A46054B1B681344034A136000BFBD467C
:1028500080BC704730000020FC03002080B400AF33
:10286000024B1B681846BD4680BC7047FC03002025
:1028700080B584B000AF7860FFF7F0FFB8607B6888
:10288000FB60FB68B3F1FF3F05D00A4B1B781A468B
:10289000FB681344FB6000BFFFF7E0FF0246BB6824
:1028A000D31AFA689A42F7D800BF00BF1037BD4666
:1028B00080BD00BF3000002080B485B000AF7860DC
:1028C0007B6803F00703FB600C4BDB68BB60BA68F6
:1028D0004FF6FF031340BB60FB681A02BB6813434B
:1028E00043F0BF6343F40033BB60044ABB68D3606A
:1028F00000BF1437BD4680BC704700BF00ED00E04C
:1029000080B400AF044BDB681B0A03F007031846D2
:10291000BD4680BC704700BF00ED00E080B483B0CE
:1029200000AF0346FB7197F90730002B0BDBFB79F7
:1029300003F01F02064997F907305B09012000FAEE
:1029400002F241F8232000BF0C37BD4680BC70471F
:1029500000E100E080B483B000AF03463960FB7152
:1029600097F90730002B0ADB3B68DAB20C4997F97C
:1029700007301201D2B20B4483F800230AE03B680F
:10298000DAB20849FB7903F00F03043B1201D2B21B
:102990000B441A7600BF0C37BD4680BC704700BFA1
:1029A00000E100E000ED00E080B489B000AFF86025
:1029B000B9607A60FB6803F00703FB61FB69C3F150
:1029C0000703042B28BF0423BB61FB690433062BD8
:1029D00002D9FB69033B00E000237B614FF0FF322B
:1029E000BB6902FA03F3DA43BB681A407B699A4079
:1029F0004FF0FF317B6901FA03F3D9437B680B4049
:102A0000134318462437BD4680BC704780B582B05A
:102A100000AF78607B68013BB3F1807F01D3012375
:102A20000FE00A4A7B68013B53600F214FF0FF30F3
:102A3000FFF790FF054B00229A60044B07221A60B3
:102A4000002318460837BD4680BD00BF10E000E0F7
:102A500080B582B000AF78607868FFF72DFF00BFC7
:102A60000837BD4680BD80B586B000AF0346B9606B
:102A70007A60FB7300237B61FFF742FF78617A681D
:102A8000B9687869FFF790FF024697F90F30114651
:102A90001846FFF75FFF00BF1837BD4680BD80B501
:102AA00082B000AF0346FB7197F907301846FFF775
:102AB00035FF00BF0837BD4680BD80B582B000AF8E
:102AC00078607868FFF7A2FF034618460837BD46CE
:102AD00080BD000080B485B000AF78600023FB604B
:102AE0007B68002B01D1012343E07B681B681A46F9
:102AF000224B1344224AA2FB03231B099A007B6842
:102B00001A647B681F4ADA637B68022283F82120FB
:102B10007B681B681B68FB60FB6823F47F5323F012
:102B20003003FB607B685A687B689B681A437B684C
:102B3000DB681A437B681B691A437B685B691A432D
:102B40007B689B691A437B68DB691343FA6813430C
:102B5000FB607B681B68FA681A607B6800229A63D6
:102B60007B68012283F821207B68002283F82020E3
:102B7000002318461437BD4680BC7047F8FFFDBFE0
:102B8000CDCCCCCC0000024080B586B000AFF86060
:102B9000B9607A603B600023FB75FB6893F82030D6
:102BA000012B01D102234AE0FB68012283F8202097
:102BB000FB6893F82130012B3AD1FB68022283F89D
:102BC0002120FB6800229A63FB681B681A68FB6877
:102BD0001B6822F001021A603B687A68B968F868DD
:102BE00000F0AEF9FB68DB6A002B08D0FB681B68BD
:102BF0001A68FB681B6842F00E021A600FE0FB685F
:102C00001B681A68FB681B6822F004021A60FB68E4
:102C10001B681A68FB681B6842F00A021A60FB68AE
:102C20001B681A68FB681B6842F001021A6005E025
:102C3000FB68002283F820200223FB75FB7D1846E9
:102C40001837BD4680BD000080B584B000AF786005
:102C50000023FB737B6893F82130022B05D07B683F
:102C600004229A630123FB7351E07B681B681A6896
:102C70007B681B6822F00E021A607B681B681A686A
:102C80007B681B6822F001021A607B681B68224A7D
:102C9000934229D07B681B68204A934222D07B68EC
:102CA0001B681F4A93421AD07B681B681D4A9342D7
:102CB00012D07B681B681C4A93420AD07B681B6851
:102CC0001A4A934202D14FF480130EE04FF0807302
:102CD0000BE04FF4803308E04FF4805305E04FF4ED
:102CE000807302E0102300E00123114A53607B68E7
:102CF000012283F821207B68002283F820207B6852
:102D00005B6B002B03D07B685B6B78689847FB7B21
:102D100018461037BD4680BD080002401C00024026
:102D20003000024044000240580002406C00024063
:102D30000000024080B584B000AF78607B68DB6B38
:102D40001B68FB607B681B681B68BB607B681B6C37
:102D500004229A40FB681340002B4FD0BB6803F05D
:102D60000403002B4AD07B681B681B6803F0200318
:102D7000002B07D17B681B681A687B681B6822F0F0
:102D800004021A607B681B68664A934229D07B68FC
:102D90001B68654A934222D07B681B68634A934252
:102DA0001AD07B681B68624A934212D07B681B680A
:102DB000604A93420AD07B681B685F4A934202D103
:102DC0004FF480030EE04FF080630BE04FF480235C
:102DD00008E04FF4804305E04FF4806302E04023B5
:102DE00000E00423554A53607B68DB6A002B00F047
:102DF00094807B68DB6A786898478EE07B681B6C00
:102E000002229A40FB681340002B56D0BB6803F0A7
:102E10000203002B51D07B681B681B6803F0200362
:102E2000002B0BD17B681B681A687B681B6822F03B
:102E30000A021A607B68012283F821207B681B68E4
:102E4000384A934229D07B681B68374A934222D084
:102E50007B681B68354A93421AD07B681B68344AEA
:102E6000934212D07B681B68324A93420AD07B6837
:102E70001B68314A934202D14FF400130EE04FF029
:102E800000730BE04FF4003308E04FF4005305E00B
:102E90004FF4007302E0202300E00223274A53602E
:102EA0007B68002283F820207B689B6A002B34D04B
:102EB0007B689B6A786898472FE07B681B6C0822C8
:102EC0009A40FB681340002B28D0BB6803F008032E
:102ED000002B23D07B681B681A687B681B6822F074
:102EE0000E021A607B681A6C7B68DB6B012101FAA9
:102EF00002F25A607B6801229A637B68012283F8A0
:102F000021207B68002283F820207B681B6B002B2C
:102F100004D07B681B6B7868984700BF00BF1037F0
:102F2000BD4680BD080002401C0002403000024047
:102F300044000240580002406C0002400000024081
:102F400080B485B000AFF860B9607A603B60FB6820
:102F50001A6CFB68DB6B012101FA02F25A60FB6814
:102F60001B683A685A60FB685B68102B08D1FB68E5
:102F70001B687A689A60FB681B68BA68DA6007E0C9
:102F8000FB681B68BA689A60FB681B687A68DA603D
:102F900000BF1437BD4680BC7047000080B48BB0C2
:102FA00000AF7860396000237B6200233B6269E1F7
:102FB00001227B6A02FA03F3FB613B681B68FA6932
:102FC0001340BB61BA69FB699A4240F058813B6883
:102FD0005B689A4A93425ED0984A934275D8984A61
:102FE000934258D0964A93426FD8964A934252D011
:102FF000944A934269D8944A93424CD0924A93425D
:1030000063D8924A934246D0904A93425DD8122B9D
:103010002AD8122B59D801A252F823F09730000871
:103020007130000883300008C5300008CB3000083C
:10303000CB300008CB300008CB300008CB30000884
:10304000CB300008CB300008CB300008CB30000874
:10305000CB300008CB300008CB300008CB30000864
:10306000793000088D300008794A934213D02CE063
:103070003B68DB683B6229E03B68DB6804333B620A
:1030800024E03B68DB6808333B621FE03B68DB6899
:103090000C333B621AE03B689B68002B02D104238F
:1030A0003B6213E03B689B68012B05D108233B6220
:1030B0007B68FA691A6109E008233B627B68FA6958
:1030C0005A6103E000233B6200E000BFBB69FF2BB5
:1030D00001D87B6801E07B6804337B61BB69FF2B0F
:1030E00002D87B6A9B0002E07B6A083B9B003B6145
:1030F0007B691A680F213B6901FA03F3DB431A402D
:10310000396A3B6901FA03F31A437B691A603B6829
:103110005B6803F08053002B00F0B1804D4B9B693E
:103120004C4A43F0010393614A4B9B6903F001034E
:10313000BB60BB68484A7B6A9B08023352F8233065
:10314000FB607B6A03F003039B000F2202FA03F388
:10315000DB43FA681340FB607B68404A934213D01C
:103160007B683F4A93420DD07B683E4A934207D02A
:103170007B683D4A934201D1032306E0042304E027
:10318000022302E0012300E000237A6A02F0030236
:1031900092009340FA681343FB602F497B6A9B08B7
:1031A0000233FA6841F823203B685B6803F48033FC
:1031B000002B06D02D4B1A682C49BB6913430B60BA
:1031C00006E02A4B1A68BB69DB43284913400B60B1
:1031D0003B685B6803F40033002B06D0234B5A682E
:1031E0002249BB6913434B6006E0204B5A68BB6918
:1031F000DB431E4913404B603B685B6803F480135C
:10320000002B06D0194B9A681849BB6913438B6091
:1032100006E0164B9A68BB69DB43144913408B6088
:103220003B685B6803F40013002B21D00F4BDA6876
:103230000E49BB691343CB6021E000BF0000321090
:1032400000003110000022100000211000001210B8
:103250000000111000100240000001400008014071
:10326000000C014000100140001401400004014026
:103270000B4BDA68BB69DB4309491340CB607B6ABF
:1032800001337B623B681A687B6A22FA03F3002BE6
:103290007FF48EAE00BF00BF2C37BD4680BC7047A8
:1032A0000004014080B483B000AF78600B467B809F
:1032B00013467B707B78002B03D07A887B681A6179
:1032C00003E07B881A047B681A6100BF0C37BD4697
:1032D00080BC704780B584B000AF78607B68002BFD
:1032E00001D101232BE17B6893F83D30DBB2002B49
:1032F00006D17B68002283F83C207868FEF704FA48
:103300007B68242283F83D207B681B681A687B68F1
:103310001B6822F001021A607B681B681A687B68D0
:103320001B6842F400421A607B681B681A687B685D
:103330001B6822F400421A6001F0FEFCF8607B6812
:103340005B68814A934207D8FB68804A934294BFE6
:1033500001230023DBB206E0FB687D4A934294BF61
:1033600001230023DBB2002B01D00123E7E0FB683F
:10337000784AA2FB03239B0CBB607B681B685B68DD
:1033800023F03F017B681B68BA680A435A607B6878
:103390001B681B6A23F03F017B685B686A4A9342A3
:1033A00002D8BB68013309E0BB684FF4967202FB98
:1033B00003F3694AA2FB03239B0901337A6812686D
:1033C0000B4313627B681B68DB6923F44F4222F0D6
:1033D000FF027B685B685C498B4219D8FB68591E09
:1033E0007B685B685B00B1FBF3F3591C40F6FC7330
:1033F0000B40002B0AD0FB68591E7B685B685B00A2
:10340000B1FBF3F30133C3F30B0351E004234FE0AB
:103410007B689B68002B11D1FB68581E7B6859683C
:103420000B465B000B44B0FBF3F30133C3F30B0318
:10343000002B0CBF01230023DBB212E0FB68581EF7
:103440007B6859680B469B000B4499000B44B0FB0A
:10345000F3F30133C3F30B03002B0CBF0123002351
:10346000DBB2002B01D0012322E07B689B68002B9C
:103470000ED1FB68581E7B6859680B465B000B44F5
:10348000B0FBF3F30133C3F30B0343F400430FE04A
:10349000FB68581E7B6859680B469B000B449900DB
:1034A0000B44B0FBF3F30133C3F30B0343F440438A
:1034B000796809681343CB617B681B681B6823F03C
:1034C000C0017B68DA697B681B6A1A437B681B68EA
:1034D0000A431A607B681B689B6823F4034323F04C
:1034E000FF037A6811697A68D26811437A681268B2
:1034F0000B4393607B681B68DB6823F0FF017B68EC
:103500005A697B689B691A437B681B680A43DA60C7
:103510007B681B681A687B681B6842F001021A60AE
:103520007B6800221A647B68202283F83D207B6838
:1035300000221A637B68002283F83E20002318468D
:103540001037BD4680BD00BFA08601007F841E00ED
:10355000FF083D0083DE1B43D34D621080B588B069
:1035600002AFF8607A601A460B467B8113463B81B6
:10357000FFF774F97861FB6893F83D30DBB2202BDC
:1035800040F0E0807B690093192301227049F868BC
:1035900000F022FE0346002B01D00223D3E0FB689B
:1035A00093F83C30012B01D10223CCE0FB680122CF
:1035B00083F83C20FB681B681B6803F00103012BA8
:1035C00007D0FB681B681A68FB681B6842F00102A1
:1035D0001A60FB681B681A68FB681B6822F40062AB
:1035E0001A60FB68212283F83D20FB68102283F8D3
:1035F0003E20FB6800221A64FB687A685A62FB6806
:103600003A895A85FB685B8D9AB2FB681A85FB681C
:10361000504ADA6279897B693A6AF86800F0F6FB09
:103620000346002B01D001238DE000233B61FB68A2
:103630001B685B693B61FB681B689B693B613B697D
:1036400066E07A69396AF86800F09CFE0346002B50
:103650000DD0FB681B6C042B07D1FB681B681A6834
:10366000FB681B6842F400721A6001236BE0FB6880
:103670005B6A1A78FB681B681A61FB685B6A5A1CF4
:10368000FB685A62FB685B8D9BB2013B9AB2FB6898
:103690005A85FB681B8D013B9AB2FB681A85FB6853
:1036A0001B685B6903F00403042B1BD1FB681B8DB3
:1036B000002B17D0FB685B6A1A78FB681B681A61DD
:1036C000FB685B6A5A1CFB685A62FB685B8D9BB2A5
:1036D000013B9AB2FB685A85FB681B8D013B9AB28D
:1036E000FB681A857A69396AF86800F08CFE03462F
:1036F000002B0DD0FB681B6C042B07D1FB681B68EB
:103700001A68FB681B6842F400721A6001231AE011
:10371000FB681B8D002B94D1FB681B681A68FB6843
:103720001B6842F400721A60FB68202283F83D2077
:10373000FB68002283F83E20FB68002283F83C20CF
:10374000002300E0022318461837BD4680BD00BFA5
:10375000020010000000FFFF80B58CB002AFF860DF
:103760007A601A460B467B8113463B8100233B62FD
:10377000FFF774F87862FB6893F83D30DBB2202BDA
:1037800040F03F827B6A0093192301227F49F86849
:1037900000F022FD0346002B01D0022332E2FB6839
:1037A00093F83C30012B01D102232BE2FB6801226C
:1037B00083F83C20FB681B681B6803F00103012BA6
:1037C00007D0FB681B681A68FB681B6842F001029F
:1037D0001A60FB681B681A68FB681B6822F40062A9
:1037E0001A60FB68222283F83D20FB68102283F8D0
:1037F0003E20FB6800221A64FB687A685A62FB6804
:103800003A895A85FB685B8D9AB2FB681A85FB681A
:103810005F4ADA6279897B6A3A6BF86800F078FB74
:103820000346002B01D00123ECE1FB681B8D002B2C
:1038300013D10023FB61FB681B685B69FB61FB68BC
:103840001B689B69FB61FB69FB681B681A68FB6866
:103850001B6842F400721A60C0E1FB681B8D012BEB
:103860001ED1FB681B681A68FB681B6822F4806223
:103870001A6072B600BF0023BB61FB681B685B69FE
:10388000BB61FB681B689B69BB61BB69FB681B680C
:103890001A68FB681B6842F400721A6062B635E071
:1038A000FB681B8D022B1ED1FB681B681A68FB6826
:1038B0001B6842F400621A6072B600BF00237B618D
:1038C000FB681B685B697B61FB681B689B697B61AC
:1038D0007B69FB681B681A68FB681B6822F48062BE
:1038E0001A6062B612E0FB681B681A68FB681B6806
:1038F00042F480621A6000233B61FB681B685B69CD
:103900003B61FB681B689B693B613B6966E1FB6847
:103910001B8D032B00F21F81FB681B8D012B23D114
:103920007A6A396BF86800F0AFFD0346002B01D0CE
:10393000012367E1FB681B681A69FB685B6AD2B206
:103940001A70FB685B6A5A1CFB685A62FB681B8D25
:10395000013B9AB2FB681A85FB685B8D9BB2013B09
:103960009AB2FB685A8539E1FB681B8D022B52D154
:103970007B6A00933B6B00220649F86800F02CFC40
:103980000346002B08D001233CE100BF02001000D9
:103990000000FFFF0400010072B600BFFB681B6857
:1039A0001A68FB681B6842F400721A60FB681B68A7
:1039B0001A69FB685B6AD2B21A70FB685B6A5A1CB0
:1039C000FB685A62FB681B8D013B9AB2FB681A8543
:1039D000FB685B8D9BB2013B9AB2FB685A8562B66D
:1039E00000BFFB681B681A69FB685B6AD2B21A7079
:1039F000FB685B6A5A1CFB685A62FB681B8D013BC3
:103A00009AB2FB681A85FB685B8D9BB2013B9AB248
:103A1000FB685A85E2E07B6A00933B6B00227B499E
:103A2000F86800F0D9FB0346002B01D00123E9E040
:103A3000FB681B681A68FB681B6822F480621A60C6
:103A400072B600BFFB681B681A69FB685B6AD2B27A
:103A50001A70FB685B6A5A1CFB685A62FB681B8D14
:103A6000013B9AB2FB681A85FB685B8D9BB2013BF8
:103A70009AB2FB685A85664B1B68DB08654AA2FB55
:103A800003231A0A13469B001344DA00D31A3B623D
:103A90003B6A013B3B623B6A002B18D1FB6800226A
:103AA0001A63FB68202283F83D20FB68002283F81C
:103AB0003E20FB681B6C43F02002FB681A6462B670
:103AC00000BFFB68002283F83C2001239AE0FB68DA
:103AD0001B685B6903F00403042BD9D1FB681B68E6
:103AE0001A68FB681B6842F400721A60FB681B6866
:103AF0001A69FB685B6AD2B21A70FB685B6A5A1C6F
:103B0000FB685A62FB681B8D013B9AB2FB681A8501
:103B1000FB685B8D9BB2013B9AB2FB685A8562B62B
:103B200000BFFB681B681A69FB685B6AD2B21A7037
:103B3000FB685B6A5A1CFB685A62FB681B8D013B81
:103B40009AB2FB681A85FB685B8D9BB2013B9AB207
:103B5000FB685A8542E07A6A396BF86800F094FC99
:103B60000346002B01D001234CE0FB681B681A6957
:103B7000FB685B6AD2B21A70FB685B6A5A1CFB680E
:103B80005A62FB681B8D013B9AB2FB681A85FB6881
:103B90005B8D9BB2013B9AB2FB685A85FB681B6840
:103BA0005B6903F00403042B18D1FB681B681A69D6
:103BB000FB685B6AD2B21A70FB685B6A5A1CFB68CE
:103BC0005A62FB681B8D013B9AB2FB681A85FB6841
:103BD0005B8D9BB2013B9AB2FB685A85FB681B8DDB
:103BE000002B7FF494AEFB68202283F83D20FB6815
:103BF000002283F83E20FB68002283F83C2000234B
:103C000000E0022318462837BD4680BD04000100AD
:103C10000000002089B5F81480B588B002AFF860C4
:103C2000084611461A4603467B810B463B811346E4
:103C3000FB80FEF713FE7861FB6893F83D30DBB242
:103C4000202B40F0D9807B690093192301226D4914
:103C5000F86800F0C1FA0346002B01D00223CCE043
:103C6000FB6893F83C30012B01D10223C5E0FB68CF
:103C7000012283F83C20FB681B681B6803F00103EA
:103C8000012B07D0FB681B681A68FB681B6842F0B1
:103C900001021A60FB681B681A68FB681B6822F443
:103CA00000621A60FB68212283F83D20FB684022F5
:103CB00083F83E20FB6800221A64FB683A6A5A6265
:103CC000FB68BA8C5A85FB685B8D9AB2FB681A85D3
:103CD000FB684D4ADA62F8883A8979897B690193F1
:103CE000BB6A00930346F86800F0E0F90346002B36
:103CF00052D0012381E07A69B96AF86800F042FB8A
:103D00000346002B0DD0FB681B6C042B07D1FB680E
:103D10001B681A68FB681B6842F400721A60012372
:103D20006BE0FB685B6A1A78FB681B681A61FB68CA
:103D30005B6A5A1CFB685A62FB681B8D013B9AB296
:103D4000FB681A85FB685B8D9BB2013B9AB2FB68EE
:103D50005A85FB681B685B6903F00403042B1BD1C5
:103D6000FB681B8D002B17D0FB685B6A1A78FB6819
:103D70001B681A61FB685B6A5A1CFB685A62FB6825
:103D80001B8D013B9AB2FB681A85FB685B8D9BB269
:103D9000013B9AB2FB685A85FB681B8D002BAAD1A8
:103DA0007A69B96AF86800F02EFB0346002B0DD043
:103DB000FB681B6C042B07D1FB681B681A68FB6847
:103DC0001B6842F400721A60012316E0FB681B684E
:103DD0001A68FB681B6842F400721A60FB682022B4
:103DE00083F83D20FB68002283F83E20FB68002218
:103DF00083F83C20002300E0022318461837BD4614
:103E000080BD00BF020010000000FFFF80B588B039
:103E100002AFF8607A603B600B467B81FB68DB6A2F
:103E20007B617B69082B06D07B69012B03D07B6902
:103E300013F5803F08D1FB681B681A68FB681B6894
:103E400042F480721A600BE0FB681B6B122B07D1E7
:103E5000FB681B681A68FB681B6842F480721A6072
:103E60003B6800937B6800224FF00111F86800F076
:103E7000B3F90346002B0DD0FB681B681B6803F4E5
:103E80008073B3F5807F03D1FB684FF400721A642E
:103E9000032335E0FB681B69B3F5804F08D17B89AC
:103EA000DBB21A46FB681B6802F0FE021A611BE0D7
:103EB0007B89DB11DBB203F00603DBB263F00F0397
:103EC000DAB2FB681B681A613B687A680E49F868C9
:103ED00000F0D9F90346002B01D0012310E07B89C3
:103EE000DAB2FB681B681A613B687A680749F868B0
:103EF00000F0C9F90346002B01D0012300E00023A4
:103F000018461837BD4680BD0800010002000100B8
:103F100080B588B002AFF8607A603B600B467B8169
:103F2000FB68DB6A7B61FB681B681A68FB681B68BF
:103F300042F480621A607B69082B06D07B69012BF2
:103F400003D07B6913F5803F08D1FB681B681A68B2
:103F5000FB681B6842F480721A600BE0FB681B6B05
:103F6000112B07D1FB681B681A68FB681B6842F4B9
:103F700080721A603B6800937B6800224FF0011149
:103F8000F86800F029F90346002B0DD0FB681B6888
:103F90001B6803F48073B3F5807F03D1FB684FF493
:103FA00000721A64032379E0FB681B69B3F5804F44
:103FB00008D17B89DBB243F00103DAB2FB681B68EE
:103FC0001A615FE07B89DB11DBB203F00603DBB231
:103FD00063F00F03DAB2FB681B681A613B687A680A
:103FE0003049F86800F04FF90346002B01D0012357
:103FF00054E07B89DAB2FB681B681A613B687A6817
:104000002949F86800F03FF90346002B01D001234D
:1040100044E000233B61FB681B685B693B61FB6814
:104020001B689B693B613B69FB681B681A68FB68FE
:104030001B6842F480721A603B6800937B68002220
:104040004FF00111F86800F0C7F80346002B0DD0BF
:10405000FB681B681B6803F48073B3F5807F03D192
:10406000FB684FF400721A64032317E07B89DB11AD
:10407000DBB203F00603DBB263F00E03DAB2FB68D7
:104080001B681A613B687A680749F86800F0FBF81A
:104090000346002B01D0012300E000231846183707
:1040A000BD4680BD080001000200010080B588B057
:1040B00002AFF860084611461A4603467B810B465C
:1040C0003B811346FB80FB681B681A68FB681B6812
:1040D00042F480721A607B6A00933B6A00224FF0C0
:1040E0000111F86800F078F80346002B0DD0FB684A
:1040F0001B681B6803F48073B3F5807F03D1FB68F2
:104100004FF400721A6403235FE07B89DBB21A4626
:10411000FB681B6802F0FE021A617B6A3A6A2D494D
:10412000F86800F0B0F80346002B01D001234CE002
:1041300000237B61FB681B685B697B61FB681B6814
:104140009B697B617B697A6A396AF86800F01AF9C1
:104150000346002B0DD0FB681B6C042B07D1FB68BA
:104160001B681A68FB681B6842F400721A6001231E
:104170002BE0FB88012B05D13B89DAB2FB681B6879
:104180001A6121E03B891B0A9BB2DAB2FB681B680B
:104190001A617A6A396AF86800F0F4F80346002B6D
:1041A0000DD0FB681B6C042B07D1FB681B681A68D9
:1041B000FB681B6842F400721A60012305E03B892A
:1041C000DAB2FB681B681A61002318461837BD462F
:1041D00080BD00BF0200010080B584B000AFF86070
:1041E000B9603B601346FB7125E03B68B3F1FF3FCC
:1041F00021D0FEF733FB0246BB69D31A3A689A42D4
:1042000002D33B68002B16D1FB6800221A63FB68BF
:10421000202283F83D20FB68002283F83E20FB68C3
:104220001B6C43F02002FB681A64FB68002283F8D1
:104230003C20012323E0BB681B0CDBB2012B0DD11A
:10424000FB681B685B69DA43BB6813409BB2002BB9
:104250000CBF01230023DBB21A460CE0FB681B688D
:104260009B69DA43BB6813409BB2002B0CBF012350
:104270000023DBB21A46FB799A42B6D000231846D7
:104280001037BD4680BD80B584B000AFF860B9601E
:104290007A603B6051E0FB681B685B6903F48063F4
:1042A000B3F5806F23D1FB681B681A68FB681B6835
:1042B00042F400721A60FB681B686FF480625A61F6
:1042C000FB6800221A63FB68202283F83D20FB680C
:1042D000002283F83E20FB681B6C43F00402FB685D
:1042E0001A64FB68002283F83C20012346E07B68C7
:1042F000B3F1FF3F21D0FEF7B1FA02463B68D31A73
:104300007A689A4202D37B68002B16D1FB680022A0
:104310001A63FB68202283F83D20FB68002283F8A3
:104320003E20FB681B6C43F02002FB681A64FB68AC
:10433000002283F83C20012320E0BB681B0CDBB289
:10434000012B0CD1FB681B685B69DA43BB68134027
:104350009BB2002B14BF01230023DBB20BE0FB68F0
:104360001B689B69DA43BB6813409BB2002B14BFE8
:1043700001230023DBB2002B8DD100231846103718
:10438000BD4680BD80B584B000AFF860B9607A608A
:104390002DE0F86800F0CEF80346002B01D0012391
:1043A0002DE0BB68B3F1FF3F21D0FEF757FA02467C
:1043B0007B68D31ABA689A4202D3BB68002B16D125
:1043C000FB6800221A63FB68202283F83D20FB680B
:1043D000002283F83E20FB681B6C43F02002FB6840
:1043E0001A64FB68002283F83C20012307E0FB6885
:1043F0001B685B6903F08003802BCAD10023184639
:104400001037BD4680BD80B584B000AFF860B9609C
:104410007A602DE0F86800F08DF80346002B01D09B
:1044200001232DE0BB68B3F1FF3F21D0FEF716FA60
:1044300002467B68D31ABA689A4202D3BB68002B43
:1044400016D1FB6800221A63FB68202283F83D2006
:10445000FB68002283F83E20FB681B6C43F02002BF
:10446000FB681A64FB68002283F83C20012307E004
:10447000FB681B685B6903F00403042BCAD10023AB
:1044800018461037BD4680BD80B584B000AFF860D7
:10449000B9607A6042E0FB681B685B6903F0100357
:1044A000102B19D1FB681B686FF010025A61FB6872
:1044B00000221A63FB68202283F83D20FB6800225B
:1044C00083F83E20FB681A6CFB681A64FB680022C4
:1044D00083F83C20012329E0FEF7C0F902467B68FF
:1044E000D31ABA689A4202D3BB68002B16D1FB6874
:1044F00000221A63FB68202283F83D20FB6800221B
:1045000083F83E20FB681B6C43F02002FB681A64B2
:10451000FB68002283F83C20012307E0FB681B684E
:104520005B6903F04003402BB5D1002318461037D8
:10453000BD4680BD80B483B000AF78607B681B68E7
:104540005B6903F48063B3F5806F1BD17B681B68E4
:104550006FF480625A617B6800221A637B682022B4
:1045600083F83D207B68002283F83E207B681B6C2B
:1045700043F004027B681A647B68002283F83C20C5
:10458000012300E0002318460C37BD4680BC70476D
:1045900080B586B000AF78607B68002B01D1012325
:1045A0006CE27B681B6803F00103002B00F087803E
:1045B000924B5B6803F00C03042B0CD08F4B5B68B1
:1045C00003F00C03082B12D18C4B5B6803F480338F
:1045D000B3F5803F0BD1894B1B6803F40033002BEC
:1045E0006CD07B685B68002B68D1012346E27B6856
:1045F0005B68B3F5803F06D1804B1B687F4A43F46C
:10460000803313602EE07B685B68002B0CD17B4B02
:104610001B687A4A23F480331360784B1B68774A0F
:1046200023F4802313601DE07B685B68B3F5A02F43
:104630000CD1724B1B68714A43F4802313606F4B9B
:104640001B686E4A43F4803313600BE06B4B1B68AE
:104650006A4A23F480331360684B1B68674A23F46B
:10466000802313607B685B68002B13D0FEF7F6F89D
:10467000386108E0FEF7F2F802463B69D31A642B72
:1046800001D90323FAE15D4B1B6803F40033002BCF
:10469000F0D014E0FEF7E2F8386108E0FEF7DEF84B
:1046A00002463B69D31A642B01D90323E6E1534B3D
:1046B0001B6803F40033002BF0D100E000BF7B68DF
:1046C0001B6803F00203002B63D04C4B5B6803F0C4
:1046D0000C03002B0BD0494B5B6803F00C03082B39
:1046E0001CD1464B5B6803F48033002B16D1434B3F
:1046F0001B6803F00203002B05D07B681B69012BAC
:1047000001D00123BAE13D4B1B6823F0F8027B681E
:104710005B69DB00394913430B603AE07B681B6936
:10472000002B20D0364B01221A60FEF797F8386133
:1047300008E0FEF793F802463B69D31A022B01D931
:1047400003239BE12D4B1B6803F00203002BF0D0E9
:104750002A4B1B6823F0F8027B685B69DB00274962
:1047600013430B6015E0264B00221A60FEF776F823
:10477000386108E0FEF772F802463B69D31A022B53
:1047800001D903237AE11D4B1B6803F00203002BC0
:10479000F0D17B681B6803F00803002B3AD07B68DC
:1047A0009B69002B19D0174B01221A60FEF756F8AF
:1047B000386108E0FEF752F802463B69D31A022B33
:1047C00001D903235AE10D4B5B6A03F00203002B6E
:1047D000F0D0012000F0D8FA1CE00A4B00221A6049
:1047E000FEF73CF838610FE0FEF738F802463B6907
:1047F000D31A022B08D9032340E100BF0010024066
:1048000000004242800442429E4B5B6A03F0020376
:10481000002BE9D17B681B6803F00403002B00F038
:10482000A6800023FB75974BDB6903F08053002BB8
:104830000DD1944BDB69934A43F08053D361914B84
:10484000DB6903F08053BB60BB680123FB758E4BB3
:104850001B6803F48073002B18D18B4B1B688A4AAA
:1048600043F480731360FDF7F9FF386108E0FDF74A
:10487000F5FF02463B69D31A642B01D90323FDE0FF
:10488000814B1B6803F48073002BF0D07B68DB68DE
:10489000012B06D17B4B1B6A7A4A43F0010313625A
:1048A0002DE07B68DB68002B0CD1764B1B6A754AC8
:1048B00023F001031362734B1B6A724A23F0040353
:1048C00013621CE07B68DB68052B0CD16D4B1B6A07
:1048D0006C4A43F0040313626A4B1B6A694A43F053
:1048E000010313620BE0674B1B6A664A23F0010366
:1048F0001362644B1B6A634A23F0040313627B68F0
:10490000DB68002B15D0FDF7A9FF38610AE0FDF741
:10491000A5FF02463B69D31A41F28832934201D97E
:104920000323ABE0574B1B6A03F00203002BEED0CE
:1049300014E0FDF793FF38610AE0FDF78FFF0246B0
:104940003B69D31A41F28832934201D9032395E09F
:104950004C4B1B6A03F00203002BEED1FB7D012BB5
:1049600005D1484BDB69474A23F08053D3617B680C
:10497000DB69002B00F08180424B5B6803F00C0385
:10498000082B61D07B68DB69022B46D13F4B0022AC
:104990001A60FDF763FF386108E0FDF75FFF02462C
:1049A0003B69D31A022B01D9032367E0354B1B68FF
:1049B00003F00073002BF0D17B681B6AB3F5803FD6
:1049C00008D1304B5B6823F400327B689B682D492B
:1049D00013434B602B4B5B6823F474127B68196A9A
:1049E0007B685B6A0B43274913434B60274B0122CB
:1049F0001A60FDF733FF386108E0FDF72FFF02462C
:104A00003B69D31A022B01D9032337E01D4B1B68E6
:104A100003F00073002BF0D02FE01C4B00221A6033
:104A2000FDF71CFF386108E0FDF718FF02463B69FF
:104A3000D31A022B01D9032320E0124B1B6803F089
:104A40000073002BF0D118E07B68DB69012B01D1EA
:104A5000012313E00B4B5B68FB60FB6803F48032BF
:104A60007B681B6A9A4206D1FB6803F470127B686C
:104A70005B6A9A4201D0012300E0002318461837F0
:104A8000BD4680BD00100240007000406000424200
:104A900080B584B000AF786039607B68002B01D1AD
:104AA0000123D0E06A4B1B6803F007033A689A427F
:104AB00010D9674B1B6823F0070265493B68134315
:104AC0000B60634B1B6803F007033A689A4201D0FE
:104AD0000123B8E07B681B6803F00203002B20D0A1
:104AE0007B681B6803F00403002B05D0594B5B68FF
:104AF000584A43F4E06353607B681B6803F0080383
:104B0000002B05D0534B5B68524A43F4605353600B
:104B1000504B5B6823F0F0027B689B684D49134360
:104B20004B607B681B6803F00103002B40D07B685F
:104B30005B68012B07D1474B1B6803F40033002B44
:104B400015D101237FE07B685B68022B07D1414BC5
:104B50001B6803F00073002B09D1012373E03D4B68
:104B60001B6803F00203002B01D101236BE0394BDA
:104B70005B6823F003027B685B68364913434B6034
:104B8000FDF76CFEF8600AE0FDF768FE0246FB6880
:104B9000D31A41F28832934201D9032353E02D4BBB
:104BA0005B6803F00C027B685B689B009A42EBD168
:104BB000274B1B6803F007033A689A4210D2244B34
:104BC0001B6823F0070222493B6813430B60204B0C
:104BD0001B6803F007033A689A4201D0012332E0D0
:104BE0007B681B6803F00403002B08D0194B5B683B
:104BF00023F4E0627B68DB68164913434B607B68F3
:104C00001B6803F00803002B09D0124B5B6823F4E8
:104C100060527B681B69DB000E4913434B6000F058
:104C200021F802460B4B5B681B0903F00F030A498E
:104C3000CB5C22FA03F3094A1360094B1B68184640
:104C4000FDF7CAFD002318461037BD4680BD00BFE2
:104C500000200240001002400C80000800000020EC
:104C60002C00002090B48AB000AF2A4B3C1D0FCB23
:104C700084E80F0040F201233B800023FB61002306
:104C8000BB6100237B6200237B6100233B62224BDC
:104C90005B68FB61FB6903F00C03042B02D0082B5B
:104CA00003D02DE01D4B3B622DE0FB699B0C03F014
:104CB0000F0307F12802134413F8243C7B61FB69BE
:104CC00003F48033002B13D0134B5B685B0C03F0B1
:104CD000010307F12802134413F8283CBB617B69E8
:104CE0000E4A02FB03F2BB69B2FBF3F37B6204E002
:104CF0007B690B4A02FB03F37B627B6A3B6202E047
:104D0000064B3B6200BF3B6A18462837BD4690BC45
:104D1000704700BFFC7F00080010024000127A00BC
:104D200000093D0080B400AF024B1B681846BD4629
:104D300080BC70470000002080B500AFFFF7F2FF95
:104D40000246054B5B681B0A03F007030349CB5C73
:104D500022FA03F3184680BD001002401C800008B0
:104D600080B500AFFFF7DEFF0246054B5B68DB0A4C
:104D700003F007030349CB5C22FA03F3184680BD16
:104D8000001002401C80000880B485B000AF78603D
:104D90000A4B1B680A4AA2FB03235B0A7A6802FBE0
:104DA00003F3FB6000BFFB685A1EFA60002BF9D1C9
:104DB00000BF00BF1437BD4680BC70470000002014
:104DC000D34D621080B582B000AF78607B68002B55
:104DD00001D1012376E07B685B6A002B08D17B68F8
:104DE0005B68B3F5827F09D07B680022DA6105E059
:104DF0007B6800221A617B6800225A617B6800226E
:104E00009A627B6893F85130DBB2002B06D17B6845
:104E1000002283F850207868FDF716F97B6802229B
:104E200083F851207B681B681A687B681B6822F036
:104E300040021A607B685B6803F482727B689B683F
:104E400003F404431A437B68DB6803F400631A43EA
:104E50007B681B6903F002031A437B685B6903F0FC
:104E600001031A437B689B6903F400731A437B6850
:104E7000DB6903F038031A437B681B6A03F0800385
:104E800042EA03017B689B6A03F400527B681B685B
:104E90000A431A607B689B691A0C7B681B6802F0E6
:104EA00004025A607B681B68DA697B681B6822F41D
:104EB0000062DA617B6800225A657B68012283F810
:104EC0005120002318460837BD4680BD80B582B00A
:104ED00000AF78607B68002B01D1012341E07B6843
:104EE00093F83D30DBB2002B06D17B68002283F8BB
:104EF0003C207868FDF768FA7B68022283F83D2041
:104F00007B681A687B6804331946104600F030FA53
:104F10007B68012283F846207B68012283F83E20CB
:104F20007B68012283F83F207B68012283F84020C0
:104F30007B68012283F841207B68012283F84220AC
:104F40007B68012283F843207B68012283F8442098
:104F50007B68012283F845207B68012283F83D208D
:104F6000002318460837BD4680BD000080B584B0D8
:104F700000AF786039603B68002B09D17B6893F8FB
:104F80003E30DBB2012B14BF01230023DBB222E051
:104F90003B68042B09D17B6893F83F30DBB2012BCF
:104FA00014BF01230023DBB215E03B68082B09D1B5
:104FB0007B6893F84030DBB2012B14BF0123002340
:104FC000DBB208E07B6893F84130DBB2012B14BF01
:104FD00001230023DBB2002B01D001235EE03B68FC
:104FE000002B04D17B68022283F83E2013E03B684B
:104FF000042B04D17B68022283F83F200BE03B683E
:10500000082B04D17B68022283F8402003E07B68F0
:10501000022283F841207B681B6801223968184608
:1050200000F090FB7B681B681E4A934207D17B68A7
:105030001B685A6C7B681B6842F400425A647B68A8
:105040001B68184A93420ED07B681B68B3F1804FEF
:1050500009D07B681B68144A934204D07B681B68A4
:10506000124A934211D17B681B689B6803F00703C7
:10507000FB60FB68062B10D07B681B681A687B6896
:105080001B6842F001021A6007E07B681B681A681F
:105090007B681B6842F001021A6000231846103733
:1050A000BD4680BD002C01400004004000080040C7
:1050B00080B586B000AF786039607B68002B01D185
:1050C000012393E07B6893F83D30DBB2002B06D1DF
:1050D0007B68002283F83C207868FDF70BF97B6839
:1050E000022283F83D207B681B689B687A681268FF
:1050F00023F4804323F0070393607B681A687B687E
:1051000004331946104600F033F97B681B689B682E
:105110007B617B681B689B693B617B681B681B6AC2
:10512000FB603B681B687A6913437B613B6923F42E
:10513000407323F003033B613B689A683B689B69BB
:105140001B0213433A6913433B613B6923F44063F9
:1051500023F00C033B613B6923F4704323F0F0031D
:105160003B613B68DA683B68DB691B0213433A69C1
:1051700013433B613B681B691A013B681B6A1B03B5
:1051800013433A6913433B61FB6823F02203FB603E
:105190003B685A683B685B691B011343FA68134319
:1051A000FB607B681B687A699A607B681B683A6958
:1051B0009A617B681B68FA681A627B68012283F82F
:1051C00046207B68012283F83E207B68012283F819
:1051D0003F207B68012283F842207B68012283F80C
:1051E00043207B68012283F83D20002318461837AE
:1051F000BD4680BD80B584B000AFF860B9607A600C
:10520000FB6893F83C30012B01D10223ACE0FB6832
:10521000012283F83C207B680C2B00F29F8001A2C6
:1052200052F823F0595200085D5300085D530008FE
:105230005D530008995200085D5300085D53000853
:105240005D530008DB5200085D5300085D53000801
:105250005D5300081B530008FB681B68B9681846BB
:1052600000F0E8F8FB681B689A69FB681B6842F06D
:1052700008029A61FB681B689A69FB681B6822F048
:1052800004029A61FB681B689969BB681A69FB682C
:105290001B680A439A6162E0FB681B68B96818469C
:1052A00000F02EF9FB681B689A69FB681B6842F4E2
:1052B00000629A61FB681B689A69FB681B6822F4AC
:1052C00080629A61FB681B689969BB681B691A0256
:1052D000FB681B680A439A6141E0FB681B68B96878
:1052E000184600F077F9FB681B68DA69FB681B68F1
:1052F00042F00802DA61FB681B68DA69FB681B6828
:1053000022F00402DA61FB681B68D969BB681A697C
:10531000FB681B680A43DA6121E0FB681B68B96817
:10532000184600F0C1F9FB681B68DA69FB681B6866
:1053300042F40062DA61FB681B68DA69FB681B688B
:1053400022F48062DA61FB681B68D969BB681B695B
:105350001A02FB681B680A43DA6100E000BFFB68C1
:10536000002283F83C20002318461037BD4680BD3C
:1053700080B485B000AF786039607B681B68FB60E3
:105380007B68294A93420BD07B68B3F1804F07D0EA
:105390007B68264A934203D07B68254A934208D112
:1053A000FB6823F07003FB603B685B68FA6813439B
:1053B000FB607B681C4A93420BD07B68B3F1804F43
:1053C00007D07B68194A934203D07B68184A9342FE
:1053D00008D1FB6823F44073FB603B68DB68FA6824
:1053E0001343FB60FB6823F080023B685B69134357
:1053F000FB607B68FA681A603B689A687B68DA62CF
:105400003B681A687B689A627B68074A934203D1BB
:105410003B681A697B681A637B6801225A6100BF86
:105420001437BD4680BC7047002C0140000400408A
:105430000008004080B487B000AF786039607B68B6
:105440001B6A23F001027B681A627B681B6A7B611E
:105450007B685B683B617B689B69FB60FB6823F052
:105460007003FB60FB6823F00303FB603B681B6871
:10547000FA681343FB607B6923F002037B613B689E
:105480009B687A6913437B617B681C4A93420CD109
:105490007B6923F008037B613B68DB687A6913430F
:1054A0007B617B6923F004037B617B68134A934231
:1054B00011D13B6923F480733B613B6923F4007392
:1054C0003B613B685B693A6913433B613B689B699D
:1054D0003A6913433B617B683A695A607B68FA68B2
:1054E0009A613B685A687B685A637B687A691A627A
:1054F00000BF1C37BD4680BC704700BF002C014078
:1055000080B487B000AF786039607B681B6A23F095
:1055100010027B681A627B681B6A7B617B685B6830
:105520003B617B689B69FB60FB6823F4E043FB60A5
:10553000FB6823F44073FB603B681B681B02FA683E
:105540001343FB607B6923F020037B613B689B680E
:105550001B017A6913437B617B681D4A93420DD11D
:105560007B6923F080037B613B68DB681B017A6900
:1055700013437B617B6923F040037B617B68144AA2
:10558000934213D13B6923F480633B613B6923F46D
:1055900000633B613B685B699B003A6913433B6175
:1055A0003B689B699B003A6913433B617B683A699E
:1055B0005A607B68FA689A613B685A687B689A63AC
:1055C0007B687A691A6200BF1C37BD4680BC704791
:1055D000002C014080B487B000AF786039607B68F0
:1055E0001B6A23F480727B681A627B681B6A7B618A
:1055F0007B685B683B617B68DB69FB60FB6823F071
:105600007003FB60FB6823F00303FB603B681B68CF
:10561000FA681343FB607B6923F400737B613B688A
:105620009B681B027A6913437B617B681D4A934226
:105630000DD17B6923F400637B613B68DB681B024F
:105640007A6913437B617B6923F480637B617B68A8
:10565000144A934213D13B6923F480533B613B6965
:1056600023F400533B613B685B691B013A691343B8
:105670003B613B689B691B013A6913433B617B6853
:105680003A695A607B68FA68DA613B685A687B68F5
:10569000DA637B687A691A6200BF1C37BD4680BC3A
:1056A000704700BF002C014080B487B000AF786025
:1056B00039607B681B6A23F480527B681A627B68BE
:1056C0001B6A3B617B685B687B617B68DB69FB60B5
:1056D000FB6823F4E043FB60FB6823F44073FB604A
:1056E0003B681B681B02FA681343FB603B6923F4A9
:1056F00000533B613B689B681B033A6913433B6162
:105700007B680F4A934209D17B6923F480437B6114
:105710003B685B699B017A6913437B617B687A69AB
:105720005A607B68FA68DA613B685A687B681A6479
:105730007B683A691A6200BF1C37BD4680BC70475F
:10574000002C014080B487B000AFF860B9607A6087
:10575000BB6803F01F03012202FA03F37B61FB68BD
:105760001A6A7B69DB431A40FB681A62FB681A6A93
:10577000BB6803F01F03796801FA03F31A43FB685F
:105780001A6200BF1C37BD4680BC704780B485B02C
:1057900000AF786039607B6893F83C30012B01D111
:1057A000022346E07B68012283F83C207B680222CA
:1057B00083F83D207B681B685B68FB607B681B6827
:1057C0009B68BB60FB6823F07003FB603B681B6851
:1057D000FA681343FB607B681B68FA685A607B6851
:1057E0001B68164A93420ED07B681B68B3F1804F4A
:1057F00009D07B681B68124A934204D07B681B68FF
:10580000104A93420CD1BB6823F08003BB603B6815
:105810005B68BA681343BB607B681B68BA689A60B0
:105820007B68012283F83D207B68002283F83C20BE
:10583000002318461437BD4680BC7047002C014039
:10584000000400400008004080B582B000AF7860DE
:105850007B68002B01D101233FE07B6893F839304E
:10586000DBB2002B06D17B68002283F838207868F1
:10587000FCF702FF7B68242283F839207B681B68D1
:10588000DA687B681B6822F40052DA60786800F0FE
:1058900051FC7B681B681A697B681B6822F4904284
:1058A0001A617B681B685A697B681B6822F02A02B0
:1058B0005A617B681B68DA687B681B6842F4005297
:1058C000DA607B680022DA637B68202283F8392063
:1058D0007B68202283F83A20002318460837BD460B
:1058E00080BD80B58AB002AFF860B9603B601346F6
:1058F000FB8000237B61FB6893F83930DBB2202BFF
:105900007CD1BB68002B02D0FB88002B01D1012386
:1059100075E0FB6893F83830012B01D102236EE06B
:10592000FB68012283F83820FB680022DA63FB68F9
:10593000212283F83920FCF791FF7861FB68FA880F
:105940009A84FB68FA88DA84FB689B68B3F5805F09
:1059500008D1FB681B69002B04D10023FB61BB68E5
:10596000BB6103E0BB68FB610023BB61FB680022F5
:1059700083F838202AE03B6800937B69002280216D
:10598000F86800F05FFA0346002B01D0032336E0ED
:10599000FB69002B0BD1BB691B881A46FB681B688F
:1059A000C2F308025A60BB690233BB6107E0FB69BE
:1059B0001A78FB681B685A60FB690133FB61FB685E
:1059C000DB8C9BB2013B9AB2FB68DA84FB68DB8C10
:1059D0009BB2002BCFD13B6800937B690022402112
:1059E000F86800F02FFA0346002B01D0032306E0ED
:1059F000FB68202283F83920002300E002231846A8
:105A00002037BD4680BD000080B586B000AFF8608D
:105A1000B9601346FB80FB6893F83A30DBB2202B69
:105A200066D1BB68002B02D0FB88002B01D101237B
:105A30005FE0FB6893F83830012B01D1022358E076
:105A4000FB68012283F83820BA68FB689A62FB6819
:105A5000FA889A85FB680022DA63FB68222283F8C1
:105A60003A20FB685B6B254A9A62FB685B6B244AB1
:105A7000DA62FB685B6B234A1A63FB685B6B00228C
:105A80005A6307F108037B61FB68586BFB681B686E
:105A9000043319467B691A68FB88FDF775F8002303
:105AA0003B61FB681B681B683B61FB681B685B68AC
:105AB0003B613B69FB68002283F83820FB681B6868
:105AC000DA68FB681B6842F48072DA60FB681B6866
:105AD0005A69FB681B6842F001025A61FB681B6847
