:020000040800F2
:100000000050002089030008050300080B030008C6
:1000100011030008170300081D030008000000007A
:1000200000000000000000000000000023030008A2
:100030002F030008000000003B03000847030008EE
:10004000D9030008D9030008D9030008D903000820
:10005000D9030008D9030008D9030008D903000810
:10006000D9030008D9030008D9030008D903000800
:10007000D9030008D9030008D90300085503000874
:10008000D9030008D9030008D9030008D9030008E0
:10009000D9030008D9030008D9030008D9030008D0
:1000A000D9030008D9030008D9030008D9030008C0
:1000B000D9030008D9030008D9030008D9030008B0
:1000C000D9030008D9030008D9030008D9030008A0
:1000D000D903000869030008D9030008D903000800
:1000E000D9030008D903000800000000D903000864
:1000F000D9030008D9030008D9030008D903000870
:10010000D9030008D9030008D9030008D90300085F
:10011000D9030008D9030008D9030008D90300084F
:10012000D9030008D9030008D9030008D90300083F
:1001300010B5054C237833B9044B13B10448AFF321
:1001400000800123237010BD340000200000000057
:100150007441000808B5034B1BB103490348AFF3D2
:10016000008008BD00000000380000207441000835
:1001700080B400AF00BFBD4680BC704780B500AF03
:10018000002000F0EFF9642000F034F8F8E70000F8
:1001900080B584B000AF00F0C7FD00F036F8144B16
:1001A0009B69134A43F020039361114B9B6903F051
:1001B0002003FB60FB680E4B9B690D4A43F008036C
:1001C00093610B4B9B6903F00803BB60BB68084B52
:1001D0009B69074A43F004039361054B9B6903F055
:1001E00004037B607B6800BF1037BD4680BD00BF45
:1001F0000010024080B582B000AF7860786800F0EF
:10020000F5FD00BF0837BD4680BD80B590B000AF9A
:1002100007F1180328220021184603F0A3FF3B1D15
:1002200000221A605A609A60DA601A610123BB6189
:100230004FF48033FB6100233B620123BB62022346
:100240007B634FF48033BB634FF4E013FB6307F130
:100250001803184602F090FC0346002B01D000F072
:1002600019F80F237B600223BB600023FB604FF46F
:1002700080633B6100237B613B1D0221184602F035
:10028000FBFE0346002B01D000F004F800BF40370E
:10029000BD4680BD80B400AF72B600BFFEE700006F
:1002A00080B485B000AF154B9B69144A43F001033D
:1002B0009361124B9B6903F00103BB60BB680F4B5A
:1002C000DB690E4A43F08053D3610C4BDB6903F0CA
:1002D00080537B607B680A4B5B68FB60FB6823F0A4
:1002E000E063FB60FB6843F00073FB60044AFB685B
:1002F000536000BF1437BD4680BC704700100240F9
:100300000000014080B400AFFEE780B400AFFEE71C
:1003100080B400AFFEE780B400AFFEE780B400AF6A
:10032000FEE780B400AF00BFBD4680BC704780B41C
:1003300000AF00BFBD4680BC704780B400AF00BFB7
:10034000BD4680BC704780B500AF00F033FD00BFF4
:1003500080BD000080B500AF024800F0C5FE00BFC0
:1003600080BD00BF6401002080B500AF024803F0EB
:10037000A9FC00BF80BD00BFA801002080B400AF71
:1003800000BFBD4680BC70470D488546FFF7F6FFAD
:100390000C480D490D4A002302E0D458C4500433E0
:1003A000C4188C42F9D30A4A0A4C002301E01360B6
:1003B0000432A242FBD303F0B1FE03F0A4FEFEE739
:1003C000005000200000002034000020BC41000844
:1003D00034000020EC010020FEE7000080B500AFF3
:1003E000124B134A1A60114B124A5A600F4B0022EB
:1003F0009A600E4B0022DA600C4B4FF480421A6177
:100400000A4B00225A61094B00229A61074B0022D5
:10041000DA61064B00221A62044801F021F9034612
:10042000002B01D0FFF736FF00BF80BD7000002019
:1004300000580040801A060080B588B000AF786090
:1004400007F1100300221A605A609A60DA607B6834
:100450001B68164A934224D1154B9B69144A43F0FA
:1004600008039361124B9B6903F00803FB60FB6870
:100470004FF440633B6112237B610323FB6107F16F
:10048000100319460B4800F035FF094BDB69084A99
:1004900043F48003D361064BDB6903F48003BB6044
:1004A000BB6800BF2037BD4680BD00BF005800407C
:1004B00000100240000C014080B586B000AF01235F
:1004C000FB743B4600221A605A609A60DA6001238E
:1004D0007B600023BB600223FB6000237B6116E08E
:1004E0000F4A7B69DB0013449B883B600C4A7B69A5
:1004F00052F833303A461146184600F0FBFE7B694D
:10050000DBB2184600F00EF87B6901337B617B6932
:10051000002BE5DDFB7C18461837BD4680BD00BFCB
:100520000400002080B582B000AF0346FB71FB7968
:10053000002B11D1FB790A4A52F83300FB79084AA3
:10054000DB0013449988FB79054ADB001344DB790F
:100550001A4601F053F800E000BF0837BD4680BDE1
:100560000400002080B582B000AF0346FB71FB7928
:10057000002B0DD1FB79084A52F83320FB7906494C
:10058000DB000B449B881946104601F04FF800E051
:1005900000BF0837BD4680BD0400002080B588B08C
:1005A00000AF0346FB710123FB7607F1080300222D
:1005B0001A605A609A60DA600123FB6000233B6195
:1005C00002237B610023FB6114E0164AFB69DB0018
:1005D00013449B88BB60134AFB6952F8333007F120
:1005E00008021146184600F085FE00F01FF8FB696E
:1005F0000133FB61FB69032BE7DD08210A4802F0A8
:1006000095FF094B1B68FA79DA630C21064802F062
:100610008DFF054B1B68FA791A64FB7E184620375C
:10062000BD4680BD0C0000201C01002080B500AF3D
:10063000124B1B68114A9188104AD279184600F073
:10064000DDFF0E4B9B680D4A91890C4AD27B184600
:1006500000F0D4FF094B1B69084A918A074AD27DF2
:10066000184600F0CBFF054B9B69044A918B034A67
:10067000D27F184600F0C2FF00BF80BD0C000020F2
:1006800080B500AFD0214FF0FF330122054801F0C3
:1006900083FD0346002B01D1012300E0002318460F
:1006A00080BD00BF7000002080B586B004AF7860C8
:1006B0000B46FB7013463B80D021FB789AB24FF07B
:1006C000FF3302933B8801937B6800930123034827
:1006D00001F068FC00BF0837BD4680BD70000020F7
:1006E00080B586B002AF78600B46FB7013463B8046
:1006F0008022FB781343DBB2FB73D02107F10F029A
:100700004FF0FF3300930123074801F0EDF8D021AB
:100710003B884FF0FF3200927A68034801F0E2F91B
:1007200000BF1037BD4680BD7000002080B582B08C
:1007300000AF03460A46FB711346BB71F979BB1D36
:1007400001221846FFF7B0FF0A2000F04FFB00BF60
:100750000837BD4680BD80B582B000AF03463A6021
:10076000FB710B46BB71BB799AB2FB7919463868AD
:10077000FFF7B6FF00BF0837BD4680BD80B582B029
:1007800000AF03460A46FB711346BB7125230C22BA
:1007900011461846FFF7CAFF2622FB791946104674
:1007A000FFF7C4FF6322BB7919461046FFF7BEFF6F
:1007B0002722802343F00103DBB219461046FFF7DE
:1007C000B5FF00BF0837BD4680BD80B582B000AF21
:1007D00003463A60FB710B46BB7125200C22802337
:1007E0001343DBB21946FFF7A1FF2622FB79194616
:1007F0001046FFF79BFF27208022BB791343DBB213
:100800001946FFF793FF012000F0F0FA4920BB7969
:100810003A681946FFF79FFF00BF0837BD4680BD05
:1008200080B500AF7523044A01211846FFF793FFF6
:10083000014B1B78184680BD5000002080B500AFEA
:100840000023044A01211846FFF7BFFF014B1B7824
:10085000184680BD5000002080B582B000AF02E095
:10086000642000F0C3FAFFF70BFF034683F0010397
:10087000DBB2002BF4D16B23012211461846FFF79F
:1008800055FF6A23202211461846FFF74FFF242305
:100890000D2211461846FFF749FF0A230022114690
:1008A0001846FFF76BFF6B23802211461846FFF7AF
:1008B0003DFF0A2000F09AFA0B2301221146184648
:1008C000FFF75CFF6B23012211461846FFF72EFF4E
:1008D000FFF7A6FF0346FB71FB79712B04D0FB7970
:1008E000732B01D001236CE06C23002211461846C3
:1008F000FFF71CFF1C23182211461846FFF716FFAE
:100900001B23002211461846FFF710FF1D2301226A
:1009100011461846FFF70AFF1A230122114618460E
:10092000FFF704FF192300211846FFF7FFFE6A2393
:10093000202211461846FFF7F9FE24230D22114606
:100940001846FFF7F3FEFFF779FF0346482B01D067
:10095000012336E00A23002211461846FFF70EFF56
:10096000642000F043FA0A230F2211461846FFF7CD
:1009700005FF642000F03AFA1023144A03211846B8
:10098000FFF723FF0A23002211461846FFF7F6FE61
:10099000642000F02BFA0A23162211461846FFF7AE
:1009A000EDFE642000F022FA6B2301221146184666
:1009B000FFF7BCFE0323064A07211846FFF705FF91
:1009C000002318460837BD4680BD00BF68000020E0
:1009D0005000002080B584B000AF3B4600221A6072
:1009E0005A609A60DA6000222021124800F006FE68
:1009F000012210210F4800F001FE30233B6001234B
:100A00007B600023BB600223FB603B46194609481C
:100A100000F070FC08233B6000237B600123BB6077
:100A20003B461946034800F065FC00BF1037BD4641
:100A300080BD00BF000C014080B500AF174B184AC5
:100A40001A60164B4FF482725A60144B00229A605F
:100A5000124B0022DA60114B00221A610F4B002268
:100A60005A610E4B4FF400729A610C4B1022DA61FE
:100A70000A4B00221A62094B00225A62074B0022DD
:100A80009A62064B0A22DA62044802F07BFC0346B3
:100A9000002B01D0FFF7FEFB00BF80BDC40000208B
:100AA0000030014080B588B000AF786007F11003D6
:100AB00000221A605A609A60DA607B681B681B4AE1
:100AC00093422FD11A4B9B69194A43F48053936187
:100AD000174B9B6903F48053FB60FB68144B9B69C5
:100AE000134A43F004039361114B9B6903F0040321
:100AF000BB60BB68A0233B6102237B610323FB61D6
:100B000007F1100319460B4800F0F4FB40233B614A
:100B100000237B610023BB6107F1100319460548E0
:100B200000F0E8FB00BF2037BD4680BD003001402B
:100B3000001002400008014080B58AB000AF07F104
:100B4000200300221A605A603B1D00221A605A607E
:100B50009A60DA601A615A619A61274B274A1A60D3
:100B6000254B47225A60244B00229A60224B642274
:100B7000DA60214B00221A611F4B00229A611E4845
:100B800002F084FC0346002B01D0FFF783FB002317
:100B90003B6200237B6207F120031946164803F0ED
:100BA00033F80346002B01D0FFF774FB60237B6012
:100BB0003223BB600023FB6000237B613B1D0822C6
:100BC00019460D4802F054FD0346002B01D0FFF7F3
:100BD00061FB3B1D0C221946074802F049FD034604
:100BE000002B01D0FFF756FB034800F027F800BFA9
:100BF0002837BD4680BD00BF1C0100200004004016
:100C000080B485B000AF78607B681B68094A934266
:100C10000BD1094BDB69084A43F00203D361064B51
:100C2000DB6903F00203FB60FB6800BF1437BD46BD
:100C300080BC7047000400400010024080B588B0BE
:100C400000AF786007F1100300221A605A609A60C2
:100C5000DA607B681B680F4A934217D10E4B9B6981
:100C60000D4A43F0080393610B4B9B6903F00803A3
:100C7000FB60FB6803233B6102237B610223FB6172
:100C800007F110031946054800F034FB00BF203778
:100C9000BD4680BD0004004000100240000C014031
:100CA00080B483B000AF00237B6007E0084A7B6814
:100CB000134400221A707B6801337B607B68002B31
:100CC000F4DD012318460C37BD4680BC704700BFD9
:100CD0006C00002080B483B000AF786000BF0C3798
:100CE000BD4680BC704780B483B000AF786000BF61
:100CF0000C37BD4680BC704780B500AFFFF748FA9F
:100D0000FFF7CEFFFFF718FFFFF768FBFFF794FE32
:100D10006420FFF743FCFFF79FFDFFF75BFEFFF743
:100D2000CBFB00BF80BD000080B500AF084B1B6847
:100D3000074A43F010031360032000F02BF9002052
:100D400000F008F8FFF7ACFA0023184680BD00BF9A
:100D50000020024080B582B000AF7860124B1A6864
:100D6000124B1B7819464FF47A73B3FBF1F3B2FBC5
:100D7000F3F3184600F035F90346002B01D00123A8
:100D80000EE07B680F2B0AD8002279684FF0FF3005
:100D900000F00BF9064A7B681360002300E0012392
:100DA00018460837BD4680BD0000002030000020F6
:100DB0002C00002080B400AF054B1B781A46054B71
:100DC0001B681344034A136000BFBD4680BC7047D4
:100DD00030000020E801002080B400AF024B1B6807
:100DE0001846BD4680BC7047E801002080B584B03D
:100DF00000AF7860FFF7F0FFB8607B68FB60FB68CE
:100E0000B3F1FF3F05D00A4B1B781A46FB68134429
:100E1000FB6000BFFFF7E0FF0246BB68D31AFA6829
:100E20009A42F7D800BF00BF1037BD4680BD00BF53
:100E30003000002080B485B000AF78607B6803F09C
:100E40000703FB600C4BDB68BB60BA684FF6FF031F
:100E50001340BB60FB681A02BB68134343F0BF63D7
:100E600043F40033BB60044ABB68D36000BF14374F
:100E7000BD4680BC704700BF00ED00E080B400AF0D
:100E8000044BDB681B0A03F007031846BD4680BC11
:100E9000704700BF00ED00E080B483B000AF0346B0
:100EA0003960FB7197F90730002B0ADB3B68DAB237
:100EB0000C4997F907301201D2B20B4483F8002392
:100EC0000AE03B68DAB20849FB7903F00F03043B00
:100ED0001201D2B20B441A7600BF0C37BD4680BC5B
:100EE000704700BF00E100E000ED00E080B489B091
:100EF00000AFF860B9607A60FB6803F00703FB613C
:100F0000FB69C3F10703042B28BF0423BB61FB6902
:100F10000433062B02D9FB69033B00E000237B610D
:100F20004FF0FF32BB6902FA03F3DA43BB681A40A1
:100F30007B699A404FF0FF317B6901FA03F3D94393
:100F40007B680B40134318462437BD4680BC70476E
:100F500080B582B000AF78607B68013BB3F1807FE1
:100F600001D301230FE00A4A7B68013B53600F2144
:100F70004FF0FF30FFF790FF054B00229A60044BC3
:100F800007221A60002318460837BD4680BD00BFFF
:100F900010E000E080B582B000AF78607868FFF7BD
:100FA00049FF00BF0837BD4680BD80B586B000AFA1
:100FB0000346B9607A60FB7300237B61FFF75EFF35
:100FC00078617A68B9687869FFF790FF024697F907
:100FD0000F3011461846FFF75FFF00BF1837BD46B8
:100FE00080BD80B582B000AF78607868FFF7B0FF51
:100FF000034618460837BD4680BD000080B584B062
:1010000000AF78600023FB737B6893F82130022BDC
:1010100005D07B6804229A630123FB7351E07B684F
:101020001B681A687B681B6822F00E021A607B68D6
:101030001B681A687B681B6822F001021A607B68D3
:101040001B68224A934229D07B681B68204A93423E
:1010500022D07B681B681F4A93421AD07B681B68AA
:101060001D4A934212D07B681B681C4A93420AD0E7
:101070007B681B681A4A934202D14FF480130EE03A
:101080004FF080730BE04FF4803308E04FF480534F
:1010900005E04FF4807302E0102300E00123114AC1
:1010A00053607B68012283F821207B68002283F84B
:1010B00020207B685B6B002B03D07B685B6B7868C0
:1010C0009847FB7B18461037BD4680BD080002409C
:1010D0001C00024030000240440002405800024020
:1010E0006C0002400000024080B584B000AF786020
:1010F0007B68DB6B1B68FB607B681B681B68BB60E5
:101100007B681B6C04229A40FB681340002B4FD075
:10111000BB6803F00403002B4AD07B681B681B6884
:1011200003F02003002B07D17B681B681A687B68DB
:101130001B6822F004021A607B681B68664A9342AF
:1011400029D07B681B68654A934222D07B681B6864
:10115000634A93421AD07B681B68624A934212D05A
:101160007B681B68604A93420AD07B681B685F4AB1
:10117000934202D14FF480030EE04FF080630BE006
:101180004FF4802308E04FF4804305E04FF4806380
:1011900002E0402300E00423554A53607B68DB6A89
:1011A000002B00F094807B68DB6A786898478EE0BB
:1011B0007B681B6C02229A40FB681340002B56D0C0
:1011C000BB6803F00203002B51D07B681B681B68CF
:1011D00003F02003002B0BD17B681B681A687B6827
:1011E0001B6822F00A021A607B68012283F8212022
:1011F0007B681B68384A934229D07B681B68374A52
:10120000934222D07B681B68354A93421AD07B6890
:101210001B68344A934212D07B681B68324A93425F
:101220000AD07B681B68314A934202D14FF4001305
:101230000EE04FF000730BE04FF4003308E04FF482
:10124000005305E04FF4007302E0202300E0022386
:10125000274A53607B68002283F820207B689B6AC2
:10126000002B34D07B689B6A786898472FE07B68B6
:101270001B6C08229A40FB681340002B28D0BB68E7
:1012800003F00803002B23D07B681B681A687B6877
:101290001B6822F00E021A607B681A6C7B68DB6B9D
:1012A000012101FA02F25A607B6801229A637B688D
:1012B000012283F821207B68002283F820207B68AC
:1012C0001B6B002B04D07B681B6B7868984700BFB2
:1012D00000BF1037BD4680BD080002401C00024020
:1012E0003000024044000240580002406C000240BE
:1012F0000000024080B48BB000AF786039600023FA
:101300007B6200233B6269E101227B6A02FA03F3FC
:10131000FB613B681B68FA691340BB61BA69FB69F2
:101320009A4240F058813B685B689A4A93425ED08B
:10133000984A934275D8984A934258D0964A934215
:101340006FD8964A934252D0944A934269D8944AAD
:1013500093424CD0924A934263D8924A934246D0E9
:10136000904A93425DD8122B2AD8122B59D801A249
:1013700052F823F0EF130008C9130008DB1300082C
:101380001D14000823140008231400082314000867
:101390002314000823140008231400082314000851
:1013A0002314000823140008231400082314000841
:1013B0002314000823140008D1130008E5130008C3
:1013C000794A934213D02CE03B68DB683B6229E00A
:1013D0003B68DB6804333B6224E03B68DB6808332E
:1013E0003B621FE03B68DB680C333B621AE03B6802
:1013F0009B68002B02D104233B6213E03B689B688F
:10140000012B05D108233B627B68FA691A6109E068
:1014100008233B627B68FA695A6103E000233B6260
:1014200000E000BFBB69FF2B01D87B6801E07B684F
:1014300004337B61BB69FF2B02D87B6A9B0002E00F
:101440007B6A083B9B003B617B691A680F213B6903
:1014500001FA03F3DB431A40396A3B6901FA03F3EB
:101460001A437B691A603B685B6803F08053002B6A
:1014700000F0B1804D4B9B694C4A43F001039361EE
:101480004A4B9B6903F00103BB60BB68484A7B6A17
:101490009B08023352F82330FB607B6A03F003039E
:1014A0009B000F2202FA03F3DB43FA681340FB6050
:1014B0007B68404A934213D07B683F4A93420DD0E9
:1014C0007B683E4A934207D07B683D4A934201D1F4
:1014D000032306E0042304E0022302E0012300E0EA
:1014E00000237A6A02F0030292009340FA681343E1
:1014F000FB602F497B6A9B080233FA6841F823207E
:101500003B685B6803F48033002B06D02D4B1A68D0
:101510002C49BB6913430B6006E02A4B1A68BB6970
:10152000DB43284913400B603B685B6803F40033DE
:10153000002B06D0234B5A682249BB6913434B60EA
:1015400006E0204B5A68BB69DB431E4913404B60E1
:101550003B685B6803F48013002B06D0194B9A6834
:101560001849BB6913438B6006E0164B9A68BB6948
:10157000DB43144913408B603B685B6803F4001342
:10158000002B21D00F4BDA680E49BB691343CB60A7
:1015900021E000BF000032100000311000002210D6
:1015A0000000211000001210000011100010024075
:1015B0000000014000080140000C01400010014003
:1015C00000140140000401400B4BDA68BB69DB43A7
:1015D00009491340CB607B6A01337B623B681A6820
:1015E0007B6A22FA03F3002B7FF48EAE00BF00BFAC
:1015F0002C37BD4680BC70470004014080B483B0E6
:1016000000AF78600B467B8013467B707B78002BA5
:1016100003D07A887B681A6103E07B881A047B68B0
:101620001A6100BF0C37BD4680BC704780B485B0DE
:1016300000AF78600B467B807B68DB68FB607A8854
:10164000FB6813401A04FB68D9437B880B401A439C
:101650007B681A6100BF1437BD4680BC704700002C
:1016600080B584B000AF78607B68002B01D1012386
:101670002BE17B6893F83D30DBB2002B06D17B6811
:10168000002283F83C207868FEF7D6FE7B6824228F
:1016900083F83D207B681B681A687B681B6822F012
:1016A00001021A607B681B681A687B681B6842F439
:1016B00000421A607B681B681A687B681B6822F40A
:1016C00000421A6001F02CFEF8607B685B68814A7A
:1016D000934207D8FB68804A934294BF01230023BA
:1016E000DBB206E0FB687D4A934294BF01230023EE
:1016F000DBB2002B01D00123E7E0FB68784AA2FBB4
:1017000003239B0CBB607B681B685B6823F03F0175
:101710007B681B68BA680A435A607B681B681B6A4F
:1017200023F03F017B685B686A4A934202D8BB683A
:10173000013309E0BB684FF4967202FB03F3694A78
:10174000A2FB03239B0901337A6812680B431362DF
:101750007B681B68DB6923F44F4222F0FF027B6841
:101760005B685C498B4219D8FB68591E7B685B68D3
:101770005B00B1FBF3F3591C40F6FC730B40002BEC
:101780000AD0FB68591E7B685B685B00B1FBF3F312
:101790000133C3F30B0351E004234FE07B689B68E4
:1017A000002B11D1FB68581E7B6859680B465B0003
:1017B0000B44B0FBF3F30133C3F30B03002B0CBF5B
:1017C00001230023DBB212E0FB68581E7B685968D6
:1017D0000B469B000B4499000B44B0FBF3F3013321
:1017E000C3F30B03002B0CBF01230023DBB2002B40
:1017F00001D0012322E07B689B68002B0ED1FB689F
:10180000581E7B6859680B465B000B44B0FBF3F332
:101810000133C3F30B0343F400430FE0FB68581E8E
:101820007B6859680B469B000B4499000B44B0FB46
:10183000F3F30133C3F30B0343F4404379680968BE
:101840001343CB617B681B681B6823F0C0017B6876
:10185000DA697B681B6A1A437B681B680A431A6053
:101860007B681B689B6823F4034323F0FF037A68BB
:1018700011697A68D26811437A6812680B439360E1
:101880007B681B68DB6823F0FF017B685A697B6813
:101890009B691A437B681B680A43DA607B681B6894
:1018A0001A687B681B6842F001021A607B6800229C
:1018B0001A647B68202283F83D207B6800221A632B
:1018C0007B68002283F83E20002318461037BD466F
:1018D00080BD00BFA08601007F841E00FF083D0080
:1018E00083DE1B43D34D621080B588B002AFF86031
:1018F0007A601A460B467B8113463B81FFF76CFAF0
:101900007861FB6893F83D30DBB2202B40F0E0803B
:101910007B690093192301227049F86800F050FF99
:101920000346002B01D00223D3E0FB6893F83C3040
:10193000012B01D10223CCE0FB68012283F83C207B
:10194000FB681B681B6803F00103012B07D0FB68D1
:101950001B681A68FB681B6842F001021A60FB688A
:101960001B681A68FB681B6822F400621A60FB6837
:10197000212283F83D20FB68102283F83E20FB687B
:1019800000221A64FB687A685A62FB683A895A85B1
:10199000FB685B8D9AB2FB681A85FB68504ADA6275
:1019A00079897B693A6AF86800F024FD0346002BC8
:1019B00001D001238DE000233B61FB681B685B695C
:1019C0003B61FB681B689B693B613B6966E07A6928
:1019D000396AF86800F0CAFF0346002B0DD0FB6897
:1019E0001B6C042B07D1FB681B681A68FB681B681B
:1019F00042F400721A6001236BE0FB685B6A1A789C
:101A0000FB681B681A61FB685B6A5A1CFB685A62B8
:101A1000FB685B8D9BB2013B9AB2FB685A85FB6801
:101A20001B8D013B9AB2FB681A85FB681B685B69DA
:101A300003F00403042B1BD1FB681B8D002B17D074
:101A4000FB685B6A1A78FB681B681A61FB685B6A53
:101A50005A1CFB685A62FB685B8D9BB2013B9AB2D1
:101A6000FB685A85FB681B8D013B9AB2FB681A859F
:101A70007A69396AF86800F0BAFF0346002B0DD086
:101A8000FB681B6C042B07D1FB681B681A68FB689A
:101A90001B6842F400721A6001231AE0FB681B8D78
:101AA000002B94D1FB681B681A68FB681B6842F422
:101AB00000721A60FB68202283F83D20FB68002238
:101AC00083F83E20FB68002283F83C20002300E0DE
:101AD000022318461837BD4680BD00BF0200100023
:101AE0000000FFFF80B58CB002AFF8607A601A4644
:101AF0000B467B8113463B8100233B62FFF76CF969
:101B00007862FB6893F83D30DBB2202B40F03F82D7
:101B10007B6A0093192301227F49F86800F050FE88
:101B20000346002B01D0022332E2FB6893F83C30DD
:101B3000012B01D102232BE2FB68012283F83C2018
:101B4000FB681B681B6803F00103012B07D0FB68CF
:101B50001B681A68FB681B6842F001021A60FB6888
:101B60001B681A68FB681B6822F400621A60FB6835
:101B7000222283F83D20FB68102283F83E20FB6878
:101B800000221A64FB687A685A62FB683A895A85AF
:101B9000FB685B8D9AB2FB681A85FB685F4ADA6264
:101BA00079897B6A3A6BF86800F0A6FC0346002B43
:101BB00001D00123ECE1FB681B8D002B13D1002326
:101BC000FB61FB681B685B69FB61FB681B689B69C9
:101BD000FB61FB69FB681B681A68FB681B6842F4C1
:101BE00000721A60C0E1FB681B8D012B1ED1FB68DF
:101BF0001B681A68FB681B6822F480621A6072B660
:101C000000BF0023BB61FB681B685B69BB61FB68AD
:101C10001B689B69BB61BB69FB681B681A68FB6832
:101C20001B6842F400721A6062B635E0FB681B8DD7
:101C3000022B1ED1FB681B681A68FB681B6842F404
:101C400000621A6072B600BF00237B61FB681B68EC
:101C50005B697B61FB681B689B697B617B69FB68D7
:101C60001B681A68FB681B6822F480621A6062B6FF
:101C700012E0FB681B681A68FB681B6842F480620C
:101C80001A6000233B61FB681B685B693B61FB6872
:101C90001B689B693B613B6966E1FB681B8D032BFD
:101CA00000F21F81FB681B8D012B23D17A6A396BEF
:101CB000F86800F0DDFE0346002B01D0012367E148
:101CC000FB681B681A69FB685B6AD2B21A70FB6812
:101CD0005B6A5A1CFB685A62FB681B8D013B9AB217
:101CE000FB681A85FB685B8D9BB2013B9AB2FB686F
:101CF0005A8539E1FB681B8D022B52D17B6A009318
:101D00003B6B00220649F86800F05AFD0346002BA1
:101D100008D001233CE100BF020010000000FFFFDB
:101D20000400010072B600BFFB681B681A68FB68FC
:101D30001B6842F400721A60FB681B681A69FB6832
:101D40005B6AD2B21A70FB685B6A5A1CFB685A6203
:101D5000FB681B8D013B9AB2FB681A85FB685B8DA3
:101D60009BB2013B9AB2FB685A8562B600BFFB6822
:101D70001B681A69FB685B6AD2B21A70FB685B6AFF
:101D80005A1CFB685A62FB681B8D013B9AB2FB68C8
:101D90001A85FB685B8D9BB2013B9AB2FB685A8542
:101DA000E2E07B6A00933B6B00227B49F86800F01D
:101DB00007FD0346002B01D00123E9E0FB681B6807
:101DC0001A68FB681B6822F480621A6072B600BF52
:101DD000FB681B681A69FB685B6AD2B21A70FB6801
:101DE0005B6A5A1CFB685A62FB681B8D013B9AB206
:101DF000FB681A85FB685B8D9BB2013B9AB2FB685E
:101E00005A85664B1B68DB08654AA2FB03231A0A46
:101E100013469B001344DA00D31A3B623B6A013B32
:101E20003B623B6A002B18D1FB6800221A63FB68F7
:101E3000202283F83D20FB68002283F83E20FB68C7
:101E40001B6C43F02002FB681A6462B600BFFB689B
:101E5000002283F83C2001239AE0FB681B685B6941
:101E600003F00403042BD9D1FB681B681A68FB68D4
:101E70001B6842F400721A60FB681B681A69FB68F1
:101E80005B6AD2B21A70FB685B6A5A1CFB685A62C2
:101E9000FB681B8D013B9AB2FB681A85FB685B8D62
:101EA0009BB2013B9AB2FB685A8562B600BFFB68E1
:101EB0001B681A69FB685B6AD2B21A70FB685B6ABE
:101EC0005A1CFB685A62FB681B8D013B9AB2FB6887
:101ED0001A85FB685B8D9BB2013B9AB2FB685A8501
:101EE00042E07A6A396BF86800F0C2FD0346002BC5
:101EF00001D001234CE0FB681B681A69FB685B6A30
:101F0000D2B21A70FB685B6A5A1CFB685A62FB68A3
:101F10001B8D013B9AB2FB681A85FB685B8D9BB2F7
:101F2000013B9AB2FB685A85FB681B685B6903F04A
:101F30000403042B18D1FB681B681A69FB685B6AF1
:101F4000D2B21A70FB685B6A5A1CFB685A62FB6863
:101F50001B8D013B9AB2FB681A85FB685B8D9BB2B7
:101F6000013B9AB2FB685A85FB681B8D002B7FF4FE
:101F700094AEFB68202283F83D20FB68002283F8A2
:101F80003E20FB68002283F83C20002300E002236F
:101F900018462837BD4680BD04000100000000201F
:101FA00089B5F81480B588B002AFF86008461146CC
:101FB0001A4603467B810B463B811346FB80FEF7A6
:101FC0000BFF7861FB6893F83D30DBB2202B40F0CB
:101FD000D9807B690093192301226D49F86800F0CC
:101FE000EFFB0346002B01D00223CCE0FB6893F803
:101FF0003C30012B01D10223C5E0FB68012283F8AC
:102000003C20FB681B681B6803F00103012B07D011
:10201000FB681B681A68FB681B6842F001021A60C3
:10202000FB681B681A68FB681B6822F400621A6070
:10203000FB68212283F83D20FB68402283F83E2084
:10204000FB6800221A64FB683A6A5A62FB68BA8C21
:102050005A85FB685B8D9AB2FB681A85FB684D4A0E
:10206000DA62F8883A8979897B690193BB6A0093BF
:102070000346F86800F00EFB0346002B52D0012304
:1020800081E07A69B96AF86800F070FC0346002BB9
:102090000DD0FB681B6C042B07D1FB681B681A680A
:1020A000FB681B6842F400721A6001236BE0FB6856
:1020B0005B6A1A78FB681B681A61FB685B6A5A1CCA
:1020C000FB685A62FB681B8D013B9AB2FB681A855C
:1020D000FB685B8D9BB2013B9AB2FB685A85FB683B
:1020E0001B685B6903F00403042B1BD1FB681B8D89
:1020F000002B17D0FB685B6A1A78FB681B681A61B3
:10210000FB685B6A5A1CFB685A62FB681B8D013BCB
:102110009AB2FB681A85FB685B8D9BB2013B9AB251
:10212000FB685A85FB681B8D002BAAD17A69B96AB6
:10213000F86800F05CFC0346002B0DD0FB681B6CBC
:10214000042B07D1FB681B681A68FB681B6842F404
:1021500000721A60012316E0FB681B681A68FB68AE
:102160001B6842F400721A60FB68202283F83D204D
:10217000FB68002283F83E20FB68002283F83C20A5
:10218000002300E0022318461837BD4680BD00BF7B
:10219000020010000000FFFF80B58AB002AFF860B7
:1021A0007A603B600B467B81FEF716FEF8610123E7
:1021B000BB61FB6893F83D30DBB2202B40F011810E
:1021C000FB690093192301228849F86800F0F8FAA6
:1021D0000346002B01D0022304E1FB6893F83C3056
:1021E000012B01D10223FDE0FB68012283F83C2092
:1021F000FB681B681B6803F00103012B07D0FB6819
:102200001B681A68FB681B6842F001021A60FB68D1
:102210001B681A68FB681B6822F400621A60FB687E
:10222000242283F83D20FB6800221A64FB68704A70
:10223000DA62FB681B681A68FB681B6842F48072EC
:102240001A60FB6900933B6800224FF00111F868A7
:1022500000F0B6FA0346002B0DD0FB681B681B6824
:1022600003F48073B3F5807F03D1FB684FF40072F1
:102270001A640323B6E07B89DBB21A46FB681B684D
:1022800002F0FE021A61FEF7A7FDF861FB681B6809
:102290005B6903F00203022B0CBF01230023DBB2B6
:1022A000FB75FB681B685B6903F48063B3F5806FA3
:1022B0000CBF01230023DBB2BB7525E0FEF78CFDCC
:1022C0000246FB69D31A3A689A4202D33B68002B54
:1022D00003D1FB68A02283F83D20FB681B685B6983
:1022E00003F00203022B0CBF01230023DBB2FB75BA
:1022F000FB681B685B6903F48063B3F5806F0CBFF8
:1023000001230023DBB2BB75FB6893F83D30DBB2E1
:10231000A02B05D0FB7D002B02D1BB7D002BCDD0A7
:10232000FB68202283F83D20FB681B685B6903F093
:102330000203022B29D1FB681B681A68FB681B6823
:1023400042F400721A6000233B61FB681B685B6902
:102350003B61FB681B689B693B613B69FB690093C0
:10236000192301222149F86800F02AFA0346002BBC
:1023700001D0012336E0FB68202283F83D20FB6872
:10238000002283F83C2000232CE0FB681B681A68BD
:10239000FB681B6842F400721A60FB681B686FF4EC
:1023A00080625A61FB690093192301220F49F86882
:1023B00000F006FA0346002B01D0012312E0BB69AE
:1023C0000133BB61BA697B689A42FFF432AFFB68A4
:1023D000202283F83D20FB68002283F83C20012363
:1023E00000E0022318462037BD4680BD02001000E1
:1023F0000000FFFF80B588B002AFF8607A603B60F4
:102400000B467B81FB68DB6A7B617B69082B06D00E
:102410007B69012B03D07B6913F5803F08D1FB68F2
:102420001B681A68FB681B6842F480721A600BE034
:10243000FB681B6B122B07D1FB681B681A68FB68D3
:102440001B6842F480721A603B6800937B6800222C
:102450004FF00111F86800F0B3F90346002B0DD0DE
:10246000FB681B681B6803F48073B3F5807F03D19E
:10247000FB684FF400721A64032335E0FB681B69A4
:10248000B3F5804F08D17B89DBB21A46FB681B6825
:1024900002F0FE021A611BE07B89DB11DBB203F064
:1024A0000603DBB263F00F03DAB2FB681B681A6144
:1024B0003B687A680E49F86800F0D9F90346002BAA
:1024C00001D0012310E07B89DAB2FB681B681A6136
:1024D0003B687A680749F86800F0C9F90346002BA1
:1024E00001D0012300E0002318461837BD4680BD07
:1024F000080001000200010080B588B002AFF8605A
:102500007A603B600B467B81FB68DB6A7B61FB6822
:102510001B681A68FB681B6842F480621A607B695A
:10252000082B06D07B69012B03D07B6913F5803F14
:1025300008D1FB681B681A68FB681B6842F480724C
:102540001A600BE0FB681B6B112B07D1FB681B6843
:102550001A68FB681B6842F480721A603B6800933B
:102560007B6800224FF00111F86800F029F903465A
:10257000002B0DD0FB681B681B6803F48073B3F558
:10258000807F03D1FB684FF400721A64032379E063
:10259000FB681B69B3F5804F08D17B89DBB243F040
:1025A0000103DAB2FB681B681A615FE07B89DB110B
:1025B000DBB203F00603DBB263F00F03DAB2FB68B1
:1025C0001B681A613B687A683049F86800F04FF977
:1025D0000346002B01D0012354E07B89DAB2FB686B
:1025E0001B681A613B687A682949F86800F03FF96E
:1025F0000346002B01D0012344E000233B61FB682C
:102600001B685B693B61FB681B689B693B613B69BD
:10261000FB681B681A68FB681B6842F480721A60CA
:102620003B6800937B6800224FF00111F86800F0CE
:10263000C7F80346002B0DD0FB681B681B6803F42A
:102640008073B3F5807F03D1FB684FF400721A6486
:10265000032317E07B89DB11DBB203F00603DBB257
:1026600063F00E03DAB2FB681B681A613B687A6894
:102670000749F86800F0FBF80346002B01D001235E
:1026800000E0002318461837BD4680BD0800010051
:102690000200010080B588B002AFF860084611461C
:1026A0001A4603467B810B463B811346FB80FB6841
:1026B0001B681A68FB681B6842F480721A607B6AA8
:1026C00000933B6A00224FF00111F86800F078F89F
:1026D0000346002B0DD0FB681B681B6803F4807356
:1026E000B3F5807F03D1FB684FF400721A640323B3
:1026F0005FE07B89DBB21A46FB681B6802F0FE02D2
:102700001A617B6A3A6A2D49F86800F0B0F803460E
:10271000002B01D001234CE000237B61FB681B6888
:102720005B697B61FB681B689B697B617B697A6A7B
:10273000396AF86800F01AF90346002B0DD0FB68DF
:102740001B6C042B07D1FB681B681A68FB681B68AD
:1027500042F400721A6001232BE0FB88012B05D1A3
:102760003B89DAB2FB681B681A6121E03B891B0ACE
:102770009BB2DAB2FB681B681A617A6A396AF86838
:1027800000F0F4F80346002B0DD0FB681B6C042B03
:1027900007D1FB681B681A68FB681B6842F400726B
:1027A0001A60012305E03B89DAB2FB681B681A61F5
:1027B000002318461837BD4680BD00BF0200010047
:1027C00080B584B000AFF860B9603B601346FB7120
:1027D00025E03B68B3F1FF3F21D0FEF7FDFA02464A
:1027E000BB69D31A3A689A4202D33B68002B16D1D0
:1027F000FB6800221A63FB68202283F83D20FB68F7
:10280000002283F83E20FB681B6C43F02002FB682B
:102810001A64FB68002283F83C20012323E0BB6894
:102820001B0CDBB2012B0DD1FB681B685B69DA4323
:10283000BB6813409BB2002B0CBF01230023DBB20B
:102840001A460CE0FB681B689B69DA43BB681340BF
:102850009BB2002B0CBF01230023DBB21A46FB798D
:102860009A42B6D0002318461037BD4680BD80B5C9
:1028700084B000AFF860B9607A603B6051E0FB68FB
:102880001B685B6903F48063B3F5806F23D1FB6839
:102890001B681A68FB681B6842F400721A60FB68C8
:1028A0001B686FF480625A61FB6800221A63FB6840
:1028B000202283F83D20FB68002283F83E20FB683D
:1028C0001B6C43F00402FB681A64FB68002283F867
:1028D0003C20012346E07B68B3F1FF3F21D0FEF7A7
:1028E0007BFA02463B68D31A7A689A4202D37B6825
:1028F000002B16D1FB6800221A63FB68202283F8A4
:102900003D20FB68002283F83E20FB681B6C43F0EF
:102910002002FB681A64FB68002283F83C20012334
:1029200020E0BB681B0CDBB2012B0CD1FB681B68E1
:102930005B69DA43BB6813409BB2002B14BF0123D1
:102940000023DBB20BE0FB681B689B69DA43BB68C2
:1029500013409BB2002B14BF01230023DBB2002BDA
:102960008DD1002318461037BD4680BD80B584B098
:1029700000AFF860B9607A602DE0F86800F0CEF83A
:102980000346002B01D001232DE0BB68B3F1FF3FCC
:1029900021D0FEF721FA02467B68D31ABA689A4220
:1029A00002D3BB68002B16D1FB6800221A63FB68B8
:1029B000202283F83D20FB68002283F83E20FB683C
:1029C0001B6C43F02002FB681A64FB68002283F84A
:1029D0003C20012307E0FB681B685B6903F0800370
:1029E000802BCAD1002318461037BD4680BD80B564
:1029F00084B000AFF860B9607A602DE0F86800F04C
:102A00008DF80346002B01D001232DE0BB68B3F104
:102A1000FF3F21D0FEF7E0F902467B68D31ABA687F
:102A20009A4202D3BB68002B16D1FB6800221A63BE
:102A3000FB68202283F83D20FB68002283F83E20BB
:102A4000FB681B6C43F02002FB681A64FB680022E1
:102A500083F83C20012307E0FB681B685B6903F0F7
:102A60000403042BCAD1002318461037BD4680BD8D
:102A700080B584B000AFF860B9607A6042E0FB686E
:102A80001B685B6903F01003102B19D1FB681B68EE
:102A90006FF010025A61FB6800221A63FB68202263
:102AA00083F83D20FB68002283F83E20FB681A6C07
:102AB000FB681A64FB68002283F83C20012329E0AC
:102AC000FEF78AF902467B68D31ABA689A4202D3A3
:102AD000BB68002B16D1FB6800221A63FB6820221A
:102AE00083F83D20FB68002283F83E20FB681B6CC6
:102AF00043F02002FB681A64FB68002283F83C2044
:102B0000012307E0FB681B685B6903F04003402B6F
:102B1000B5D1002318461037BD4680BD80B483B0C0
:102B200000AF78607B681B685B6903F48063B3F572
:102B3000806F1BD17B681B686FF480625A617B6871
:102B400000221A637B68202283F83D207B680022E4
:102B500083F83E207B681B6C43F004027B681A6498
:102B60007B68002283F83C20012300E00023184604
:102B70000C37BD4680BC704780B586B000AF78602A
:102B80007B68002B01D101236CE27B681B6803F09A
:102B90000103002B00F08780924B5B6803F00C036D
:102BA000042B0CD08F4B5B6803F00C03082B12D165
:102BB0008C4B5B6803F48033B3F5803F0BD1894BBA
:102BC0001B6803F40033002B6CD07B685B68002B20
:102BD00068D1012346E27B685B68B3F5803F06D18C
:102BE000804B1B687F4A43F4803313602EE07B6880
:102BF0005B68002B0CD17B4B1B687A4A23F4803333
:102C00001360784B1B68774A23F4802313601DE020
:102C10007B685B68B3F5A02F0CD1724B1B68714ABF
:102C200043F4802313606F4B1B686E4A43F4803378
:102C300013600BE06B4B1B686A4A23F4803313600C
:102C4000684B1B68674A23F4802313607B685B68CA
:102C5000002B13D0FEF7C0F8386108E0FEF7BCF88F
:102C600002463B69D31A642B01D90323FAE15D4B79
:102C70001B6803F40033002BF0D014E0FEF7ACF82F
:102C8000386108E0FEF7A8F802463B69D31A642BC6
:102C900001D90323E6E1534B1B6803F40033002BF7
:102CA000F0D100E000BF7B681B6803F00203002B3B
:102CB00063D04C4B5B6803F00C03002B0BD0494BEB
:102CC0005B6803F00C03082B1CD1464B5B6803F4D4
:102CD0008033002B16D1434B1B6803F00203002BFB
:102CE00005D07B681B69012B01D00123BAE13D4B64
:102CF0001B6823F0F8027B685B69DB0039491343EA
:102D00000B603AE07B681B69002B20D0364B012218
:102D10001A60FEF761F8386108E0FEF75DF80246D8
:102D20003B69D31A022B01D903239BE12D4B1B686E
:102D300003F00203002BF0D02A4B1B6823F0F802AB
:102D40007B685B69DB00274913430B6015E0264B6A
:102D500000221A60FEF740F8386108E0FEF73CF800
:102D600002463B69D31A022B01D903237AE11D4B9A
:102D70001B6803F00203002BF0D17B681B6803F093
:102D80000803002B3AD07B689B69002B19D0174BA6
:102D900001221A60FEF720F8386108E0FEF71CF8FF
:102DA00002463B69D31A022B01D903235AE10D4B8A
:102DB0005B6A03F00203002BF0D0012000F0C4FA9C
:102DC0001CE00A4B00221A60FEF706F838610FE09B
:102DD000FEF702F802463B69D31A022B08D90323F7
:102DE00040E100BF00100240000042428004424225
:102DF0009E4B5B6A03F00203002BE9D17B681B68E2
:102E000003F00403002B00F0A6800023FB75974B12
:102E1000DB6903F08053002B0DD1944BDB69934A9F
:102E200043F08053D361914BDB6903F08053BB6067
:102E3000BB680123FB758E4B1B6803F48073002B6A
:102E400018D18B4B1B688A4A43F480731360FDF7DB
:102E5000C3FF386108E0FDF7BFFF02463B69D31AA4
:102E6000642B01D90323FDE0814B1B6803F48073BD
:102E7000002BF0D07B68DB68012B06D17B4B1B6AF3
:102E80007A4A43F0010313622DE07B68DB68002B74
:102E90000CD1764B1B6A754A23F001031362734B06
:102EA0001B6A724A23F0040313621CE07B68DB6830
:102EB000052B0CD16D4B1B6A6C4A43F00403136263
:102EC0006A4B1B6A694A43F0010313620BE0674BCC
:102ED0001B6A664A23F001031362644B1B6A634A50
:102EE00023F0040313627B68DB68002B15D0FDF729
:102EF00073FF38610AE0FDF76FFF02463B69D31AA2
:102F000041F28832934201D90323ABE0574B1B6A4D
:102F100003F00203002BEED014E0FDF75DFF3861F3
:102F20000AE0FDF759FF02463B69D31A41F28832A5
:102F3000934201D9032395E04C4B1B6A03F0020333
:102F4000002BEED1FB7D012B05D1484BDB69474AB5
:102F500023F08053D3617B68DB69002B00F0818014
:102F6000424B5B6803F00C03082B61D07B68DB6984
:102F7000022B46D13F4B00221A60FDF72DFF38612E
:102F800008E0FDF729FF02463B69D31A022B01D95D
:102F9000032367E0354B1B6803F00073002BF0D16F
:102FA0007B681B6AB3F5803F08D1304B5B6823F424
:102FB00000327B689B682D4913434B602B4B5B6849
:102FC00023F474127B68196A7B685B6A0B43274998
:102FD00013434B60274B01221A60FDF7FDFE386159
:102FE00008E0FDF7F9FE02463B69D31A022B01D92E
:102FF000032337E01D4B1B6803F00073002BF0D058
:103000002FE01C4B00221A60FDF7E6FE386108E055
:10301000FDF7E2FE02463B69D31A022B01D90323D6
:1030200020E0124B1B6803F00073002BF0D118E076
:103030007B68DB69012B01D1012313E00B4B5B683B
:10304000FB60FB6803F480327B681B6A9A4206D1FE
:10305000FB6803F470127B685B6A9A4201D001231B
:1030600000E0002318461837BD4680BD001002401E
:10307000007000406000424280B584B000AF7860CC
:1030800039607B68002B01D10123D0E06A4B1B68BB
:1030900003F007033A689A4210D9674B1B6823F084
:1030A000070265493B6813430B60634B1B6803F0E1
:1030B00007033A689A4201D00123B8E07B681B6895
:1030C00003F00203002B20D07B681B6803F004038D
:1030D000002B05D0594B5B68584A43F4E0635360BA
:1030E0007B681B6803F00803002B05D0534B5B681B
:1030F000524A43F460535360504B5B6823F0F00234
:103100007B689B684D4913434B607B681B6803F0E9
:103110000103002B40D07B685B68012B07D1474B34
:103120001B6803F40033002B15D101237FE07B687B
:103130005B68022B07D1414B1B6803F00073002B27
:1031400009D1012373E03D4B1B6803F00203002B00
:1031500001D101236BE0394B5B6823F003027B68EC
:103160005B68364913434B60FDF736FEF8600AE0B2
:10317000FDF732FE0246FB68D31A41F288329342D1
:1031800001D9032353E02D4B5B6803F00C027B68ED
:103190005B689B009A42EBD1274B1B6803F0070347
:1031A0003A689A4210D2244B1B6823F00702224946
:1031B0003B6813430B60204B1B6803F007033A681E
:1031C0009A4201D0012332E07B681B6803F00403BC
:1031D000002B08D0194B5B6823F4E0627B68DB6846
:1031E000164913434B607B681B6803F00803002BF0
:1031F00009D0124B5B6823F460527B681B69DB00CB
:103200000E4913434B6000F021F802460B4B5B68FC
:103210001B0903F00F030A49CB5C22FA03F3094AA6
:103220001360094B1B681846FDF794FD00231846F0
:103230001037BD4680BD00BF002002400010024094
:103240009C410008000000202C00002090B48AB0AF
:1032500000AF2A4B3C1D0FCB84E80F0040F2012346
:103260003B800023FB610023BB6100237B620023C2
:103270007B6100233B62224B5B68FB61FB6903F0CF
:103280000C03042B02D0082B03D02DE01D4B3B6216
:103290002DE0FB699B0C03F00F0307F12802134498
:1032A00013F8243C7B61FB6903F48033002B13D0BB
:1032B000134B5B685B0C03F0010307F12802134416
:1032C00013F8283CBB617B690E4A02FB03F2BB6921
:1032D000B2FBF3F37B6204E07B690B4A02FB03F36E
:1032E0007B627B6A3B6202E0064B3B6200BF3B6A4B
:1032F00018462837BD4690BC704700BF8C41000877
:103300000010024000127A0000093D0080B400AFB6
:10331000024B1B681846BD4680BC70470000002069
:1033200080B500AFFFF7F2FF0246054B5B681B0A52
:1033300003F007030349CB5C22FA03F3184680BD70
:1033400000100240AC41000880B485B000AF786046
:103350000A4B1B680A4AA2FB03235B0A7A6802FB3A
:1033600003F3FB6000BFFB685A1EFA60002BF9D123
:1033700000BF00BF1437BD4680BC7047000000206E
:10338000D34D621080B582B000AF78607B68002BAF
:1033900001D1012376E07B685B6A002B08D17B6852
:1033A0005B68B3F5827F09D07B680022DA6105E0B3
:1033B0007B6800221A617B6800225A617B680022C8
:1033C0009A627B6893F85130DBB2002B06D17B68A0
:1033D000002283F850207868FDF764FB7B680222A6
:1033E00083F851207B681B681A687B681B6822F091
:1033F00040021A607B685B6803F482727B689B689A
:1034000003F404431A437B68DB6803F400631A4344
:103410007B681B6903F002031A437B685B6903F056
:1034200001031A437B689B6903F400731A437B68AA
:10343000DB6903F038031A437B681B6A03F08003DF
:1034400042EA03017B689B6A03F400527B681B68B5
:103450000A431A607B689B691A0C7B681B6802F040
:1034600004025A607B681B68DA697B681B6822F477
:103470000062DA617B6800225A657B68012283F86A
:103480005120002318460837BD4680BD80B582B064
:1034900000AF78607B68002B01D1012341E07B689D
:1034A00093F83D30DBB2002B06D17B68002283F815
:1034B0003C207868FDF7A4FB7B68022283F83D205E
:1034C0007B681A687B6804331946104600F08EF951
:1034D0007B68012283F846207B68012283F83E2026
:1034E0007B68012283F83F207B68012283F840201B
:1034F0007B68012283F841207B68012283F8422007
:103500007B68012283F843207B68012283F84420F2
:103510007B68012283F845207B68012283F83D20E7
:10352000002318460837BD4680BD000080B584B032
:1035300000AF786039603B68002B09D17B6893F855
:103540003E30DBB2012B14BF01230023DBB222E0AB
:103550003B68042B09D17B6893F83F30DBB2012B29
:1035600014BF01230023DBB215E03B68082B09D10F
:103570007B6893F84030DBB2012B14BF012300239A
:10358000DBB208E07B6893F84130DBB2012B14BF5B
:1035900001230023DBB2002B01D001235EE03B6856
:1035A000002B04D17B68022283F83E2013E03B68A5
:1035B000042B04D17B68022283F83F200BE03B6898
:1035C000082B04D17B68022283F8402003E07B684B
:1035D000022283F841207B681B6801223968184663
:1035E00000F0EEFA7B681B681E4A934207D17B68A5
:1035F0001B685A6C7B681B6842F400425A647B6803
:103600001B68184A93420ED07B681B68B3F1804F49
:1036100009D07B681B68144A934204D07B681B68FE
:10362000124A934211D17B681B689B6803F0070321
:10363000FB60FB68062B10D07B681B681A687B68F0
:103640001B6842F001021A6007E07B681B681A6879
:103650007B681B6842F001021A600023184610378D
:10366000BD4680BD002C0140000400400008004021
:1036700080B584B000AFF860B9607A60FB6893F8F9
:103680003C30012B01D10223ACE0FB68012283F81E
:103690003C207B680C2B00F29F8001A252F823F0A3
:1036A000D5360008D9370008D9370008D9370008BF
:1036B00015370008D9370008D9370008D93700086E
:1036C00057370008D9370008D9370008D93700081C
:1036D00097370008FB681B68B968184600F0E8F8DF
:1036E000FB681B689A69FB681B6842F008029A61D4
:1036F000FB681B689A69FB681B6822F004029A61E8
:10370000FB681B689969BB681A69FB681B680A43F8
:103710009A6162E0FB681B68B968184600F02EF9F0
:10372000FB681B689A69FB681B6842F400629A6137
:10373000FB681B689A69FB681B6822F480629A61C7
:10374000FB681B689969BB681B691A02FB681B68E8
:103750000A439A6141E0FB681B68B968184600F0AB
:1037600077F9FB681B68DA69FB681B6842F008029E
:10377000DA61FB681B68DA69FB681B6822F00402E7
:10378000DA61FB681B68D969BB681A69FB681B684A
:103790000A43DA6121E0FB681B68B968184600F04B
:1037A000C1F9FB681B68DA69FB681B6842F40062B8
:1037B000DA61FB681B68DA69FB681B6822F48062C7
:1037C000DA61FB681B68D969BB681B691A02FB6870
:1037D0001B680A43DA6100E000BFFB68002283F83F
:1037E0003C20002318461037BD4680BD80B485B00C
:1037F00000AF786039607B681B68FB607B68294A92
:1038000093420BD07B68B3F1804F07D07B68264A88
:10381000934203D07B68254A934208D1FB6823F08A
:103820007003FB603B685B68FA681343FB607B686E
:103830001C4A93420BD07B68B3F1804F07D07B6862
:10384000194A934203D07B68184A934208D1FB6817
:1038500023F44073FB603B68DB68FA681343FB604A
:10386000FB6823F080023B685B691343FB607B6865
:10387000FA681A603B689A687B68DA623B681A6883
:103880007B689A627B68074A934203D13B681A6956
:103890007B681A637B6801225A6100BF1437BD46FA
:1038A00080BC7047002C014000040040000800402C
:1038B00080B487B000AF786039607B681B6A23F002
:1038C00001027B681A627B681B6A7B617B685B68AC
:1038D0003B617B689B69FB60FB6823F07003FB60C6
:1038E000FB6823F00303FB603B681B68FA68134323
:1038F000FB607B6923F002037B613B689B687A690C
:1039000013437B617B681C4A93420CD17B6923F093
:1039100008037B613B68DB687A6913437B617B69E1
:1039200023F004037B617B68134A934211D13B6906
:1039300023F480733B613B6923F400733B613B6874
:103940005B693A6913433B613B689B693A6913437E
:103950003B617B683A695A607B68FA689A613B68A8
:103960005A687B685A637B687A691A6200BF1C37A1
:10397000BD4680BC704700BF002C014080B487B0BA
:1039800000AF786039607B681B6A23F010027B68A7
:103990001A627B681B6A7B617B685B683B617B6842
:1039A0009B69FB60FB6823F4E043FB60FB6823F446
:1039B0004073FB603B681B681B02FA681343FB60A3
:1039C0007B6923F020037B613B689B681B017A695C
:1039D00013437B617B681D4A93420DD17B6923F0C1
:1039E00080037B613B68DB681B017A6913437B6161
:1039F0007B6923F040037B617B68144A934213D1B7
:103A00003B6923F480633B613B6923F400633B61C2
:103A10003B685B699B003A6913433B613B689B6968
:103A20009B003A6913433B617B683A695A607B6843
:103A3000FA689A613B685A687B689A637B687A691E
:103A40001A6200BF1C37BD4680BC7047002C014085
:103A500080B487B000AF786039607B681B6A23F45C
:103A600080727B681A627B681B6A7B617B685B681B
:103A70003B617B68DB69FB60FB6823F07003FB60E4
:103A8000FB6823F00303FB603B681B68FA68134381
:103A9000FB607B6923F400737B613B689B681B02BE
:103AA0007A6913437B617B681D4A93420DD17B6920
:103AB00023F400637B613B68DB681B027A69134374
:103AC0007B617B6923F480637B617B68144A93424A
:103AD00013D13B6923F480533B613B6923F40053CA
:103AE0003B613B685B691B013A6913433B613B687F
:103AF0009B691B013A6913433B617B683A695A60D1
:103B00007B68FA68DA613B685A687B68DA637B68CD
:103B10007A691A6200BF1C37BD4680BC704700BF7F
:103B2000002C014080B487B000AF786039607B68BA
:103B30001B6A23F480527B681A627B681B6A3B61B4
:103B40007B685B687B617B68DB69FB60FB6823F4F7
:103B5000E043FB60FB6823F44073FB603B681B6839
:103B60001B02FA681343FB603B6923F400533B617B
:103B70003B689B681B033A6913433B617B680F4AB0
:103B8000934209D17B6923F480437B613B685B6985
:103B90009B017A6913437B617B687A695A607B6811
:103BA000FA68DA613B685A687B681A647B683A692C
:103BB0001A6200BF1C37BD4680BC7047002C014014
:103BC00080B487B000AFF860B9607A60BB6803F07A
:103BD0001F03012202FA03F37B61FB681A6A7B6907
:103BE000DB431A40FB681A62FB681A6ABB6803F081
:103BF0001F03796801FA03F31A43FB681A6200BFD6
:103C00001C37BD4680BC704780B485B000AF78607B
:103C100039607B6893F83C30012B01D1022346E0E8
:103C20007B68012283F83C207B68022283F83D20D8
:103C30007B681B685B68FB607B681B689B68BB607C
:103C4000FB6823F07003FB603B681B68FA68134352
:103C5000FB607B681B68FA685A607B681B68164AC1
:103C600093420ED07B681B68B3F1804F09D07B680C
:103C70001B68124A934204D07B681B68104A934227
:103C80000CD1BB6823F08003BB603B685B68BA68FB
:103C90001343BB607B681B68BA689A607B6801222B
:103CA00083F83D207B68002283F83C2000231846DF
:103CB0001437BD4680BC7047002C01400004004012
:103CC0000008004080B588B000AF78607B681B6852
:103CD0001B68FB617B681B68DB68BB617B681B68DA
:103CE0005B697B6100233B610023FB60FB6903F0A0
:103CF0000F033B613B69002B0DD1FB6903F02003EF
:103D0000002B08D0BB6903F02003002B03D0786898
:103D100000F079F9D0E03B69002B00F0B0807B69BE
:103D200003F00103002B05D1BB6903F49073002B52
:103D300000F0A580FB6903F00103002B0AD0BB69EA
:103D400003F48073002B05D07B68DB6B43F001022A
:103D50007B68DA63FB6903F00403002B0AD07B69FC
:103D600003F00103002B05D07B68DB6B43F00202FC
:103D70007B68DA63FB6903F00203002B0AD07B69DE
:103D800003F00103002B05D07B68DB6B43F00402DA
:103D90007B68DA63FB6903F00803002B0FD0BB6973
:103DA00003F02003002B04D17B6903F00103002BF7
:103DB00005D07B68DB6B43F008027B68DA637B68C5
:103DC000DB6B002B77D0FB6903F02003002B07D0BF
:103DD000BB6903F02003002B02D0786800F013F9D0
:103DE0007B681B685B6903F04003002B14BF012351
:103DF0000023DBB2FB607B68DB6B03F00803002B66
:103E000002D1FB68002B31D0786800F064F87B6841
:103E10001B685B6903F04003002B23D07B681B68A1
:103E20005A697B681B6822F040025A617B685B6BB1
:103E3000002B13D07B685B6B214A5A637B685B6BFA
:103E40001846FDF7DBF80346002B16D07B685B6B4A
:103E50005B6B7A68526B104698470EE07868FCF707
:103E600039FF0AE07868FCF735FF06E07868FCF770
:103E700031FF7B680022DA631DE000BF1BE0FB69B5
:103E800003F08003002B08D0BB6903F08003002BF4
:103E900003D0786800F050F80EE0FB6903F04003AF
:103EA000002B09D0BB6903F04003002B04D07868D5
:103EB00000F091F800E000BF2037BD4680BD00BF94
:103EC000113F000880B483B000AF786000BF0C37AA
:103ED000BD4680BC704780B483B000AF78607B681B
:103EE0001B68DA687B681B6822F49072DA607B6872
:103EF0001B685A697B681B6822F001025A617B6863
:103F0000202283F83A2000BF0C37BD4680BC7047A2
:103F100080B584B000AF78607B685B6AFB60FB684B
:103F20000022DA85FB680022DA84F868FCF7D2FE0A
:103F300000BF1037BD4680BD80B485B000AF78604B
:103F40007B6893F83930DBB2212B3ED17B689B68CC
:103F5000B3F5805F14D17B681B69002B10D17B689F
:103F60001B6AFB60FB681B881A467B681B68C2F3F0
:103F700008025A607B681B6A9A1C7B681A6208E018
:103F80007B681B6A591C7A6811621A787B681B6807
:103F90005A607B68DB8C9BB2013B9BB27A68194606
:103FA000D184002B0FD17B681B68DA687B681B68A3
:103FB00022F08002DA607B681B68DA687B681B6825
:103FC00042F04002DA60002300E002231846143772
:103FD000BD4680BC704780B582B000AF78607B681A
:103FE0001B68DA687B681B6822F04002DA607B6835
:103FF000202283F839207868FFF764FF00231846F1
:104000000837BD4680BD80B584B000AF78607B685E
:1040100093F83A30DBB2222B70D17B689B68B3F502
:10402000805F17D17B681B69002B13D10023FB60D5
:104030007B689B6ABB607B681B685B689BB2C3F351
:1040400008039AB2BB681A807B689B6A9A1C7B68DB
:104050009A6226E07B689B6AFB600023BB607B68FA
:104060009B68B3F5805F07D07B689B68002B0AD103
:104070007B681B69002B06D17B681B685B68DAB222
:10408000FB681A7008E07B681B685B68DBB203F0B2
:104090007F03DAB2FB681A707B689B6A5A1C7B68E4
:1040A0009A627B68DB8D9BB2013B9BB27A681946B2
:1040B000D185002B20D17B681B68DA687B681B6880
:1040C00022F02002DA607B681B68DA687B681B6874
:1040D00022F48072DA607B681B685A697B681B680F
:1040E00022F001025A617B68202283F83A20786826
:1040F000FCF7F9FD002302E0002300E0022318464C
:104100001037BD4680BD80B500AFFCF7F5FDFCF76C
:104110002FF8FCF733F80023184680BD70B5002651
:104120000C4D0D4C641BA410A64209D100F022F8DE
:1041300000260A4D0A4C641BA410A64205D170BD8E
:1041400055F8043B98470136EEE755F8043B98478D
:104150000136F2E7B4410008B4410008B441000858
:10416000B841000803460244934200D1704703F867
:10417000011BF9E7F8B500BFF8BC08BC9E467047C4
:0C418000F8B500BFF8BC08BC9E467047B4
:10418C0002030405060708090A0B0C0D0E0F10108C
:10419C0000000000000000000102030406070809EB
:0841AC00000000000102030401
:0441B40055010008A9
:0441B80031010008C9
:1041BC000024F400000C014000100000000C014031
:1041CC0000200001000C014000400001000C0140E7
:1041DC0000800001000801400001000110000000F7
:0441EC0001000000CE
:040000050800038963
:00000001FF
